:020000040800F2
:10000000803B0020A101000803200008BD1A000861
:100010000120000897070008A5250008000000003F
:100020000000000000000000000000002520000883
:100030004D0F0008000000000520000829200008DE
:10004000BB010008BB010008BB010008BB010008A0
:10005000BB010008BB010008BB010008BB01000890
:10006000BB010008BB010008BB010008BB01000880
:10007000BB010008BB010008BB010008BB01000870
:10008000BB010008BB010008BB010008BB01000860
:10009000BB010008BB010008BB010008BB01000850
:1000A000BB010008BB010008BB010008BB01000840
:1000B000BB01000861210008BB010008BB0100086A
:1000C000BB010008BB010008BB010008BB01000820
:1000D000BB010008812300088D2300089923000834
:1000E000BB010008BB010008BB010008BB01000800
:1000F000BB010008BB010008BB010008BB010008F0
:10010000BB010008BB010008BB010008BB010008DF
:10011000BB010008BB010008BB010008BB010008CF
:10012000BB010008BB010008BB010008BB010008BF
:10013000BB010008BB010008BB010008BB010008AF
:10014000BB010008BB010008BB010008BB0100089F
:10015000BB010008BB010008BB010008BB0100088F
:10016000BB010008BB010008BB010008BB0100087F
:10017000BB010008BB010008BB0100080000000033
:10018000BB010008BB010008DFF810D000F082FAC4
:10019000004800479D3A0008AFF30080803B0020F4
:1001A0000648804706480047FEE7FEE7FEE7FEE711
:1001B000FEE7FEE7FEE7FEE7FEE7FEE75121000867
:1001C000890100082DE9F05F0546002092469B4614
:1001D00088460646814640241BE02846414647465D
:1001E000224600F08EF853465A46C01A914110D369
:1001F00011461846224600F075F82D1A67EB0108E3
:100200004F4622460120002100F06CF817EB000950
:100210004E41201EA4F10104DFDC484631462A4647
:100220004346BDE8F09F40EA01039B0703D009E085
:1002300008C9121F08C0042AFAD203E011F8013BD2
:1002400000F8013B521EF9D27047D2B201E000F82B
:10025000012B491EFBD270470022F6E710B513466A
:100260000A4604461946FFF7F0FF204610BD30B598
:1002700005462A460B4612F8010B13F8014B08B14C
:10028000A042F8D01CB1002802D06D1CF1E728462E
:1002900030BD10B5044604E00B7800F8013B03B113
:1002A000491C521EF8D2204610BD421C10F8011BFA
:1002B0000029FBD1801A704730B50B46014600205B
:1002C0002022012409E021FA02F59D4205D303FA18
:1002D00002F5491B04FA02F52844151EA2F1010299
:1002E000F1DC30BD202A04DB203A00FA02F10020C4
:1002F00070479140C2F1200320FA03F31943904064
:100300007047202A04DB203A21FA02F000217047CE
:1003100021FA02F3D040C2F120029140084319466D
:1003200070472DE9FE4F804681EA0300C00F0C465E
:10033000009021F0004123F00045B8EB0200A941F4
:1003400005D24046214690461C460B46024623F005
:100350000040104347D0270DC7F30A00C3F30A51EA
:100360000290401A019040286BDAC3F3130040F466
:10037000801B0098924620B10023D2EB030A63EB66
:100380000B0B01985946C0F140025046FFF7AAFFF7
:1003900006460D4650465946019A00F08DF910EB7D
:1003A00008006141002487EA115284EAE7731A4386
:1003B00040D0009A62B3019A012A4FEA075215DC35
:1003C000001B61EB02014FF0004202EA0752CDE947
:1003D0000042001C41F5801132462B4600F08DF999
:1003E00003B0BDE8F08F40462146F9E7001B61EB02
:1003F0000201001C41F5801300185B412018A2F592
:10040000001747EB030140EAD570B6196D4111E0C2
:100410006D084FEA360645EAC0754FEA0752001BE1
:1004200061EB0201001C41F5801149084FEA3000E0
:100430000019514132462B4603B0BDE8F04F00F0A1
:100440004DB90098012240000023D0EB020263EB7B
:10045000E073009821464FEAE074B8EB000061EBCE
:100460000401E9E783F000435BE781F0004158E7CE
:100470002DE9FE4F81EA030404F0004421F000411D
:1004800000944FF0000B23F0004350EA01045ED0CB
:1004900052EA03045BD0C3F30A54C1F30A552C4457
:1004A000A4F2F3340194A0FB0254C1F3130141F40C
:1004B0008011C3F3130343F4801301FB024400FBD8
:1004C000034E840A970A44EA815447EA8357A4FBFF
:1004D000076802958D0A05FB07854FEA932C04FBFC
:1004E0000C542705029D4FEA065847EA1637B5EB2C
:1004F00008056EEB070C870E920E47EA811742EA59
:100500008312A7FB0201B6EB0B0164EB00042B0D79
:1005100043EA0C335E1844EB1C50DA465146E7FBC5
:100520000201C5F313044FEA0B3343EA14534FEAB5
:100530000432019C43EA0603A4F10C040294009CDB
:10054000CDE900B400F0D9F803B0BDE8F08F002089
:100550000146F9E72DE9F04D81EA030404F0004B70
:1005600021F0004514464FF0000A23F0004150EA04
:10057000050220D054EA01021DD0C5F30A570246F5
:10058000C5F31303C1F31300C1F30A5640F48015F9
:1005900043F48013A7EB0608101BD64608F2FD387B
:1005A00073EB050002D308F1010801E092185B41EA
:1005B000B8F1000F03DA00200146BDE8F08D0020FD
:1005C0004FF48011064684460EE0171B73EB0507B7
:1005D00005D3121B63EB050306434CEA010C4908E3
:1005E0004FEA300092185B4150EA0107EDD152EA20
:1005F000030012D082EA040083EA0501084305D013
:10060000101BAB4106D20122002306E000224FF06E
:10061000004302E06FF0010253101AEB06004CEBAE
:10062000085110EB0A0041EB0B01BDE8F04D00F062
:1006300055B8C1F30A52C1F3130140F2FF3341F43C
:1006400080119A4202DA00200146704740F233439B
:100650009A42A2F2334202DC5242FFF752BEFFF747
:1006600041BE000030B5041E71F1000404DB4FF000
:100670000044404264EB0101141E73F1000405DBE9
:100680001C464FF00043524263EB0403994208BFFB
:10069000904230BD064C074D06E0E06840F0010393
:1006A00094E8070098471034AC42F6D3FFF770FD8A
:1006B000F852000818530008202A06DBCB17203A0E
:1006C00041FA02F043EAE07306E041FA02F3D04057
:1006D000C2F12002914008431946704710B5141E1C
:1006E00073F1000408DA401C41F1000192185B41EB
:1006F0001A4301D120F0010010BD2DE9F04D9246C2
:100700009B4611B1B1FA81F202E0B0FA80F22032D8
:100710009046FFF7E7FD04460F4640EA0A0041EA2B
:100720000B0153465A46084313D0114653EA0100C1
:1007300019D0C8F140025046FFF7E3FD05460E46CA
:10074000504659464246FFF7CDFD084305D00120EB
:1007500004E020463946BDE8F08D0020054346EA16
:10076000E0762C4337430A986305E40AA0EB0800BF
:100770000022FD0A44EA47540A3002D5002001460F
:10078000E9E7010510196941DDE9084500196941EA
:10079000BDE8F04DA2E7FEE730B5A1B08021684684
:1007A000FFF75AFD002414A004F0E0FA4FF47A7029
:1007B00002F074FC6D462919012002F08DFE641CC4
:1007C000E4B2802CF7D96846FFF76FFDC2B26946E4
:1007D0000BA001F079FF0EA16846FFF748FD10B1AC
:1007E000002021B030BDC82002F058FC694609A0A5
:1007F00001F06AFF0120F4E7415445300D0A000082
:10080000BDD3CADCB5BDB5C425732025640A00007C
:100810004F4B00004154CAA7B0DCA3BA25730A00AD
:1008200030B5A1B0054680216846FFF715FD0024CC
:10083000294616A004F09AFA4FF47A7002F02EFCC2
:100840006D462919012002F047FE641CE4B2802C99
:10085000F7D96846FFF729FDC2B269460DA001F03D
:1008600033FF10A16846FFF702FD10B1002021B050
:1008700030BD0DA16846FFF7FAFC08B10120F6E78C
:1008800069460BA001F020FFF8E7000025730D0A70
:1008900000000000BDD3CADCB5BDB5C4257320255A
:1008A000640A00004F4B00004641494C5552450038
:1008B000C3FCC1EECAA7B0DCA3BA25730A000000CE
:1008C00030B5A1B0054680216846FFF7C5FC00247D
:1008D000294616A004F04AFA4FF47A7002F0DEFBC3
:1008E0006D462919012002F0F7FD641CE4B2802C4A
:1008F000F7D96846FFF7D9FCC2B269460DA001F0EE
:10090000E3FE10A16846FFF7B2FC10B1002021B051
:1009100030BD0EA16846FFF7AAFC08B10120F6E73A
:1009200069460CA001F0D0FEF8E7000025730D0A1F
:1009300000000000BDD3CADCB5BDB5C425732025B9
:10094000640A000053554343455353004641494C04
:1009500055524500C3FCC1EECAA7B0DCA3BA25734B
:100960000A00000030B5A1B0054680216846FFF7B7
:1009700073FC0024294616A004F0F8F94FF4FA603D
:1009800002F08CFB6D462919012002F0A5FD641CC4
:10099000E4B2802CF7D96846FFF787FCC2B26946FB
:1009A0000DA001F091FE10A16846FFF760FC10B1A8
:1009B000002021B030BD0EA16846FFF758FC08B1F9
:1009C0000120F6E769460CA001F07EFEF8E7000082
:1009D00025730D0A00000000BDD3CADCB5BDB5C447
:1009E00025732025640A00005355434345535300A3
:1009F0004641494C55524500C3FCC1EECAA7B0DC84
:100A0000A3BA25730A00000030B5B3B0C821684608
:100A1000FFF722FC002416A004F0A8F94FF47A7026
:100A200002F03CFB6D462919012002F055FD641CC3
:100A3000E4B2C82CF7D96846FFF737FCC2B2694662
:100A40000FA001F041FE12A16846FFF710FC10B1A3
:100A5000002033B030BD0FA16846FFF708FC08B195
:100A60000120F6E769460CA001F02EFEF8E7000031
:100A700041542B4E45544F50454E3F0D0A00000047
:100A8000BDD3CADCB5BDB5C425732025640A0000FA
:100A90003100000030000000C3FCC1EECAA7B0DC8A
:100AA000A3BA25730A00000030B5A1B080216846C2
:100AB000FFF7D2FB002414A004F058F94FF47A7029
:100AC00002F0ECFA6D462919012002F005FD641CC4
:100AD000E4B2802CF7D96846FFF7E7FBC2B269465B
:100AE0000BA001F0F1FD0EA16846FFF7C0FB10B1AD
:100AF000002021B030BDC82002F0D0FA694609A01C
:100B000001F0E2FD0120F4E741540D0A000000006D
:100B1000BDD3CADCB5BDB5C425732025640A000069
:100B20004F4B00004154CAA7B0DCA3BA25730A009A
:100B300070B5C0B04FF48074002521466846FFF7B9
:100B40008BFBFFF7B1FF28B13EA001F0BDFD0120F6
:100B500040B070BD3DA001F0B7FDFFF71DFE20B114
:100B60003DA001F0B1FD0220F2E73EA001F0ACFD96
:100B700040A0FFF755FE44A0FFF752FE46A0FFF746
:100B80004FFE20B14BA001F09FFD0320E0E74DA0F8
:100B900001F09AFD4FF47A7002F080FAFFF734FF0B
:100BA00050B14CA001F090FD4EA0FFF7DBFE18B154
:100BB00050A001F089FD19E052A001F085FD56A278
:100BC00058A1684601F090FD6846FFF729FE2146CE
:100BD0006846FFF741FB40F25B7356A259A1684695
:100BE00001F082FD6846FFF76BFE08B101F0CCFD15
:100BF00021466846FFF730FB4FF4FA76304602F0A4
:100C00004DFA55A0FFF75CFE08B10620A0E730467C
:100C100002F044FA55A258A1684601F065FD684605
:100C2000FFF74EFE08B1052092E721466846FFF720
:100C300013FB304602F032FA53490120087028466F
:100C400086E700004154CAA7B0DC0A004154B3C98A
:100C5000B9A60D0A000000004154BBD8CFD4CAA7E2
:100C6000B0DC0A004154BBD8CFD4B3C9B9A60D0A31
:100C70000000000041542B4D444953434F4E4E4514
:100C800043540D0A0000000041542B4D4950434C81
:100C90004F53450D0A00000041542B51494353471F
:100CA000503D312C312C22222C22222C22220D0AC2
:100CB000000000004154C5E4D6C3CDF8C2E7CAA77E
:100CC000B0DC0A004154C5E4D6C3CDF8C2E7B3C9CD
:100CD000B9A60A004154C3BBD3D0B4F2BFAACDF821
:100CE000C2E70A0041542B4E45544F50454E0D0A61
:100CF000000000004154B4F2BFAACDF8C2E7CAA771
:100D0000B0DC0A004154B4F2BFAACDF8C2E7B3C9BF
:100D1000B9A60D0A000000007A6A745F74657374E6
:100D20000000000041542B4D434F4E4649473D259E
:100D3000730D0A0034372E3130382E3134342E34CE
:100D40003100000041542B4D495053544152543D01
:100D500025732C25640D0A0041542B4D434F4E4EF4
:100D60004543543D312C36300D0A00006170705FF0
:100D7000746F70696300000041542B4D5355423D20
:100D800025732C300D0A00000001002070B50E4DB7
:100D90000C460A460146A86B801CFFF744FAE01790
:100DA00004EB1061A86B0A0A214602704170021917
:100DB0000021917000F59670A863296C884201D1DA
:100DC0000248A86370BD0000940000202415002094
:100DD00010B578B101280FD002280FD0032807D012
:100DE000042805D0052803D0E82105A000F0AFF8BD
:100DF000002010BD094810BD094810BD094810BDAC
:100E00002E2E5C6273705C7372635C6273705F75CC
:100E10006172745F6669666F2E630000B41E002005
:100E2000E02600200C2F00202DE9F041464C2078D0
:100E3000062822D0A0784FF4427101EB401001F057
:100E4000B3FB222805D0002344220221A07803F01E
:100E50000BFF012503F0BEF9C2B23B4894F9003004
:100E6000C01D00260127011F4FF00308052B2FD2BC
:100E7000DFE803F0060D1C304A000520BDE8F081D4
:100E8000067046708670C67003F078FC5AE0022A3D
:100E90001BD1A16B0A7C02704A7C42708A7C8270F2
:100EA000C97CC17003F022FD02202BE0052A0AD183
:100EB00002F06EFA08B1606A3CE003F047FBE06ABA
:100EC0008047267004E0062A3AD002F095FA0546DB
:100ED0002846D3E7A2690425531CF9D0E369B3EB94
:100EE000520FF5D902780A7042784A7082788A7077
:100EF000C078C870606B401C606303F0F7FC03F0BF
:100F000025FB04202070E3E70425052ADBD1667069
:100F10000A7803789A420BD14A7843789A4207D1EB
:100F20008A7883789A4203D1C978C078814202D006
:100F3000A06A0325804703F009FB84F80080C7E717
:100F400003F004FB2770C3E714000020704700295A
:100F500000D0FEE7704700002DE9F84FDFF8BCA194
:100F60000022012503264FF00F090AF1040BAAF114
:100F7000040E00BF0B6805FA02F42340A34270D1AF
:100F80000F7907F00307012F01D0022F16D18768D0
:100F90004FEA420806FA08FC27EA0C07D1F80CC011
:100FA0000CFA08FC4CEA070CC0F808C04768A743D5
:100FB0000C79C4F3001494403C4344600C79E4433E
:100FC000A4070AD0C4684FEA420C06FA0CF7BC43E7
:100FD0008F6807FA0CF72743C7600C7904F0030405
:100FE000022C12D1D40800EB840CDCF82040570707
:100FF000FF0E09FA07F824EA0804D1F8108008FA6D
:1010000007F848EA0408CCF8208004684FEA420C4C
:1010100006FA0CF7BC430F7907F0030707FA0CF741
:10102000274307604C6814F4403F70D03C4C27685D
:1010300047F480472760246822F0030704F48044C3
:101040000094384C07EB040CDCF8084897074FEA8B
:10105000177809FA08F7BC43334FB84202D100278A
:1010600024E054E0314FB84201D101271EE0304F57
:10107000B84201D1022719E02E4FB84201D103270F
:1010800014E02D4FB84201D104270FE02B4FB84296
:1010900001D105270AE02A4FB84201D1062705E011
:1010A000284FB84201D1072700E0082707FA08F7C0
:1010B0002743CCF80878DAF800405746D1F804C046
:1010C0009C435FEACC2C00D51C433C60DBF800401D
:1010D0005F46D1F804C09C435FEA8C2C00D51C43CA
:1010E0003C60DEF800407746D1F804C09C435FEADC
:1010F0008C3C00D51C433C60084F083F3C68D1F84D
:1011000004C09C435FEACC3C00D51C433C60521CAD
:10111000102AFFF42FAFBDE8F88F0000083C014013
:101120004438024000300140000002400004024008
:1011300000080240000C024000100240001402406F
:1011400000180240001C02400148806870470000FF
:1011500004000020024881680278114481607047D1
:10116000040000200B4810B5016841F400710160D3
:10117000016841F480610160016841F4807101609F
:10118000032000F06FF80F2000F006F800F024F8BC
:10119000002010BD003C024070B50D4D04464FF4D8
:1011A0007A712878B1FBF0F00A490968B1FBF0F0D8
:1011B00000F00AFB48B9102C07D200222146501E2D
:1011C00000F030F800206C6070BD012070BD0000A0
:1011D00004000020100000200A4808B5016841F40E
:1011E00080410160006800F4804000900548001FC5
:1011F000016841F080510160006800F0805000906B
:1012000008BD000044380240002809DB00F01F023E
:10121000012191404009800000F1E020C0F8001158
:1012200070470000F0B40E4B1B680C46C3F302235A
:10123000C3F10705042D00D90425191D072901D282
:10124000002300E0DB1E012606FA05F1491E2140BD
:1012500099409E40761E16403143F0BC01F072BAB0
:101260000CED00E0064900F0070208684FF6FF03A6
:10127000184040EA0220034A10430860704700000B
:101280000CED00E00000FA052DE9F0470E460500E0
:1012900065D0DFF81481D8F80000F7B200F007003D
:1012A000B04207D288F80070D8F8000000F00700BC
:1012B000B04254D128683D4C810712D5400703D570
:1012C000206840F4E05020602878000703D52068AB
:1012D00040F4604020602068A96820F0F0000843D6
:1012E00020602878C0072DD0304968680839012867
:1012F00012D0022813D0032811D0096889070029C9
:101300002DDA216821F0030101432160FFF71CFF62
:10131000814641F2883A0EE009688903EFE70968DF
:101320008901ECE7FFF710FFA0EB0901514502D955
:101330000320BDE8F0872068696800F00C00B0EB7E
:10134000810FEFD1D8F80010404601F00701B142FB
:1013500007D90770006800F00700B04201D00120F3
:10136000E7E72878400705D52068E96820F4E050D1
:10137000084320602878000706D52068296920F4F2
:10138000604040EAC100206000F038F82168084A57
:10139000C1F30311515CC840064908600648006863
:1013A000FFF7FAFE0020C4E7003C02400838024084
:1013B0006C52000810000020080000200448054975
:1013C00000680968044AC1F38221515CC840704733
:1013D00010000020083802407C52000804480549EB
:1013E00000680968044AC1F34231515CC840704743
:1013F00010000020083802407C520008154810B543
:10140000006810F00C02144813D04110042A0FD0C9
:10141000082A0ED10F4C241F2268236802F03F02D5
:101420005B0207D52068C0F38810A0FB010106E02D
:10143000084610BD2168C1F38811A1FB00010023FB
:10144000FEF7C0FE2168C1F30141491C4900B0FB11
:10145000F1F010BD083802400024F4002DE9F84FE7
:1014600004006ED02078DFF84C93C007A9F1040582
:101470004AD009F104000168C1F38101012908D0B3
:101480000068C0F3810002280AD1D9F800004002A8
:1014900006D52868800337D560680028E1D033E09E
:1014A0006068B0F5803F10D0B0F5A02F286810D04C
:1014B00020F480302860286820F48020286060684C
:1014C000A8B1FFF741FE06460DE0286840F48030E1
:1014D000F4E740F480202860F7E700BFFFF734FE10
:1014E000801B642873D828688003F7D50CE0FFF7C9
:1014F0002BFE064605E000BFFFF726FE801B642892
:10150000F0D828688003F7D42078DFF8AC82800711
:101510004FF0000A3ED5A748001D016811F00C0FDE
:1015200008D00068C0F3810002280BD1D9F8000070
:10153000400207D42868800716D5E068012800D14A
:1015400012E033E1E068B8B10120C8F80000FFF70D
:10155000FBFD064605E000BFFFF7F6FD801B0228F5
:10156000C0D828688007F7D52868216920F0F800DE
:1015700040EAC10028600DE0C8F800A0FFF7E4FDD4
:10158000064604E0FFF7E0FD801B02281FD828680C
:101590008007F7D42078000722D5864F87486169F5
:1015A000703771B101210160FFF7CEFD064604E0FE
:1015B000FFF7CAFD801B022809D838688007F7D5D5
:1015C0000EE0C0F800A0FFF7BFFD064605E082E090
:1015D000FFF7BAFD801B02287DD838688007F7D452
:1015E0002078400768D5DFF8CCB100270BF13C0B21
:1015F000DBF80000C0000BD4DBF8001041F0805194
:10160000CBF80010DBF80000012700F080500090BC
:101610006B4E3068C00510D4306840F48070306084
:10162000FFF792FD009005E0FFF78EFD0099401A4C
:10163000022850D83068C005F6D55E4EA0686C36DA
:1016400001280FD00528306810D020F0010030604C
:10165000306820F004003060A068B8B1FFF774FD76
:1016600000900FE0306840F00100F4E740F0040023
:101670003060F7E7FFF768FD0099411A41F28830C2
:10168000814266D830688007F4D50EE0FFF75CFD34
:10169000009007E0FFF758FD0099411A41F28830A9
:1016A000814256D830688007F4D42FB1DBF800109F
:1016B00021F08051CBF80010A069C8B33D49091D45
:1016C0000968C1F3810102294AD00228504607D097
:1016D000C8F8600000E03CE0FFF736FD04463BE060
:1016E0004746C8F86000FFF72FFD064605E000BF3B
:1016F000FFF72AFD801B02282BD828688001F7D429
:10170000D4E907010843A16A2E4A490802EB0141C6
:10171000626A41EA8211084394F82C1040EA0161A0
:10172000C9F8001001203866FFF70EFD044606E0F8
:101730003EE000BFFFF708FD001B022809D828681B
:101740008001F7D534E000BFFFF7FEFC001B022844
:1017500002D90320BDE8F88F28688001F4D427E07F
:101760000128F7D0D9F80000E26900F48001914225
:101770001CD1226A00F03F01914217D147F6C07197
:10178000626A0140B1EB821F10D1A26A4FF0FF33B1
:1017900000F4403103EB5202B1EB024F06D194F852
:1017A0002C1000F07060B0EB016F01D00120D1E788
:1017B0000020CFE70438024000004742800E474235
:1017C000007000400000FFFF10B5401EB0F1807FA8
:1017D00001D3012010BD4FF0E02460610F2160179C
:1017E00000F0B0FF0020A06107202061002010BDA4
:1017F0007047704710B5040003D094F83D0010B155
:1018000007E0012010BD002084F83C00204600F0D5
:101810001FF8022084F83D00211D206800F0BEFC66
:10182000012084F8460084F83E0084F83F0084F8E4
:10183000400084F8410084F8420084F8430084F8B2
:10184000440084F8450084F83D00002010BD0000ED
:1018500008B500680B49884212D10B48016841F075
:10186000020101600068002200F0020000900121E6
:101870001D20FFF7D7FCBDE808401D20FFF7C4BCC2
:1018800008BD0000000400404038024090F83D10C0
:10189000012901D001207047022180F83D10016824
:1018A000CA6842F00102CA6000681149884214D037
:1018B000B0F1804F11D00F4988420ED00E498842B6
:1018C0000BD00E49884208D00D49884205D00D49F9
:1018D000884202D00C49884204D1816801F0070196
:1018E000062903D0016841F0010101600020704722
:1018F000000001400004004000080040000C0040CF
:1019000000040140004001400018004070472DE9EC
:10191000F04104460068C66805694FF00007A90752
:1019200013D5B10711D5F91E016101202077206878
:1019300080698007204602D0FFF7E8FF04E000F04E
:101940007EF8204600F07CF82777680716D57007E8
:1019500014D521686FF00400086102202077206808
:10196000806910F4407F204602D0FFF7CFFF04E0EB
:1019700000F065F8204600F063F82777280715D5B2
:10198000300713D521686FF0080008610420207724
:101990002068C0698007204602D0FFF7B7FF04E047
:1019A00000F04DF8204600F04BF82777E80616D5F2
:1019B000F00614D521686FF0100008610820207728
:1019C0002068C06910F4407F204602D0FFF79EFFD8
:1019D00004E000F034F8204600F032F82777E807FA
:1019E00008D0F00706D021686FF00100086120469A
:1019F00000F028F8280608D5300606D521686FF0D3
:101A0000800008612046FFF7F3FE680608D57006DF
:101A100006D521686FF040000861204600F01AF8F2
:101A2000A8060AD5B00608D521686FF02000086125
:101A30002046BDE8F041FFF7DCBEBDE8F08170470D
:101A4000704700000249884201D100F03BBA70475C
:101A500038370020704770B5040004D094F8410076
:101A6000002510B106E0012070BD84F840502046EA
:101A700000F023F8242084F841002068C16821F494
:101A80000051C160204600F0F5FB2068016921F497
:101A9000904101612068416921F02A01416120687B
:101AA000C16841F40051C1606564202084F84100A0
:101AB00084F842006563002070BD7047FEE70000B7
:101AC0002DE9F04F6F4C87B0206840F00100206096
:101AD000206800F001000590206840F001002060BF
:101AE000206800F00100059066481430016841F05C
:101AF000100101600068072600F0100005906015D5
:101B00004FF002084FF001094FF0030A04968DE8E8
:101B1000010769465C48FFF71FFA4FF4806B69467E
:101B20005948CDF800B00496FFF716FA01220021BB
:101B30002520FFF777FB2520FFF766FB534D0C238D
:101B400000224FF4E131284601F0C0FB286820F064
:101B500040002860286820F020002860E86840F0F5
:101B60002000E860206840F001002060206800F05C
:101B700001000590206840F0010020602068414F7E
:101B800000F0010010370590386840F400303860EC
:101B90003868049600F40030059004208DE80107B1
:101BA00069463948FFF7D8F908200090694604963D
:101BB0003548FFF7D1F9022200212620FFF732FB3A
:101BC0002620FFF721FB0C2300224FF4E13130489F
:101BD00001F07CFB286820F040002860286820F095
:101BE000200028602A480C30016841F02001016083
:101BF000206840F002002060206800F0020005909C
:101C0000206840F002002060206800F0020005908B
:101C1000386840F4802038603868CDF800B000F4AF
:101C20008020CDE9046001AA1A4C82E800076946C9
:101C30002046FFF791F9E01400906946049620468B
:101C4000FFF78AF9032200212720FFF7EBFA27206C
:101C5000FFF7DAFA0C2300224FF4E1310E4801F0CD
:101C600035FB286820F040002860286820F020001C
:101C7000286009480C30016841F02001016007B07C
:101C8000BDE8F08F303802400000024000100140F3
:101C900000440040000402400048004000B5CBB0C2
:101CA00002460749684600F01FFD6846FEF7FDFA48
:101CB0000246694603A000F011F94BB000BD0000D8
:101CC000B45200086B66625F746F70696300000055
:101CD00008480749C162016301F63401416301F517
:101CE00096718163C16301F634010164704700009D
:101CF000C40B00209400002070B53C4C01210A2048
:101D0000C4E90810D4E90320636910441844801D15
:101D1000374D1023A0622B700A30C31700EB5366B7
:101D200026F07F03C31AF011002801DD43F0800381
:101D30006B5401F10101F0DC4FF0000321626B54A0
:101D400005EB01004FF0040646704FF04D01817025
:101D50004FF05101C1704FF0540101714171867112
:101D60004FF0C201C17103724FF0640141724FEA3A
:101D7000E27102EB11614FEA112383721146C172C5
:101D80001C4900F10C00FEF74EFA2269E668D017F4
:101D900002EB1061206A0B0A304428441146037399
:101DA000417314490E308031FEF73DFA6269E668EE
:101DB000D01702EB1061206A0B0A304426691146E5
:101DC000304428448373C173094910308039FEF7C9
:101DD0002AFA208CA18C0844218DBDE8704008446B
:101DE00082B20349012002F0BBBB00009400002036
:101DF00098020020180100202DE9F047417810F8E2
:101E0000022B0646002004460125CCB001EB02213E
:101E1000A1462F4609F1010942196D1CB25C02F07E
:101E20007F0303FB0744FF011206F5D462194FF04C
:101E300001051044891A2F464FF00004EAD14946A3
:101E400019A000F041FCA046404627E008EB050041
:101E50006D1C305C00F07F0101FB0744FF010006B0
:101E6000F4D405EB08008119305C4978022202EBBA
:101E700000200844271A08EB0501084431183A46A7
:101E80006846FEF7D0F939466846FEF77FFF6119CC
:101E9000012588442F4600240AF101008246484566
:101EA000D4DB4CB0BDE8F087B1BEB4CEBDD3CAD54B
:101EB000C1CB2564B8F6CDC6CBCDCAFDBEDD0D0ABB
:101EC000000000000448C02102220170002141707E
:101ED0000146012002F044BB980200202DE9F041A8
:101EE000264C074601202062164688463846FEF7F3
:101EF000DCF9801CC4E90906214D821930202870C4
:101F0000206AD11702EB516323F07F01511ADA11D5
:101F1000002A01DD41F08001295400F10100F0DCCC
:101F200020623846FEF7C1F9216A000A6854384633
:101F3000FEF7BBF9216A294448703846FEF7B5F927
:101F40000246206A39462844801CFEF76CF9384660
:101F5000FEF7ABF9216A3246084428444146801C0A
:101F6000FEF761F9208CA18C0844218DBDE8F04179
:101F7000084482B20249012002F0F2BA9400002023
:101F8000980200202DE9F0411B4D074602202862EF
:101F900068620E463846FEF788F9184CC01C82214C
:101FA000A862217095F82410084460700020A07089
:101FB0000120E0703846FEF778F9000A20713846B3
:101FC000FEF773F960713846FEF76FF9024639463D
:101FD000A01DFEF728F93846FEF767F92044867100
:101FE000288CA98C0844298D08442146BDE8F0417D
:101FF00082B2012002F0B4BA9400002098020020BE
:10200000FEE7FEE77047704701490420086070470B
:102010001804024002494FF4802008607047000015
:10202000180402407047000010B5FFF793F8044809
:102030004078002803D0BDE8104000F003B810BD80
:10204000F400002070B51B4C6068012220B160686C
:10205000401E606000D12270174B002101EB41004F
:1020600003EB800045684DB145686D1E456005D1A4
:1020700042700578012D01D185684560491CC9B2BF
:102080000429EBD3A068401CA060A0686FF0004159
:102090000025884200D1A56001F016F9A078401C07
:1020A000C0B2A0700A2804D3A570BDE8704001F04A
:1020B000ADB870BDF4000020841E002030B593B090
:1020C00030216846FEF7C8F814210CA8FEF7C4F8C2
:1020D0001D480025016841F080510160006800F052
:1020E000805011901948016841F4804101600068F6
:1020F000022400F48040119001200090000401901F
:102100008001CDE90640082008904FF4A870CDE981
:10211000090404200B906846FFF7A0F900B1FEE720
:102120000CA90F2081E831004FF4A0500F904FF41C
:102130008050109005210CA8FFF7A6F8002800D0C9
:10214000FEE713B030BD0000403802400070004090
:102150000248016841F470010160704788ED00E0B9
:102160000148FFF7D4BB0000383700200A4810B5FB
:102170000849016048F69F41416000214EF65F2208
:10218000C0E902120161FFF735FBBDE810400248CB
:10219000FFF77CBB0004004038370020F0B5026830
:1021A000294C2A4D2A4E2B4F2B4B4FF0804CA042EE
:1021B00009D0604507D0A84205D0B04203D0B8424C
:1021C00001D0984204D122F0700E4A6842EA0E0211
:1021D000A0421BD0604519D0A84217D0B04215D0FC
:1021E000B84213D0984211D01C4DA8420ED01C4DBD
:1021F000A8420BD01B4DA84208D01B4DA84205D0C9
:102200001A4DA84202D01A4DA84203D122F44075BB
:10221000CA682A434D6922F080022A4302608A6814
:10222000C2620A688262A04201D0984201D1096963
:102230000163012141610169C90703D0016921F0EE
:1022400001010161F0BD00000000014000040040F8
:1022500000080040000C0040000401400040014024
:10226000004401400048014000180040001C0040AC
:102270000020004070B5044600680169E26821F45E
:102280004051114301612169A068E2690843616915
:10229000114308432168CA6849F20C639A43024318
:1022A000CA6020684169A26921F44071114341610B
:1022B00031492068884202D03049884202D1FFF774
:1022C0008DF801E0FFF77AF8E2690023192164250F
:1022D0003226B2F5004F626828D0A0FB0101930FAF
:1022E0009200FDF76FFF0146B0FBF5F06FF01802AA
:1022F000504301EB800006EB0010B0FBF5F000F05E
:10230000F002B1FBF5F002EB0012B1FBF5F06FF05B
:102310001803584301EB800006EB0010B0FBF5F00A
:1023200000F00F0021681044886070BDA0FB01011F
:1023300092185B41FDF746FF0146B0FBF5F0020144
:10234000B1FBF5F06FF01803584301EB800006EB8A
:10235000C000B0FBF5F000F0F80002EB4002B1FB6A
:10236000F5F0584301EB800006EBC000B0FBF5F040
:1023700000F00700D6E70000001001400014014003
:10238000014800F00FB80000B41E0020014800F022
:1023900009B80000E0260020014800F003B8000062
:1023A0000C2F00202DE9F041044600680568C7683D
:1023B0004169A9064FF0000615D54068E28AA16878
:1023C000C0B28854E18A491C8AB2E282E1898A4219
:1023D00000D3E682628B8A4202D2618B491C618300
:1023E000616A01B18847280616D5380614D5A08A37
:1023F00050B3012084F82800618A6068405C21683D
:102400004860608A401C80B26082A189884200D303
:102410006682A08A401EA082680613D5780611D570
:10242000A08AE0B1618A6068405C21684860608A87
:10243000401C80B26082A189884200D36682A08A53
:10244000401EA082BDE8F0812068C16821F08001B3
:10245000C1602068C16841F04001C160DCE72068CC
:10246000C16821F04001C160206A00B1804784F852
:102470002860E7E778B5002325E0012484F310887D
:10248000848AADF80040002484F310888489BDF864
:102490000050AC421FD9CC5C068A4568AC5501247B
:1024A00084F31088048A641CA4B204828589AC4237
:1024B00001D300240482848A641C8482002484F36F
:1024C00010885B1C9BB29342D7D30068C16841F06F
:1024D0008001C16078BDBDF80050AC42CDD1046828
:1024E000E5682D06C9D4E56845F08005E560C4E7D8
:1024F000264925484FF48062086001F12C004860AD
:1025000000F5806088608A81CA8100200882488244
:10251000C882088348838882C8610862486281F85B
:10252000280001F62C011A4B0B6001F12C034B60C3
:1025300001F22C438B608A81CA8108824882C8825A
:10254000088348838882C8610862486281F828004D
:1025500001F62C010F4B0B6001F12C034B6001F2D3
:102560002C438B608A81CA8108824882C882088392
:1025700048838882084ACA61084A0A62084A4A624D
:1025800081F828007047000000100140B41E0020B0
:1025900000440040004800400920000815200008C1
:1025A00007200008FEE7000070B50D4C0546A06846
:1025B000804720698047E169C5F307408847E169A2
:1025C000C5F307208847E169E8B28847A0698047DA
:1025D000054660698047E0688047284670BD000076
:1025E000740000202DE9F041114C06461746A06802
:1025F00088460025804720698047E169C6F3074087
:102600008847E169C6F307208847E169F0B2884747
:1026100005E0A069804708F805006D1CADB2BD4219
:10262000F7D360698047E068BDE8F04100470000EB
:102630007400002070B50E4C05460E46A068804719
:102640002069804745F00405E169C5F307408847E4
:10265000E169C5F307208847E169E8B28847E16985
:102660003046884760698047E068BDE870400047B1
:10267000740000202DE9F041124C06461746A06870
:102680008846002580472069804746F00406E169B6
:10269000C6F307408847E169C6F307208847E16928
:1026A000F0B2884706E000BFE16918F805008847E6
:1026B0006D1CADB2BD42F7D360698047E068BDE8EC
:1026C000F0410047740000200FB4054B10B503A97A
:1026D000044A029800F03CF910BC5DF814FB0000BD
:1026E00089390008040100200FB4084B10B504A973
:1026F00002AA039800F02CF9044602A9002000F079
:10270000B5FC204610BC5DF814FB00006D300008DD
:102710007CB50C001D461646014601D0601E00E047
:102720000020CDE90010064B6A462946304600F0ED
:102730000FF9002C02D0009A002111707CBD00001E
:10274000573000080907090E002804DB00F1E020DB
:1027500080F80014704700F00F0000F1E02080F8CE
:10276000141D7047BFF34F8F05480168054A01F4F7
:10277000E06111430160BFF34F8F00BFFDE7000030
:102780000CED00E00400FA05BFF34F8F0548016827
:10279000054A01F4E06111430160BFF34F8F00BFB0
:1027A000FDE700000CED00E00400FA0502E008C8B7
:1027B000121F08C1002AFAD170477047002001E0BB
:1027C00001C1121F002AFBD1704700002DE9FF5FF5
:1027D00082B00021DDE90430020DDDF840B0034392
:1027E00018D044F61050A2F2FF324243151411984B
:1027F00001281FD0A5EB0B00401C5FEA000A4FF038
:1028000000064E4FDFF83891B046504615D5CAF154
:10281000000413E0119801244AA3012801D16FEAB2
:102820000B010298119AC0E90031C0E9024206B0DA
:10283000BDE8F09FCBF10000DFE704460021404AED
:10284000491842EB0450CDE9001012E0E00707D030
:1028500032463B4640464946FDF70AFE80468946D9
:1028600032463B4610461946FDF702FE06460F4625
:102870006410002CEAD1DDE90401DDE90023BAF19E
:10288000000F06DAFDF7F4FD42464B46FDF7F0FD7A
:1028900005E0FDF75FFE42464B46FDF75BFE044652
:1028A0000E460022284BFDF7DDFE03D84FF0FF3027
:1028B000014607E00022254B20463146FDF731FD59
:1028C000FDF7B7FE102409E0002C0ADB0A220023E2
:1028D000FDF778FC039B30321A55641E50EA010262
:1028E000F2D1641C039AC4F111031444119A012A11
:1028F00003D0012208430DD10AE0084304D0002090
:102900004FF0110B119072E7A3EB0B056D1E0DE05C
:102910005B4504DD4FF0000205F1010504E003DA38
:102920004FF00002A5F10105002AECD002981199A0
:10293000C0E90231C0E9004579E700000000144019
:102940000000F03F300000000000F0430000E03FD6
:102950002DE9FF4F95B09A46884606460025EEE1E0
:10296000252877D100242746F94A0121039400E065
:10297000044316F8013F203B01FA03F01042F7D15F
:1029800030782A2811D06FF02F033078A0F1300270
:10299000092A16D8039A44F0020402EB820203EBE0
:1029A00042021044761C0390EFE758F8042B039280
:1029B000002A03DA504244F40054039044F0020425
:1029C000761C30782E2816D116F8010F44F0040436
:1029D0002A280DD06FF02F023078A0F13003092B98
:1029E00009D807EB870302EB4303C718761CF3E70C
:1029F00058F8047B761C30786C280FD006DC4C2805
:102A000017D068280DD06A2814D104E0742810D09B
:102A10007A280FD10DE044F400140AE044F4801445
:102A200001E044F440147278824202D104F580142B
:102A3000761C761C307866280BD013DC582877D0AB
:102A400009DC002875D04528F6D04628F4D0472860
:102A50001AD193E118E0632835D0642879D065282D
:102A600012D18BE1702873D008DC6728F1D0692877
:102A70006FD06E280DD06F2806D1ACE073282CD013
:102A8000752874D0782853D05246179990476D1CFA
:102A900054E1C4F30250022809D003280DD0D8F81D
:102AA000001004280DD00D6008F1040846E1D8F8A4
:102AB0000010EA17C1E90052F6E7D8F800100D80BF
:102AC000F2E70D70F0E718F8041B8DF800100020F5
:102AD0008DF80100EB46012003E058F804BB4FF0ED
:102AE000FF3061074FF0000102D40DE009F1010150
:102AF0008946B9420FDA8145F8DB1BF80910002935
:102B0000F4D108E009F1010189468142FADB1BF8A2
:102B100009100029F6D103985346A0EB0907214676
:102B20003846179A00F080FA284400EB090507E0C0
:102B300044E008E10DE01BF8010B5246179990475D
:102B4000B9F10109F7D2534621463846179AF2E007
:102B500039E00A21C4F302524FF0000B0091022A1F
:102B600006D058F8040BC117032A09D00AE023E065
:102B700008F1070020F00702F2E80201904605E0A4
:102B800000B2C117042A01D140B2C117002906DAE8
:102B90000A460021404261EB02012D2202E022059B
:102BA00004D52B228DF80420012203E0E20701D096
:102BB0002022F7E7914657E00A2100E010214FF06C
:102BC000000B00910BE010214FF0000B44F00404C7
:102BD0000827009103E008204FF0000B0090C4F399
:102BE0000252022A05D058F8040B0021032A08D00B
:102BF00008E008F1070020F00702F2E80201904621
:102C000003E080B2042A00D1C0B24FF000092207CD
:102C10002AD53278702A07D0DDF800C08CF0100C6D
:102C20005CEA0B0C05D00EE040228DF80420012256
:102C300008E050EA010306D030238DF804308DF807
:102C4000052002229146009B83F0080353EA0B0300
:102C50000AD150EA010201D1620705D530228DF870
:102C600004204FF001097F1E3278582A04D039A27F
:102C70000C920CAA02920BE03BA2F9E75B46009A89
:102C8000FDF7A0FA0C9B9B5C029A521E02921370F5
:102C900050EA0102F2D1029804A9081A00F1200BAF
:102CA000600702D524F4803400E001275F4502DD8F
:102CB000A7EB0B0000E0002000EB0B010090039855
:102CC0004944401A0390E00306D453462146179A1C
:102CD000039800F0A9F90544002706E001A8524630
:102CE000C05D179990476D1C7F1C4F45F6DBE003D4
:102CF0000CD553462146179A039800F095F90544E0
:102D000004E030205246179990476D1C0099481EE8
:102D100000900029F5DC08E00298029952460078FC
:102D2000491C0291179990476D1CBBF10001ABF152
:102D3000010BF1DC5BE100F065F90544761C3078AD
:102D400000287FF40DAE19B02846BDE8F08F0000D2
:102D50000928010030313233343536373839616271
:102D60006364656600000000303132333435363735
:102D7000383941424344454600000000600700D412
:102D8000062708F1070020F00700F0E8022380463C
:102D900003F0004C5FEA0C0001D097A009E0200589
:102DA00001D596A005E0E00701D095A001E0AFF2C3
:102DB0004C001390307823F0004365280CD006DCDB
:102DC000452809D046281DD047287FD13BE06628FA
:102DD00018D067287AD136E00021112F01DB1120AD
:102DE00000E0781CCDE9000104A90CA8FFF7EEFC77
:102DF000DDE90D010C9A4FF0000B07F1010910926B
:102E000000914EE04FF000400097CDE9011004A979
:102E10000CA8FFF7DBFCDDE90D020C9B0F994FF0CE
:102E2000000B91461093009211B9791C00EB010937
:102E3000B7EB090003D4C0F1FF3B07F10109A9EB8F
:102E40000700019042E0012F00DA01270021112F35
:102E500001DD112000E03846CDE9000104A90CA8ED
:102E6000FFF7B4FCDDE90D010C9A00914FF0000B67
:102E7000B946109221070FD4009A4A4503DA9146C9
:102E800001E0A9F10109B9F1010F05DD109AA9F1DD
:102E90000101515C3029F4D0B84202DA10F1040F7C
:102EA00003DA0121CDE9011010E0002803DC83449E
:102EB000A9EB000102E0411C494500DD8946A0EB79
:102EC0000B00401C01904FF000400290200705D4F9
:102ED0000198484502DB4FF0FF30019000208DF84B
:102EE0004B0002980DF14B07B0F1004F25D00220A6
:102EF0000C902B200D90029800280CDA4042029092
:102F00002D200D9007E00A210298FDF7D5F9303108
:102F1000029007F8011D0C99481E0C900029F2DC64
:102F200002980028EFD1791E0D980870307800F0D3
:102F3000200040F0450007F8020D11A8C01BC01D7D
:102F400002901398007800B1012000EB090101986C
:102F500001EBE071029801440398401A401E03906F
:102F6000E00306D453462146179A039800F05CF814
:102F700005441398007818B15246179990476D1C74
:102F8000E00323D553462146179A039800F04CF8E6
:102F900005441BE0BBF1000F07DB0098584504DD3A
:102FA0001098179910F80B0001E01799302052463D
:102FB000904701980BF1010B401E05F101050190AE
:102FC00004D12E205246179990476D1CB9F100018B
:102FD000A9F10109DEDC05E017F8010B524617994B
:102FE00090476D1C0299481E02900029F4DC53465C
:102FF0002146179A03989EE62D0000002B00000042
:10300000200000002DE9F041044600251E46174629
:10301000880404D405E039462020B0476D1C641EA6
:10302000F9D52846BDE8F0812DE9F0410446002598
:103030001E469046C80301D5302700E020278804AB
:1030400004D505E041463846B0476D1C641EF9D5ED
:103050002846BDE8F0814A68002A06D00A68531C59
:103060000B6010704868401E486070470A68531C27
:103070000B60107070470000042807D200EB40017D
:10308000054800EB81004178012901D000207047FC
:103090000021417001207047841E002010B50028D7
:1030A00011D0012800D10220012181F31088064CA3
:1030B00060600020207080F3108800BF00F006F8E8
:1030C00020780128FAD110BDF4000020704710B517
:1030D000FEF748F8FEF7F2FF00F04EF800F02CF88B
:1030E000BDE8104000F07AB810B5114886B0002451
:1030F000016841F002010160006800F002000590E3
:10310000012000F073F80120CDE9010402200390B2
:10311000C001084C009069462046FDF71DFF601570
:10312000009069462046FDF717FF06B010BD00006D
:1031300030380240000402400D4800B5016887B0F5
:10314000002241F008010160006800F008000590CD
:10315000012000F04BF80120CDE90102022003908C
:10316000C002009069460348FDF7F6FE07B000BDB7
:1031700030380240000C024010B50021134A0846C6
:1031800001EB410402EB840358609860587002F828
:103190002400491CC9B20429F2D30D494FF47A72B4
:1031A0000968B1FBF2F1491EB1F1807F09D24FF0FD
:1031B000E0225161074BF02183F8141D9061072034
:1031C000106105490120487010BD0000841E0020D8
:1031D000100000200FE000E0F400002010B5FFF721
:1031E00087F9BDE81040FEF76BBC0000012802D152
:1031F0000149000708607047180C0240012802D1FD
:103200000149000308607047180C024030B5C3B094
:103210000020409041901B48007800282BD04FF4AC
:1032200080716846FDF718F800246D4629190120C1
:1032300000F052F9641CA4B2FF2CF7D912A1684621
:10324000FDF715F8002816D011A16846FDF70FF814
:10325000040012D010A1E01DFDF709F868B10422A6
:10326000A11D40A8FDF715F80CA0FFF72DFA40A905
:103270000DA0FFF729FA43B030BD0FA0FFF724FAE5
:10328000F9E70000000100202B4D535542000000DB
:10329000627974657300000022000000CAFDBEDD83
:1032A000CDEAD5FB0D0A0000CFFBCFA2CAC7A3BA57
:1032B00025730D0A00000000CAFDBEDDB2BBCDEAD9
:1032C000D5FB0D0A000000007047000000B593B068
:1032D000CDE9000100200290CDE90302CDE90530DF
:1032E00007906846FEF7B7FB002804D040F2BB21E8
:1032F00002A0FDF72CFE13B000BD00002E2E5C6274
:1033000073705C7372635C6273705F756172745F1B
:103310006669666F2E63000010B5042805D30C4A59
:103320000CA112A0FFF7D0F9FEE7012282F310886A
:10333000164A00EB400302EB8300416081600021EC
:103340004170012002F8230081F3108810BD0000B5
:10335000935200082E2E5C6273705C7372635C6221
:1033600073705F74696D65722E6300004572726FD1
:10337000723A2066696C652025732C2066756E6331
:1033800074696F6E20257328290D0A00841E0020A1
:10339000F8B54FF4D8563046FFF706F90546032135
:1033A0003046FFF747F90E4B41F28830DC1F0090A2
:1033B00011220CA1A07801F0B5FB07462946304642
:1033C000FFF738F90D3708D001F058F9E069E169E5
:1033D000091A0229FBD30020F8BD0120F8BD000026
:1033E0001B000020434845434B5F49505F434F4E0D
:1033F000464C49435400000070B51A4C0125204644
:1034000094F90110002690F90000022917DAD4E996
:103410000721914223D2012804D0022805D0042894
:1034200005D102E001F0AAF901E001F05FFAE661DE
:10343000E0690A3020626078401C60700FE001286B
:1034400004D0022805D0042807D102E02670002508
:1034500003E001F093F90120207001F077F828468D
:1034600070BD00001400002070B50446082802D981
:103470004FF0FF3070BD4FF4847000EB44100546F0
:103480001021FFF7D7F82846FFF78EF80028FAD169
:103490004FF4027000EB44101F21FFF7CBF80C48EB
:1034A0000121A14082888A430A498280002021F8B4
:1034B00014000749891D08554FF4427000EB44146D
:1034C0002046FFF771F80028FAD1012070BD0000F6
:1034D0005E0000200801002010B50C46FDF778FCC6
:1034E00000281FD00246012080F31088518B002055
:1034F00080F31088002915D0138B9168C95C217066
:10350000012181F31088118B491C89B21183D38961
:10351000994200D31083508B401E5083002080F3CB
:103520001088012010BD70B515460E46FDF750FC01
:10353000040009D0E06900B180472A4631462046A0
:10354000BDE87040FEF796BF70BD13B5012201A91A
:10355000FFF7E9FF1CBD00002DE9F04115460F46BD
:103560000446082803D94FF0FF30BDE8F081600120
:103570004FF001080830FFF717F800F00F0001289E
:1035800002D06FF00400F0E74FF4427000EB4410FB
:103590000646FFF709F8132802D06FF00200E4E7AF
:1035A00038787978BA7801EB002102EB012100EB41
:1035B0000120411C2CD058B36DB340F6084000EBFD
:1035C000441004223946FFF755F841F20800290A51
:1035D00000EB4410FFF72EF841F20810E9B200EBBF
:1035E0004410FFF727F84FF4847000EB44100546B1
:1035F0000421FFF71FF82846FEF7D6FF0028FAD16E
:10360000134908FA04F04988084207D00020ACE7C3
:103610006FF00B00A9E76FF00A00A6E73046FEF74F
:10362000C3FF172812D04FF4027000EB4410044679
:10363000FEF7BAFF000706D520460821FEF7FAFF7D
:103640006FF00C0091E76FF00F008EE701208CE720
:103650005E00002010B50C4606281ED2DFE800F000
:1036600003070B101418204601F0D6FC13E0204687
:1036700001F044FC0FE02078BDE8104001F0F8BCF8
:1036800001F068FC207006E0204601F003FD02E036
:10369000204601F062FC002010BD4FF0FF3010BD4D
:1036A0002DE9F0410C46002102464F1E08464FF41A
:1036B00098554FF4A056102A61D2DFE802F0080BAB
:1036C00017131A1E222C3643464A574E535A01F0FE
:1036D000F5FC4BE014B1204604F10801BDE8F041CF
:1036E00001F04FBC208801F0D9FB3FE001F0E9FB7D
:1036F00005E0208801F082FC38E001F0F1FB208039
:1037000034E02088010A2846FEF794FF21783046ED
:10371000FEF790FF2AE03046FEF746FF06462846B1
:10372000FEF742FF06EB0020E9E716488278227098
:10373000C27862700279A2704279E2708079207159
:10374000617113E001F030FD10E0204601F041FD11
:103750000CE0204601F0ECFC08E02078BDE8F041E8
:1037600001F05CBD01F014FD05E020700020BDE813
:10377000F08101F004FDC0B241B2491CF5D13846D8
:10378000F5E700007400002010B5042209494FF449
:103790007060FEF76FFF0749042208314FF4A06004
:1037A000FEF768FF03490422091DBDE8104090019F
:1037B000FEF760BF1B00002010B580210020FEF73F
:1037C00039FF0020FEF7F0FEBDE810400622024956
:1037D0004FF41060FEF74EBF5000002010B580215E
:1037E0000020FEF727FF0020FEF7DEFEFFF7CCFFEC
:1037F000BDE81040062202494FF41060FEF73ABFC0
:10380000500000207CB54FF44A70FEF7CDFE05460F
:10381000014625A0FEF758FF284C35B1132D0ED0D8
:10382000172D33D01C2D3CD135E025A0FEF74CFFE1
:10383000012120232288084601F016FA31E028A051
:10384000FEF742FF1D490422091D4FF47060FEF788
:10385000C9FE1A48001DC17800918378427801782A
:1038600026A0FEF731FF154862880830C178CDE9FF
:10387000001283784278017828A0FEF725FF0F49CF
:10388000628808310120FFF767FE0AE02CA0FEF7EE
:103890001BFF01207CBD33A0FEF716FF0120FFF7C0
:1038A000E3FD00207CBD000020676574536E5F530C
:1038B00052203D20307825580D0A00009400002049
:1038C00020736F636B6574B5C4D7B4CCAC203D2056
:1038D000534F434B5F434C4F5345440D0A00000088
:1038E00020736F636B6574B5C4D7B4CCAC203D2036
:1038F000534F434B5F494E49540D0A00205735350D
:103900003030204950B5D8D6B73A2025642E2564EA
:103910002E25642E25640D0A0000000020B7FECE7F
:10392000F1C6F74950B5D8D6B73A2025642E25649C
:103930002E25642E2564A3BA25640D0A000000001C
:1039400020736F636B6574B5C4D7B4CCAC203D20D5
:10395000534F434B5F45535441424C4953484544B0
:103960000D0A000020736F636B6574B5C4D7B4CCC7
:10397000AC203D20534F434B5F434C4F53455F5763
:103980004149540D0A00000010B50446C1B20020A0
:10399000FFF7DBFD204610BD01488069704700003D
:1039A0001400002004490A7802704A7842708A782C
:1039B0008270C978C17070472700002004490A78D6
:1039C00002704A7842708A788270C978C1707047F4
:1039D0001F00002004490A7802704A7842708A78F1
:1039E0008270C978C17070471B00002004490A78B2
:1039F00002704A7842708A788270C978C1707047C4
:103A0000230000202DE9F04142F2086101EB40154E
:103A100042F20871002601EB40142846FEF7C4FD6F
:103A200007462046FEF7C0FD00EB072007043F0CC9
:103A300009D02846FEF7B8FD06462046FEF7B4FD3D
:103A400000EB062086B2BE42E7D13046BDE8F081E9
:103A50002DE9F04142F2080101EB401542F2081154
:103A6000002601EB40142846FEF79EFD074620463F
:103A7000FEF79AFD00EB072007043F0C09D028460B
:103A8000FEF792FD06462046FEF78EFD00EB06206F
:103A900086B2BE42E7D13046BDE8F08108B5FFF7F7
:103AA00016FB4FF47A710020FFF736FCFDF740F863
:103AB000FFF71AFB904F914EDFF844A2914C924DC4
:103AC0004FF001094FF0000BDFF84082FDF7ACF931
:103AD00000287BD0022806D0032804D00428F5D182
:103AE000387850B14CE000F06BFAEFE788A0FEF7B1
:103AF000EBFD4FF4FA70FFF7D1FAFFF783FE0128D0
:103B0000F4D14FF40A70FEF74FFDC00704D0012135
:103B10004FF40A70FEF78EFDFEF7DAF8FEF7ECF8C8
:103B200005E084A0FEF7D0FD6420FFF7B7FA4FF45C
:103B30000A70FEF739FD4007F3D504214FF40A70EF
:103B4000FEF778FD87F8009000F0D2FB032840D004
:103B500005DC60B101280CD0022806D137E004282A
:103B600039D0052839D0FF2839D079A002E07AA0D1
:103B700000E07DA0FEF7A8FD002183A0FEF702FA79
:103B80004FF400628349012000F0DCFB0090002824
:103B90002BDD024630687F49801CFCF744FB00980F
:103BA000C11700EB11623068110A01700099417071
:103BB00000F596703060DAF80010884201D176483E
:103BC00030607648007801280BD00EE088E074A0C1
:103BD000D0E77CA0CEE782A0CCE78AA0CAE78FA07E
:103BE000C8E790490968C1F824B0387801287FF403
:103BF0007CAF8D480178491C017021683068814292
:103C000031D08AA0FEF760FD21688878902804D022
:103C1000D02814D0302816D01BE0887918B101289C
:103C200001D085A064E08AA0FEF74EFD8B4981F8A3
:103C30000090FEF79BFA594981F8009009E088A0AE
:103C4000FEF742FD05E08AA0FEF73EFD2068FEF784
:103C5000D3F8206800F596702060DAF800108842EA
:103C600001D14D482060874829680068814224D0EE
:103C700085A0891CFEF728FD286886A1801CFCF71A
:103C8000F6FA20B10120FFF7B9FA012009E028680F
:103C900087A1801CFCF7EBFA28B10120FFF7A6FAF8
:103CA0000020FDF7FBFF2868884900F59670286022
:103CB0000968884201D1864828600020FFF7DCF9B6
:103CC00000283FF412AF98F8000020B1FDF7E6FF9E
:103CD00088F800B0FAE6FDF7E1FF88F80090F5E615
:103CE0007C490878401CC0B208700328F2D97AA039
:103CF000FEF7EAFCFEF736FDF1000020C0000020D0
:103D0000C8000020C4000020D000002000000020D7
:103D10003D3D207768696C6528646F5F7463705FF0
:103D2000636C69656E742829213D31293D3D202051
:103D30000D0A000020B5C8B4FD4D515454B7FECE55
:103D4000F1C6F7CFECD3A6202E2E2E0D0A000000D0
:103D5000B1A3C1F40D0A0000C1ACBDD3D2D1BDD313
:103D6000CADC0D0A00000000C1ACBDD3D2D1BEDC5C
:103D7000BEF8A3ACB2BBD6A7B3D6B5C4D0ADD2E91A
:103D8000B0E6B1BE0D0A00006170705F746F7069BB
:103D900063000000C4030020C40B0020EF000020DB
:103DA000C1ACBDD3D2D1BEDCBEF8A3ACB2BBBACFDE
:103DB000B8F1B5C4BFCDBBA7B6CBB1EACAB6B7FBA5
:103DC0000D0A0000C1ACBDD3D2D1BEDCBEF8A3AC9D
:103DD000B7FECEF1B6CBB2BBBFC9D3C3200D0A002C
:103DE000C1ACBDD3D2D1BEDCBEF8A3ACCEDED0A771
:103DF000B5C4D3C3BBA7C3FBBBF2C3DCC2EB0D0A84
:103E000000000000C1ACBDD3D2D1BEDCBEF8A3AC73
:103E1000CEB4CADAC8A80D0A000000006275672196
:103E2000210D0A0038370020F0000020BDD3CAD58C
:103E3000B5BDCAFDBEDD3A00B6A9D4C4CAA7B0DC80
:103E4000A3ACD7BCB1B8D6D8C6F40D0A00000000A8
:103E5000B6A9D4C4B3C9B9A60D0A0000F200002067
:103E600050494E47B1A8CEC4BBD8B8B40D0A000023
:103E7000B7FECEF1C6F7B5C8BCB630CDC6CBCD0DBA
:103E80000A000000CC000020C3FCC1EE3A25730DEF
:103E90000A00000022706172616D73223A7B227009
:103EA0006F7765725F737769746368223A317D005A
:103EB00022706172616D73223A7B22706F77657236
:103EC0005F737769746368223A307D00D400002004
:103ED00024150020F300002044484350CAA7B0DC5A
:103EE000A3ACD7BCB1B8D6D8C6F40D0A0000000008
:103EF0001CB5062269464FF41060FEF773FB2F4A8B
:103F00000120916B08704870062088700020C870EE
:103F1000536B1B0E0B71536B1B0C4B71938E1B0A57
:103F20008B7192F83430CB71916B802308818B7246
:103F3000C872916B02F13C03087348738873C873AD
:103F4000087448748874C874087548758875C8758D
:103F5000087648768876C8761C780C775C784C773B
:103F60009C788C77DC78CC771C7981F820405B7961
:103F700081F821300623CC185B1CDBB22077102B94
:103F8000F9D3936B00215C18491CC9B284F82C004A
:103F90004029F8D3936B00215C18491CC9B284F8FE
:103FA0006C008029F8D3906B6321822200F8EC1F0B
:103FB000427053228270C1701CBD000014000020AA
:103FC00010B50E4CA01DFFF705FD04F10E00FFF724
:103FD000F5FC04F10A00FFF709FD04F11200FFF7F8
:103FE000E1FC0220A07500F015F8FFF7D5FC0146B2
:103FF000BDE8104002A0FEF767BB0000D80000201B
:1040000044484350D7E2C6DA203A20256420C3EB67
:104010000D0A000000B58BB0002009902F490A90CE
:10402000FFF718FB03A90120FFF714FB09A90820DB
:10403000FFF736FB9DF8220009A902284BD028A0E3
:10404000FEF742FB2FA0FEF73FFB9DF80F009DF807
:1040500011209DF810108DE807009DF80E309DF896
:104060000D209DF80C102FA0FEF72EFB9DF81500DB
:1040700000909DF814309DF813209DF8121034A084
:10408000FEF722FB9DF81D0000909DF81C309DF866
:104090001B209DF81A1034A0FEF716FB9DF819009E
:1040A00000909DF818309DF817209DF8161034A048
:1040B000FEF70AFB9DF8210000909DF820309DF846
:1040C0001F209DF81E1034A0FEF7FEFA0DA0FEF78B
:1040D000FBFA0BB000BD37A0B2E70000D80000200B
:1040E0000D0A3D3D3D202573204E455420434F4E43
:1040F00046203A20537461746963203D3D3D0D0AAA
:10410000000000003D3D3D3D3D3D3D3D3D3D3D3DD3
:104110003D3D3D3D3D3D3D3D3D3D3D3D3D3D3D0DFF
:104120000A0000004D4143B5D8D6B73A20253032B9
:10413000583A253032583A253032583A25303258DC
:104140003A253032583A253032580D0A0000000026
:104150004950B5D8D6B73A2025642E25642E25645B
:104160002E25640D0A000000CDF8B9D8B5D8D6B711
:104170003A2025642E25642E25642E25640D0A0020
:10418000D7D3CDF8D1DAC2EB3A2025642E25642EA0
:1041900025642E25640D0A00444E53B7FECEF1C6A9
:1041A000F73A2025642E25642E25642E25640D0AF9
:1041B000000000000D0A3D3D3D202573204E455472
:1041C00020434F4E46203A2044484350203D3D3D39
:1041D0000D0A00007FB5454CA078FFF713FC0200E4
:1041E00028D001A8009002ABA078A16B00F0CCF819
:1041F00083B2BDF8040043283BD1A06B04F13C011D
:10420000027F0D78AA4215D1427F4D78AA4211D182
:10421000857F8A7895420DD1C57FCA78954209D1AC
:1042200090F820200D79AA4204D190F821204979F4
:104230008A4202D0002004B070BDF0300025C118C1
:10424000F03914E00278332A34D007DCAAB1012A0D
:1042500018D0032A1AD0062A06D11CE0352A0ED01F
:10426000362A36D0FF2A06D04278801C1044884275
:10427000E8D368B2DFE70846F9E7401CF7E785783E
:10428000C01CF4E7194A83780F3225E0174A4378B7
:1042900086780B3203E0154A43788678133216701D
:1042A000C6785670067996704679801D1844D67087
:1042B000001FDCE78278A261C37803EB0222A261CF
:1042C000037903EB0222A261437903EB0222A2618C
:1042D00009E0064A837830321370C378537003794B
:1042E00093704379D370801DC1E700001400002053
:1042F00070B5C0B00024FF260120FFF783FB050046
:1043000017D0711C6846FBF7A7FF2A4669460120B3
:1043100000F018F86E4605E0315D07A0FEF7D4F90D
:10432000641CE4B2AC42F7D305A0FEF7CDF99DF8CA
:10433000036040B0304670BD253032582D0000007B
:104340000D0A00002DE9F04115460F460646FFF71D
:1043500059FB040014D0AC4200D205462A46394627
:10436000304600F016FD4FF4847000EB4610054611
:104370004021FEF75FF92846FEF716F90028FAD12A
:104380002046BDE8F08100002DE9FF4F002583B0F5
:10439000984617460446082803D9681E07B0BDE8AA
:1043A000F08F60014FF0010A0830FEF7FDF88346F8
:1043B00000F00F00022804D0042802D06FF004009F
:1043C000ECE72FB1DFF87C9139F8140018B11EE04A
:1043D0006FF00D00E2E74FF4427000EB44160AFA6A
:1043E00004FA2046FFF70EFB05463046FEF7DCF8E0
:1043F00030B1554949881AEA010F06D01DB106E0CF
:104400006FF00300CAE70020C8E7002DE9D0DFF80D
:1044100038A100210AF1060A4FF484700AF804104A
:104420000BF007014FF0800B00EB4416022920D05F
:1044300004295AD02946204600F0DBFC29F8145004
:1044400030464021FEF7F6F83046FEF7ADF800287A
:10445000FAD139F81410491B0904090C29F8141071
:1044600005D01AF8041041F001010AF8041028469A
:1044700094E739F814004D4680BB0822694620466F
:1044800000F087FC30464021FEF7D4F83046FEF7B6
:104490008BF80028FAD19DF8001088F800109DF8DC
:1044A000011088F801109DF8021088F802109DF89C
:1044B000031088F8031010999DF8040008809DF8F7
:1044C000051001EB0020109908809DF806009DF86A
:1044D000071001EB002025F814002BE02CE02A4601
:1044E0002046049900F055FCAAE739F814004D461F
:1044F00010BB02226946204600F04BFC30464021AA
:10450000FEF798F83046FEF74FF80028FAD19DF8EC
:1045100000009DF8011001EB002080B240F2EA514A
:1045200025F81400884205D92046FEF79DFF6FF458
:104530007A7033E70AF804B035F81450BD42CED98A
:104540003D46CCE7080100205E0000200348002122
:10455000C1610A220262417070470000140000200D
:104560002DE9F05F15468B460646082803D94FF023
:10457000FF30BDE8F09F700101240830FEF714F809
:1045800000F00F00012801D0A01FF2E775B14FF431
:10459000427000EB46100746FEF706F86FF0060A79
:1045A000172806D01C2804D05046E2E76FF00D0013
:1045B000DFE7DFF8C480B440B8F80400044213D049
:1045C0004FF4027000EB46108146FDF7EDFF00F05E
:1045D0001F00C10624D548461021FEF72BF8B8F875
:1045E0000410A143A8F8041041F6087000EB46102F
:1045F000FDF7DAFF4FF6FF7101EA8020854200D90E
:1046000005463046FFF724FA81463846FDF7CCFFD1
:1046100017280DD01C280BD03046FEF725FFC3E726
:1046200000070BD53046FEF71FFF6FF00C00A0E728
:10463000B8F80200044203D04D4501D9002098E7A4
:104640004D45DED82A465946304600F0F3FB4FF47C
:10465000847000EB461006462021FDF7EBFF304644
:10466000FDF7A2FF0028FAD1B8F8041028460C4341
:10467000A8F804407DE700005E0000201CB5FFF7AD
:1046800037FC3D4800213D22806B4FF49C738172C2
:10469000C172352180F8F010012180F8F110042159
:1046A00080F8F210072180F8F32080F8F41001213F
:1046B00080F8F51030493C310A7880F8F6204A78C5
:1046C00080F8F7208A7880F8F820CA7880F8F920F6
:1046D0000A7980F8FA20497980F8FB10322180F8B5
:1046E000FC10042180F8FD102349C91D097880F8C9
:1046F000FE102149C91D497880F8FF101E49C91DC7
:10470000897880F800111C49C91DC97880F8011109
:10471000362180F80211042180F803111649303146
:104720000A7880F804214A7880F805218A7880F890
:104730000621C97880F80711FF2180F808111D2192
:1047400000224418491C84F8EC209942F9DBFF2030
:104750008DF804008DF805008DF806008DF807002F
:1047600043200090044801AB4FF40972816B8078BC
:1047700000F0D8F91CBD0000140000202DE9FC4712
:10478000FFF7B6FB584C35210126A06B04F13C0520
:104790002A4680F8F01080F8F16080F8F2603D2140
:1047A00080F8F310072180F8F41080F8F56029787C
:1047B00080F8F61029460023497880F8F71092789F
:1047C00080F8F8202A460C21D27880F8F9202A4671
:1047D0004FF00609127980F8FA202A464FF00F0AA6
:1047E000527980F8FB2080F8FC10122280F8FD300E
:1047F0001946AF1D08E000BF00EB0208521C491C1F
:1048000088F8ECC092B289B217F801C0BCF1000F71
:10481000F2D1A06BEF7800EB020C521C8CF8EC701C
:1048200092B200EB020C2F798CF8EC70521C92B211
:1048300087186D7987F8EC50521C92B2CD1C511A32
:104840000844372180F8E850A06B8518521C85F881
:10485000EC1091B24518491C85F8EC9089B24518C6
:10486000491C85F8EC6089B246180325491C86F876
:10487000EC5089B24518491C85F8EC9089B245186E
:10488000491C85F8ECA089B245183A2285F8EC203D
:10489000491C89B245183B2285F8EC20491C89B295
:1048A000FF224518491C85F8EC2089B24FF49C750D
:1048B00004E04618491C86F8EC3089B2A942F8D3C6
:1048C0008DF804208DF805208DF806208DF807203E
:1048D0004320009001AB4FF40972A078A16B00F067
:1048E00021F9BDE8FC870000140000202DE9FC5FE1
:1048F000FFF7FEFA8A4F0022F91D97F9000001F137
:1049000029054FF0FF08032842D0042840D08DF835
:1049100004808DF805808DF806808DF80780BC6BCB
:104920003520012684F8F00084F8F1604FF0030987
:1049300084F8F2903D2084F8F300794B072084F846
:10494000F4003C3384F8F560187884F8F6001846D3
:104950004FF0080E407884F8F70018464FF00C0A24
:10496000807884F8F80018464FF00F0BC07884F870
:10497000F9001846007984F8FA001846407984F85E
:10498000FB009DF807C01020BCF1FF0F18D03EE0DF
:10499000B86B8272C2720B7803734B7843738B7857
:1049A0008373CB78C37328788DF8040068788DF80A
:1049B0000500A8788DF80600E8788DF80700AEE7C6
:1049C000322084F8FC00042084F8FD0091F800C037
:1049D00084F8FEC091F801C084F8FFC091F802C0CD
:1049E00084F800C1C97884F80111362184F80211D5
:1049F00084F80301287884F80401687884F80501B4
:104A0000A87884F80601E87884F807011C2051464C
:104A10002518401C85F8EC10BA462118404F81F843
:104A2000EC2000214237401C07E000BF04EB000CE3
:104A3000401C8CF8EC5080B2491C7D5C002DF5D1F7
:104A4000DAF83850DF7805EB000C401C8CF8EC707D
:104A500080B205EB000C1F798CF8EC70401C80B222
:104A60002F185B7987F8EC30401C83B2C81C591AA8
:104A70002944544681F8E800A06B3721C5185B1C17
:104A800085F8EC1099B24518491C89B2431885F88D
:104A9000ECE0491C89B2451883F8EC60491C85F8A4
:104AA000EC9089B24518062385F8EC30491C89B290
:104AB0004518491C85F8ECB089B245183A2385F8A9
:104AC000EC30491C89B245183B2385F8EC30491C71
:104AD00089B245181F2385F8EC30491C89B2451866
:104AE0002123491C85F8EC3089B24318491C83F80E
:104AF000EC8089B24FF49C7303E04518491C85F89B
:104B0000EC209942F9DB4320009001AB4FF409728D
:104B10009AF80200A16B00F005F8BDE8FC9F0000C8
:104B2000140000202DE9F0479946089E15468A4654
:104B30000446082803D94FF0FF30BDE8F087600134
:104B40004FF001080830FDF72FFD00F00F0002289C
:104B500004D0042802D06FF00400EEE78DB1D9F83C
:104B6000000088B19EB14FF4427000EB441007463C
:104B7000FDF71AFD42280DD022280BD06FF0060059
:104B8000DBE76FF00D00D8E76FF00B00D5E76FF0B3
:104B90000A00D2E740F6084000EB441004224946E0
:104BA000FDF768FD41F20800310A00EB4410FDF703
:104BB00041FD41F20810F1B200EB4410FDF73AFD5F
:104BC00041F6087000EB4410FDF7EEFC4FF6FF7164
:104BD00001EA8020854200D9054608FA04F6DFF88C
:104BE00084802046FEF734FF81463846FDF7DCFC22
:104BF00038B1B8F80200064206D04D4504D900206D
:104C00009BE76FF0030098E74D45EAD82A465146E6
:104C1000204600F00FF94FF4847000EB4410064674
:104C20002021FDF707FD4FF4027000EB44143046DD
:104C3000FDF7BAFC0028FAD12046FDF7B5FC00F0DC
:104C40001F00C10605D520461021FDF7F3FC2846BC
:104C500073E70007F0D520460821FDF7EBFC6FF065
:104C60000C006AE75E0000202DE9F0411D46174662
:104C70000E460446082803D94FF0FF30BDE8F08106
:104C8000012E06D0022E04D0042E02D06FF00400B4
:104C9000F4E715F0060F6FF00500EFD185B1012E96
:104CA00002D0022E0CD103E015F0210FE6D007E070
:104CB000A90601D52906E1D5E90601D52906DDD5E4
:104CC0002046FEF7D1FB600105F0F0014FF001082E
:104CD00031430830FDF7AEFC224E57B93788781CB7
:104CE00080B2A0F57F413080F03902D14FF44040CE
:104CF00030804FF48160390A00EB4410FDF79AFCD4
:104D00004FF4A160F9B200EB4410FDF793FC4FF4AF
:104D1000847000EB441007460121FDF78BFC3846F8
:104D2000FDF742FC0028FAD105F001007188A0408F
:104D300008437080B18808FA04F08143B1800A49C1
:104D4000002021F814000749891D08554FF44270CE
:104D500000EB44152846FDF727FC0028FAD060B286
:104D60008CE700005E000020080100200FB46421E1
:104D700000B599B01BAB68461A9AFDF7C9FC00282C
:104D800004DD82B269460120FEF7CDFB19B05DF863
:104D900014FB2DE9F0475FEA02088946064626D053
:104DA00042F6081000EB46152846FDF7FDFB0746C6
:104DB00042F6080000EB46142046FDF7F5FB07EB32
:104DC000002087B2380200EB4610424649461830B0
:104DD000FDF708FC07EB080086B2310A2046FDF714
:104DE00029FCF1B22846BDE8F047FDF723BCBDE839
:104DF000F0872DE9F041044642F6081000EB441517
:104E00000E462846FDF7D0FB074642F6080000EBA9
:104E100044142046FDF7C8FB07EB0020304486B25F
:104E2000310A2046FDF706FCF1B22846BDE8F04104
:104E3000FDF700BC2DE9F0475FEA02088946064607
:104E400026D042F2085000EB46152846FDF7ACFB91
:104E5000074642F2084000EB46142046FDF7A4FB4B
:104E600007EB002087B2380200EB46104246494665
:104E70001030FDF7FFFB07EB080086B2310A204631
:104E8000FDF7D8FBF1B22846BDE8F047FDF7D2BBED
:104E9000BDE8F087007870470170704710B5040ACC
:104EA00000F0F0014FF4A850FDF7C4FB2146BDE827
:104EB00010404FF4B850FDF7BDBB704770477047C6
:104EC000704710B54FF4A850FDF76EFB00F0F004EA
:104ED0004FF4B850FDF768FB04EB002080B210BD22
:104EE00010B54FF4B050FDF75FFB04464FF4C050CF
:104EF000FDF75AFB04EB002080B210BD10B504464C
:104F0000014606224FF41060FDF76CFB042204F109
:104F10000E019001FDF766FB042204F10A014FF433
:104F2000A060FDF75FFB0422A11D4FF47060FDF748
:104F300059FB07480178A1744178E17481782175A3
:104F4000C07860750248401E0078A07510BD000052
:104F50006D0000200020FDF727BB70B504464FF41C
:104F6000D850FDF721FB20704FF4D050FDF71CFB0B
:104F700005464FF4C850FDF717FB05EB0020608095
:104F800070BD2DE9F0410D460646002400F096F86C
:104F90004FF0FF38AEB10022B05C521C204452B238
:104FA00044B2082AF8DB102C17DC002441F60877FD
:104FB000315D07EB4410FDF73DFB641C64B2082C27
:104FC000F6DBCDB1002108462A5C401C114440B2FA
:104FD00049B20828F8DB102902DD4046BDE8F0811F
:104FE000002441F60866295D06EB4410FDF722FB1C
:104FF000641C64B2082CF6DB0020EFE710B5C1B2E8
:10500000040A4FF4B050FDF715FB2146BDE81040EF
:105010004FF4C050FDF70EBB10B504460146062202
:105020004FF41060FDF726FB042204F10E019001FD
:10503000FDF720FB042204F10A014FF4A060FDF704
:1050400019FB0422A11D4FF47060FDF713FB074804
:10505000A17C0170E17C4170217D8170617DC17016
:105060000249A07D491E087010BD00006D0000209F
:1050700010B5044630F03A0002D04FF0FF3010BDBA
:105080000020FDF791FA40EA04010020FDF7D2FA72
:10509000002010BD10B5044601784FF4D850FDF73C
:1050A000C9FA6088010A4FF4C850FDF7C3FAA17825
:1050B000BDE810404FF4D050FDF7BCBAF0B585B054
:1050C0004FF41064062269462046FDF78BFA04224D
:1050D000950102A92846FDF785FA4FF4A06604223F
:1050E00003A93046FDF77EFA4FF47067042204A945
:1050F0003846FDF777FA80210020FDF79BFA002063
:10510000FDF752FA062269462046FDF7B3FA04225B
:1051100002A92846FDF7AEFA042203A93046FDF79E
:10512000A9FA042204A93846FDF7A4FA05B0F0BD97
:1051300010B504464FF43850FDF736FAC0F380112D
:10514000217000F0380001220021202811D03828D9
:105150000FD0617010280ED018280CD020280AD04B
:10516000A170082809D0182807D0202805D0E170A0
:1051700010BD6270EEE7A270F3E7E27010BD10B5EB
:105180004FF43850FDF710FAC00700D0012010BDD1
:1051900010B500244FF43850FDF706FA10F0300F28
:1051A00000D00124204610BD10B54FF438542046DD
:1051B000FDF7FAF920F080012046FDF73BFA204682
:1051C000FDF7F2F940F080012046BDE81040FDF700
:1051D00031BA10B502780021012A00D1402142786D
:1051E000012A06D0C2788078012A05D001280BD088
:1051F0000CE041F0380109E0012802D041F008013B
:1052000004E041F0180101E041F010014FF4385082
:10521000FDF710FABDE81040FFF7C6BF70B50446B1
:105220004FF438563046FDF7BFF941064FF0FF35D1
:105230001AD520F03800012C10D040F0380130464B
:10524000FDF7F8F9FFF7B0FF3046FDF7ADF9012C97
:1052500007D000F0380038B1002070BD40F03001B8
:10526000EDE700F03000F6E7284670BD00000000D2
:105270000000000001020304060708090000000006
:10528000010203046273705F537461727454696D38
:105290006572006273705F53746172744175746FEC
:1052A00054696D6572006273705F53746F705469F6
:1052B0006D6572007B226D6574686F64223A22729C
:1052C00065706F7274222C22636C69656E74546F02
:1052D0006B65223A22313233222C22706172616D69
:1052E00073223A7B22706F7765725F73776974639C
:1052F00068223A25647D7D001853000800000020D4
:1053000008010000AC270008205400080801002014
:10531000783A0000BC2700080000000001000000EF
:1053200010000000000000000024F4000000000055
:10533000000000000000000000000000000000006D
:1053400000000000FFFFFFFF000000000A00000057
:1053500089370008DD370008B93700080000000071
:10536000000000000000000000000000000057499D
:105370005A6E6574000000C00000000000000000CC
:10538000000000000000000000000000010257358E
:1053900035303000BB4E0008BD4E0008C14E00083D
:1053A000BF4E0008954E0008994E000888135B0711
:1053B000C0A802582F6C90290000000000000000D7
:1053C00000000000000000000000000000000000DD
:1053D00000000000000000000000000000000000CD
:1053E00000000000000000000000000000000000BD
:1053F0000008DC00ABCD0000000000000000000051
:10540000000000000000000000000000000000009C
:10541000000000000000000000000000000000008C
:040000050800018965
:00000001FF
