:020000040800F2
:10000000D83A0020A1010008131A000819180008A6
:10001000111A000873070008AD1E00080000000058
:10002000000000000000000000000000351A000879
:10003000C10D000800000000151A0008391A000858
:10004000BB010008BB010008BB010008BB010008A0
:10005000BB010008BB010008BB010008BB01000890
:10006000BB010008BB010008BB010008BB01000880
:10007000BB010008BB010008BB010008BB01000870
:10008000BB010008BB010008BB010008BB01000860
:10009000BB010008BB010008BB010008BB01000850
:1000A000BB010008BB010008BB010008BB01000840
:1000B000BB010008711B0008BB010008BB01000860
:1000C000BB010008BB010008BB010008BB01000820
:1000D000BB010008891C0008951C0008A11C000831
:1000E000BB010008BB010008BB010008BB01000800
:1000F000BB010008BB010008BB010008BB010008F0
:10010000BB010008BB010008BB010008BB010008DF
:10011000BB010008BB010008BB010008BB010008CF
:10012000BB010008BB010008BB010008BB010008BF
:10013000BB010008BB010008BB010008BB010008AF
:10014000BB010008BB010008BB010008BB0100089F
:10015000BB010008BB010008BB010008BB0100088F
:10016000BB010008BB010008BB010008BB0100087F
:10017000BB010008BB010008BB0100080000000033
:10018000BB010008BB010008DFF810D000F070FAD6
:1001900000480047752D0008AFF30080D83A0020D2
:1001A0000648804706480047FEE7FEE7FEE7FEE711
:1001B000FEE7FEE7FEE7FEE7FEE7FEE7611B00085D
:1001C000890100082DE9F05F0546002092469B4614
:1001D00088460646814640241BE02846414647465D
:1001E000224600F07CF853465A46C01A914110D37B
:1001F00011461846224600F063F82D1A67EB0108F5
:100200004F4622460120002100F05AF817EB000962
:100210004E41201EA4F10104DFDC484631462A4647
:100220004346BDE8F09FD2B201E000F8012B491E21
:10023000FBD270470022F6E710B513460A46044683
:100240001946FFF7F0FF204610BD30B505462A4697
:100250000B4612F8010B13F8014B08B1A042F8D07D
:100260001CB1002802D06D1CF1E7284630BD10B546
:10027000044604E00B7800F8013B03B1491C521E10
:10028000F8D2204610BD421C10F8011B0029FBD1FA
:10029000801A704730B50B46014600202022012409
:1002A00009E021FA02F59D4205D303FA02F5491B44
:1002B00004FA02F52844151EA2F10102F1DC30BD5A
:1002C000202A04DB203A00FA02F100207047914016
:1002D000C2F1200320FA03F3194390407047202A0B
:1002E00004DB203A21FA02F00021704721FA02F3E0
:1002F000D040C2F1200291400843194670472DE9D1
:10030000FE4F804681EA0300C00F0C46009021F0AA
:10031000004123F00045B8EB0200A94105D2404658
:10032000214690461C460B46024623F000401043EF
:1003300047D0270DC7F30A00C3F30A510290401AB1
:10034000019040286BDAC3F3130040F4801B00983F
:10035000924620B10023D2EB030A63EB0B0B01980A
:100360005946C0F140025046FFF7AAFF06460D4627
:1003700050465946019A00F08DF910EB0800614192
:10038000002487EA115284EAE7731A4340D0009AA6
:1003900062B3019A012A4FEA075215DC001B61EB98
:1003A00002014FF0004202EA0752CDE90042001C70
:1003B00041F5801132462B4600F08DF903B0BDE8BF
:1003C000F08F40462146F9E7001B61EB0201001C5B
:1003D00041F5801300185B412018A2F5001747EB88
:1003E000030140EAD570B6196D4111E06D084FEA7E
:1003F000360645EAC0754FEA0752001B61EB020161
:10040000001C41F5801149084FEA300000195141A4
:1004100032462B4603B0BDE8F04F00F04DB90098CE
:10042000012240000023D0EB020263EBE07300984E
:1004300021464FEAE074B8EB000061EB0401E9E704
:1004400083F000435BE781F0004158E72DE9FE4F60
:1004500081EA030404F0004421F0004100944FF0CD
:10046000000B23F0004350EA01045ED052EA03047B
:100470005BD0C3F30A54C1F30A552C44A4F2F334FD
:100480000194A0FB0254C1F3130141F48011C3F3A2
:10049000130343F4801301FB024400FB034E840A60
:1004A000970A44EA815447EA8357A4FB07680295F8
:1004B0008D0A05FB07854FEA932C04FB0C54270596
:1004C000029D4FEA065847EA1637B5EB08056EEB72
:1004D000070C870E920E47EA811742EA8312A7FBA8
:1004E0000201B6EB0B0164EB00042B0D43EA0C3365
:1004F0005E1844EB1C50DA465146E7FB0201C5F397
:1005000013044FEA0B3343EA14534FEA0432019CBD
:1005100043EA0603A4F10C040294009CCDE900B464
:1005200000F0D9F803B0BDE8F08F00200146F9E7EC
:100530002DE9F04D81EA030404F0004B21F0004561
:1005400014464FF0000A23F0004150EA050220D083
:1005500054EA01021DD0C5F30A570246C5F313033E
:10056000C1F31300C1F30A5640F4801543F480131D
:10057000A7EB0608101BD64608F2FD3873EB050002
:1005800002D308F1010801E092185B41B8F1000FB5
:1005900003DA00200146BDE8F08D00204FF4801101
:1005A000064684460EE0171B73EB050705D3121BA6
:1005B00063EB050306434CEA010C49084FEA30009F
:1005C00092185B4150EA0107EDD152EA030012D0C4
:1005D00082EA040083EA0501084305D0101BAB4101
:1005E00006D20122002306E000224FF0004302E081
:1005F0006FF0010253101AEB06004CEB085110EBA0
:100600000A0041EB0B01BDE8F04D00F055B8C1F315
:100610000A52C1F3130140F2FF3341F480119A42B0
:1006200002DA00200146704740F233439A42A2F2B8
:10063000334202DC5242FFF752BEFFF741BE0000D8
:1006400030B5041E71F1000404DB4FF00044404259
:1006500064EB0101141E73F1000405DB1C464FF02E
:100660000043524263EB0403994208BF904230BDFD
:10067000064C074D06E0E06840F0010394E80700EF
:1006800098471034AC42F6D3FFF782FD34300008AF
:1006900054300008202A06DBCB17203A41FA02F03A
:1006A00043EAE07306E041FA02F3D040C2F12002CF
:1006B000914008431946704710B5141E73F10004A9
:1006C00008DA401C41F1000192185B411A4301D144
:1006D00020F0010010BD2DE9F04D92469B4611B16E
:1006E000B1FA81F202E0B0FA80F220329046FFF7D0
:1006F000E7FD04460F4640EA0A0041EA0B01534673
:100700005A46084313D0114653EA010019D0C8F1E4
:1007100040025046FFF7E3FD05460E465046594657
:100720004246FFF7CDFD084305D0012004E02046F6
:100730003946BDE8F08D0020054346EAE0762C43BB
:1007400037430A986305E40AA0EB08000022FD0A7B
:1007500044EA47540A3002D500200146E9E7010582
:1007600010196941DDE9084500196941BDE8F04DFE
:10077000A2E7FEE730B5A1B080216846FFF75AFD39
:10078000002414A002F0E6FB4FF47A7002F0BEF8E9
:100790006D462919012002F07FFA641CE4B2802C16
:1007A000F7D96846FFF76FFDC2B269460BA001F0AA
:1007B000E7FB0EA16846FFF748FD10B1002021B00D
:1007C00030BDC82002F0A2F8694609A001F0D8FBAC
:1007D0000120F4E7415445300D0A0000BDD3CADCC6
:1007E000B5BDB5C425732025640A00004F4B000039
:1007F0004154CAA7B0DCA3BA25730A0030B5A1B032
:10080000054680216846FFF715FD0024294616A0FD
:1008100002F0A0FB4FF47A7002F078F86D462919C7
:10082000012002F039FA641CE4B2802CF7D9684642
:10083000FFF729FDC2B269460DA001F0A1FB10A18E
:100840006846FFF702FD10B1002021B030BD0DA1B8
:100850006846FFF7FAFC08B10120F6E769460BA0ED
:1008600001F08EFBF8E7000025730D0A0000000080
:10087000BDD3CADCB5BDB5C425732025640A00000C
:100880004F4B00004641494C55524500C3FCC1EE58
:10089000CAA7B0DCA3BA25730A00000030B5A1B026
:1008A000054680216846FFF7C5FC0024294616A0AE
:1008B00002F050FB4FF47A7002F028F86D462919C7
:1008C000012002F0E9F9641CE4B2802CF7D96846F3
:1008D000FFF7D9FCC2B269460DA001F051FB10A18F
:1008E0006846FFF7B2FC10B1002021B030BD0EA168
:1008F0006846FFF7AAFC08B10120F6E769460CA09C
:1009000001F03EFBF8E7000025730D0A000000002F
:10091000BDD3CADCB5BDB5C425732025640A00006B
:1009200053554343455353004641494C55524500A6
:10093000C3FCC1EECAA7B0DCA3BA25730A0000004D
:1009400030B5A1B0054680216846FFF773FC00244E
:10095000294616A002F0FEFA4FF4FA6001F0D6FF25
:100960006D462919012002F097F9641CE4B2802C2D
:10097000F7D96846FFF787FCC2B269460DA001F0BF
:10098000FFFA10A16846FFF760FC10B1002021B00B
:1009900030BD0EA16846FFF758FC08B10120F6E70C
:1009A00069460CA001F0ECFAF8E7000025730D0A87
:1009B00000000000BDD3CADCB5BDB5C42573202539
:1009C000640A000053554343455353004641494C84
:1009D00055524500C3FCC1EECAA7B0DCA3BA2573CB
:1009E0000A00000030B5B3B0C8216846FFF722FC0A
:1009F000002416A002F0AEFA4FF47A7001F086FFE0
:100A00006D462919012002F047F9641CE4B2C82C94
:100A1000F7D96846FFF737FCC2B269460FA001F06C
:100A2000AFFA12A16846FFF710FC10B1002033B0F6
:100A300030BD0FA16846FFF708FC08B10120F6E7BA
:100A400069460CA001F09CFAF8E7000041542B4ED7
:100A500045544F50454E3F0D0A000000BDD3CADC3F
:100A6000B5BDB5C425732025640A0000310000001F
:100A700030000000C3FCC1EECAA7B0DCA3BA2573E6
:100A80000A00000030B5A1B080216846FFF7D2FB14
:100A9000002414A002F05EFA4FF47A7001F036FFE1
:100AA0006D462919012002F0F7F8641CE4B2802C8D
:100AB000F7D96846FFF7E7FBC2B269460BA001F021
:100AC0005FFA0EA16846FFF7C0FB10B1002021B00D
:100AD00030BDC82001F01AFF694609A001F050FAA4
:100AE0000120F4E741540D0A00000000BDD3CADC28
:100AF000B5BDB5C425732025640A00004F4B000026
:100B00004154CAA7B0DCA3BA25730A0070B5C0B0BF
:100B10004FF48074002521466846FFF78BFBFFF7F2
:100B2000B1FF28B13EA001F02BFA012040B070BD0A
:100B30003DA001F025FAFFF71DFE20B13DA001F018
:100B40001FFA0220F2E73EA001F01AFA40A0FFF7D8
:100B500055FE44A0FFF752FE46A0FFF74FFE20B11E
:100B60004BA001F00DFA0320E0E74DA001F008FAD8
:100B70004FF47A7001F0CAFEFFF734FF50B14CA079
:100B800001F0FEF94EA0FFF7DBFE18B150A001F016
:100B9000F7F919E052A001F0F3F956A258A16846FE
:100BA00001F0FEF96846FFF729FE21466846FFF787
:100BB00041FB40F25B7356A259A1684601F0F0F97F
:100BC0006846FFF76BFE08B101F028FA2146684637
:100BD000FFF730FB4FF4FA76304601F097FE55A050
:100BE000FFF75CFE08B10620A0E7304601F08EFE5C
:100BF00055A258A1684601F0D3F96846FFF74EFEAA
:100C000008B1052092E721466846FFF713FB3046FE
:100C100001F07CFE534901200870284686E7000059
:100C20004154CAA7B0DC0A004154B3C9B9A60D0AA1
:100C3000000000004154BBD8CFD4CAA7B0DC0A00E2
:100C40004154BBD8CFD4B3C9B9A60D0A00000000E7
:100C500041542B4D444953434F4E4E4543540D0A86
:100C60000000000041542B4D4950434C4F53450D5B
:100C70000A00000041542B5149435347503D312C49
:100C8000312C22222C22222C22220D0A00000000CC
:100C90004154C5E4D6C3CDF8C2E7CAA7B0DC0A0008
:100CA0004154C5E4D6C3CDF8C2E7B3C9B9A60A001A
:100CB0004154C3BBD3D0B4F2BFAACDF8C2E70A00F7
:100CC00041542B4E45544F50454E0D0A0000000034
:100CD0004154B4F2BFAACDF8C2E7CAA7B0DC0A00FB
:100CE0004154B4F2BFAACDF8C2E7B3C9B9A60D0A00
:100CF000000000007A6A745F74657374000000007D
:100D000041542B4D434F4E4649473D25730D0A0034
:100D100034372E3130382E3134342E343100000047
:100D200041542B4D495053544152543D25732C2569
:100D3000640D0A0041542B4D434F4E4E4543543DE4
:100D4000312C36300D0A00006170705F746F70696D
:100D50006300000041542B4D5355423D25732C3008
:100D60000D0A00005400002010B578B101280FD002
:100D700002280FD0032807D0042805D0052803D067
:100D8000E82105A000F01DF8002010BD094810BDA5
:100D9000094810BD094810BD2E2E5C6273705C734B
:100DA00072635C6273705F756172745F6669666FAF
:100DB0002E630000081E002034260020602E002034
:100DC0007047002900D0FEE7704700002DE9F84F7A
:100DD000DFF8BCA10022012503264FF00F090AF11C
:100DE000040BAAF1040E00BF0B6805FA02F42340BD
:100DF000A34270D10F7907F00307012F01D0022F12
:100E000016D187684FEA420806FA08FC27EA0C0761
:100E1000D1F80CC00CFA08FC4CEA070CC0F808C06A
:100E20004768A7430C79C4F3001494403C434460E2
:100E30000C79E443A4070AD0C4684FEA420C06FACE
:100E40000CF7BC438F6807FA0CF72743C7600C798F
:100E500004F00304022C12D1D40800EB840CDCF85B
:100E600020405707FF0E09FA07F824EA0804D1F8D2
:100E7000108008FA07F848EA0408CCF820800468D3
:100E80004FEA420C06FA0CF7BC430F7907F0030750
:100E900007FA0CF7274307604C6814F4403F70D002
:100EA0003C4C276847F480472760246822F00307FA
:100EB00004F480440094384C07EB040CDCF8084838
:100EC00097074FEA177809FA08F7BC43334FB8423F
:100ED00002D1002724E054E0314FB84201D101276C
:100EE0001EE0304FB84201D1022719E02E4FB84220
:100EF00001D1032714E02D4FB84201D104270FE0A0
:100F00002B4FB84201D105270AE02A4FB84201D140
:100F1000062705E0284FB84201D1072700E008273F
:100F200007FA08F72743CCF80878DAF80040574664
:100F3000D1F804C09C435FEACC2C00D51C433C6034
:100F4000DBF800405F46D1F804C09C435FEA8C2C7C
:100F500000D51C433C60DEF800407746D1F804C061
:100F60009C435FEA8C3C00D51C433C60084F083F23
:100F70003C68D1F804C09C435FEACC3C00D51C43DC
:100F80003C60521C102AFFF42FAFBDE8F88F000020
:100F9000083C01404438024000300140000002405B
:100FA0000004024000080240000C02400010024011
:100FB0000014024000180240001C024001488068F2
:100FC0007047000000000020024881680278114448
:100FD00081607047000000200B4810B5016841F4A3
:100FE00000710160016841F480610160016841F4B1
:100FF00080710160032000F06FF80F2000F006F808
:1010000000F024F8002010BD003C024070B50D4DEA
:1010100004464FF47A712878B1FBF0F00A49096868
:10102000B1FBF0F000F00AFB48B9102C07D2002207
:101030002146501E00F030F800206C6070BD012089
:1010400070BD0000000000200C0000200A4808B518
:10105000016841F480410160006800F48040009024
:101060000548001F016841F080510160006800F0F0
:101070008050009008BD000044380240002809DB81
:1010800000F01F02012191404009800000F1E020A2
:10109000C0F8001170470000F0B40E4B1B680C46FE
:1010A000C3F30223C3F10705042D00D90425191D3C
:1010B000072901D2002300E0DB1E012606FA05F114
:1010C000491E214099409E40761E16403143F0BC97
:1010D00000F094BF0CED00E0064900F0070208683C
:1010E0004FF6FF03184040EA0220034A104308600D
:1010F000704700000CED00E00000FA052DE9F04714
:101100000E46050065D0DFF81481D8F80000F7B26C
:1011100000F00700B04207D288F80070D8F800004D
:1011200000F00700B04254D128683D4C810712D529
:10113000400703D5206840F4E0502060287800077D
:1011400003D5206840F4604020602068A96820F042
:10115000F000084320602878C0072DD03049686827
:101160000839012812D0022813D0032811D00968A9
:10117000890700292DDA216821F00301014321604C
:10118000FFF71CFF814641F2883A0EE009688903A7
:10119000EFE709688901ECE7FFF710FFA0EB090111
:1011A000514502D90320BDE8F0872068696800F046
:1011B0000C00B0EB810FEFD1D8F80010404601F0E1
:1011C0000701B14207D90770006800F00700B0427C
:1011D00001D00120E7E72878400705D52068E968B5
:1011E00020F4E050084320602878000706D52068E6
:1011F000296920F4604040EAC100206000F038F81E
:101200002168084AC1F30311515CC84006490860CF
:1012100006480068FFF7FAFE0020C4E7003C0240E1
:1012200008380240EA2F00080C00002004000020CB
:101230000448054900680968044AC1F38221515CE9
:10124000C84070470C00002008380240FA2F000800
:101250000448054900680968044AC1F34231515CF9
:10126000C84070470C00002008380240FA2F0008E0
:10127000154810B5006810F00C02144813D0411046
:10128000042A0FD0082A0ED10F4C241F226823688D
:1012900002F03F025B0207D52068C0F38810A0FB74
:1012A000010106E0084610BD2168C1F38811A1FBC9
:1012B00000010023FEF786FF2168C1F30141491CAC
:1012C0004900B0FBF1F010BD083802400024F400E2
:1012D0002DE9F84F04006ED02078DFF84C93C0075A
:1012E000A9F104054AD009F104000168C1F38101A4
:1012F000012908D00068C0F3810002280AD1D9F87A
:101300000000400206D52868800337D560680028B1
:10131000E1D033E06068B0F5803F10D0B0F5A02F89
:10132000286810D020F480302860286820F48020BD
:1013300028606068A8B1FFF741FE06460DE0286806
:1013400040F48030F4E740F480202860F7E700BFE5
:10135000FFF734FE801B642873D828688003F7D514
:101360000CE0FFF72BFE064605E000BFFFF726FE68
:10137000801B6428F0D828688003F7D42078DFF831
:10138000AC8280074FF0000A3ED5A748001D0168D7
:1013900011F00C0F08D00068C0F3810002280BD1B7
:1013A000D9F80000400207D42868800716D5E06805
:1013B000012800D112E033E1E068B8B10120C8F89B
:1013C0000000FFF7FBFD064605E000BFFFF7F6FD56
:1013D000801B0228C0D828688007F7D528682169B3
:1013E00020F0F80040EAC10028600DE0C8F800A035
:1013F000FFF7E4FD064604E0FFF7E0FD801B02284E
:101400001FD828688007F7D42078000722D5864F98
:1014100087486169703771B101210160FFF7CEFD26
:10142000064604E0FFF7CAFD801B022809D8386889
:101430008007F7D50EE0C0F800A0FFF7BFFD064615
:1014400005E082E0FFF7BAFD801B02287DD83868EE
:101450008007F7D42078400768D5DFF8CCB10027A3
:101460000BF13C0BDBF80000C0000BD4DBF80010E4
:1014700041F08051CBF80010DBF80000012700F0AC
:10148000805000906B4E3068C00510D4306840F436
:1014900080703060FFF792FD009005E0FFF78EFD51
:1014A0000099401A022850D83068C005F6D55E4E23
:1014B000A0686C3601280FD00528306810D020F0C5
:1014C00001003060306820F004003060A068B8B1DE
:1014D000FFF774FD00900FE0306840F00100F4E782
:1014E00040F004003060F7E7FFF768FD0099411A0B
:1014F00041F28830814266D830688007F4D50EE02A
:10150000FFF75CFD009007E0FFF758FD0099411AD6
:1015100041F28830814256D830688007F4D42FB128
:10152000DBF8001021F08051CBF80010A069C8B39F
:101530003D49091D0968C1F3810102294AD00228E9
:10154000504607D0C8F8600000E03CE0FFF736FDE9
:1015500004463BE04746C8F86000FFF72FFD06460B
:1015600005E000BFFFF72AFD801B02282BD8286862
:101570008001F7D4D4E907010843A16A2E4A49083B
:1015800002EB0141626A41EA8211084394F82C108F
:1015900040EA0161C9F8001001203866FFF70EFD2E
:1015A000044606E03EE000BFFFF708FD001B0228EE
:1015B00009D828688001F7D534E000BFFFF7FEFCAA
:1015C000001B022802D90320BDE8F88F286880019B
:1015D000F4D427E00128F7D0D9F80000E26900F43C
:1015E000800191421CD1226A00F03F01914217D143
:1015F00047F6C071626A0140B1EB821F10D1A26A46
:101600004FF0FF3300F4403103EB5202B1EB024FD5
:1016100006D194F82C1000F07060B0EB016F01D08F
:101620000120D1E70020CFE7043802400000474204
:10163000800E4742007000400000FFFF10B5401EC2
:10164000B0F1807F01D3012010BD4FF0E024606134
:101650000F21601700F0D2FC0020A061072020615C
:10166000002010BD7047704770472DE9F0410446D7
:101670000068C66805694FF00007A90713D5B107D0
:1016800011D5F91E0161012020772068806980074B
:10169000204602D0FFF7E8FF04E000F07EF8204685
:1016A00000F07CF82777680716D5700714D52168F5
:1016B0006FF004000861022020772068806910F430
:1016C000407F204602D0FFF7CFFF04E000F065F82E
:1016D000204600F063F82777280715D5300713D583
:1016E00021686FF008000861042020772068C06935
:1016F0008007204602D0FFF7B7FF04E000F04DF866
:10170000204600F04BF82777E80616D5F00614D5EA
:1017100021686FF010000861082020772068C069F8
:1017200010F4407F204602D0FFF79EFF04E000F057
:1017300034F8204600F032F82777E80708D0F007A1
:1017400006D021686FF001000861204600F028F8FB
:10175000280608D5300606D521686FF0800008619C
:101760002046FFF77FFF680608D5700606D521687A
:101770006FF040000861204600F01AF8A8060AD56C
:10178000B00608D521686FF0200008612046BDE84A
:10179000F041FFF768BFBDE8F08170477047000077
:1017A0000249884201D100F027B970478C360020E9
:1017B000704770B5040004D094F84100002510B1C2
:1017C00006E0012070BD84F84050204600F023F868
:1017D000242084F841002068C16821F40051C160D0
:1017E000204600F0CBF92068016921F490410161A5
:1017F0002068416921F02A0141612068C16841F4F3
:101800000051C1606564202084F8410084F84200E2
:101810006563002070BD7047FEE700002DE9F04FC2
:101820006F4C87B0206840F001002060206800F015
:1018300001000590206840F001002060206800F061
:101840000100059066481430016841F01001016004
:101850000068072600F01000059060154FF00208A0
:101860004FF001094FF0030A04968DE8010769461D
:101870005C48FFF7ABFA4FF4806B69465948CDF8E6
:1018800000B00496FFF7A2FA012200212520FFF7FD
:1018900003FC2520FFF7F2FB534D0C2300224FF4ED
:1018A000E131284601F05EF9286820F04000286008
:1018B000286820F020002860E86840F02000E860F8
:1018C000206840F001002060206800F001000590D1
:1018D000206840F0010020602068414F00F00100C6
:1018E00010370590386840F4003038603868049646
:1018F00000F40030059004208DE80107694639485E
:10190000FFF764FA08200090694604963548FFF70F
:101910005DFA022200212620FFF7BEFB2620FFF7FA
:10192000ADFB0C2300224FF4E131304801F01AF9ED
:10193000286820F040002860286820F020002860F7
:101940002A480C30016841F020010160206840F015
:1019500002002060206800F002000590206840F03E
:1019600002002060206800F002000590386840F412
:10197000802038603868CDF800B000F48020CDE9D0
:10198000046001AA1A4C82E8000769462046FFF766
:101990001DFAE0140090694604962046FFF716FAF7
:1019A000032200212720FFF777FB2720FFF766FBA4
:1019B0000C2300224FF4E1310E4801F0D3F82868DF
:1019C00020F040002860286820F0200028600948A6
:1019D0000C30016841F02001016007B0BDE8F08FD4
:1019E0003038024000000240001001400044004036
:1019F00000040240004800400448C0210222017057
:101A0000002141700146012001F016BAEC010020CE
:101A1000FEE7FEE770477047014904200860704701
:101A20001804024002494FF480200860704700000B
:101A3000180402407047000010B5FFF7C5FA0448CB
:101A40004078002803D0BDE8104000F003B810BD76
:101A50004800002070B51B4C6068012220B160680E
:101A6000401E606000D12270174B002101EB410045
:101A700003EB800045684DB145686D1E456005D19A
:101A800042700578012D01D185684560491CC9B2B5
:101A90000429EBD3A068401CA060A0686FF000414F
:101AA0000025884200D1A56001F05AF8A078401CBA
:101AB000C0B2A0700A2804D3A570BDE8704000F041
:101AC000F1BF70BD48000020D81D002030B593B094
:101AD00030216846FEF7AEFB14210CA8FEF7AAFBE6
:101AE0001D480025016841F080510160006800F048
:101AF000805011901948016841F4804101600068EC
:101B0000022400F480401190012000900004019014
:101B10008001CDE90640082008904FF4A870CDE977
:101B2000090404200B906846FFF7D2FB00B1FEE7E2
:101B30000CA90F2081E831004FF4A0500F904FF412
:101B40008050109005210CA8FFF7D8FA002800D08B
:101B5000FEE713B030BD0000403802400070004086
:101B60000248016841F470010160704788ED00E0AF
:101B70000148FFF77ABD00008C36002070B504469E
:101B800000680169E26821F4405111430161216953
:101B9000A068E26908436169114308432168CA6883
:101BA00049F20C639A430243CA6020684169A26902
:101BB00021F440711143416131492068884202D0CB
:101BC0003049884202D1FFF743FB01E0FFF730FBC9
:101BD000E2690023192164253226B2F5004F6268BC
:101BE00028D0A0FB0101930F9200FEF7EBFA01460B
:101BF000B0FBF5F06FF01802504301EB800006EBEC
:101C00000010B0FBF5F000F0F002B1FBF5F002EBD4
:101C10000012B1FBF5F06FF01803584301EB8000A0
:101C200006EB0010B0FBF5F000F00F002168104447
:101C3000886070BDA0FB010192185B41FEF7C2FAFB
:101C40000146B0FBF5F00201B1FBF5F06FF01803AF
:101C5000584301EB800006EBC000B0FBF5F000F04C
:101C6000F80002EB4002B1FBF5F0584301EB8000B5
:101C700006EBC000B0FBF5F000F00700D6E700006F
:101C80000010014000140140014800F00FB80000AE
:101C9000081E0020014800F009B80000342600208A
:101CA000014800F003B80000602E00202DE9F0414B
:101CB000044600680568C7684169A9064FF0000638
:101CC00015D54068E28AA168C0B28854E18A491CEF
:101CD0008AB2E282E1898A4200D3E682628B8A423A
:101CE00002D2618B491C6183616A01B18847280671
:101CF00016D5380614D5A08A50B3012084F82800E0
:101D0000618A6068405C21684860608A401C80B2DB
:101D10006082A189884200D36682A08A401EA08288
:101D2000680613D5780611D5A08AE0B1618A60688B
:101D3000405C21684860608A401C80B26082A18952
:101D4000884200D36682A08A401EA082BDE8F0814E
:101D50002068C16821F08001C1602068C16841F03D
:101D60004001C160DCE72068C16821F04001C1602A
:101D7000206A00B1804784F82860E7E778B500233F
:101D800025E0012484F31088848AADF80040002403
:101D900084F310888489BDF80050AC421FD9CC5C14
:101DA000068A4568AC55012484F31088048A641CB3
:101DB000A4B204828589AC4201D300240482848ABF
:101DC000641C8482002484F310885B1C9BB29342C1
:101DD000D7D30068C16841F08001C16078BDBDF80B
:101DE0000050AC42CDD10468E5682D06C9D4E56841
:101DF00045F08005E560C4E7264925484FF4806238
:101E0000086001F12C00486000F5806088608A81DC
:101E1000CA81002008824882C88208834883888259
:101E2000C8610862486281F8280001F62C011A4B4B
:101E30000B6001F12C034B6001F22C438B608A8113
:101E4000CA8108824882C882088348838882C86120
:101E50000862486281F8280001F62C010F4B0B60E4
:101E600001F12C034B6001F22C438B608A81CA8103
:101E700008824882C882088348838882084ACA61E7
:101E8000084A0A62084A4A6281F82800704700003E
:101E900000100140081E002000440040004800409F
:101EA000191A0008251A0008171A0008FEE7000092
:101EB00070B50D4C0546A068804720698047E169F0
:101EC000C5F307408847E169C5F307208847E16902
:101ED000E8B28847A0698047054660698047E068A6
:101EE0008047284670BD00002800002070B50E4CC9
:101EF00005460E46A06880472069804745F00405E6
:101F0000E169C5F307408847E169C5F307208847C1
:101F1000E169E8B28847E1693046884760698047EF
:101F2000E068BDE870400047280000202DE9F0413E
:101F3000124C06461746A06888460025804720694F
:101F4000804746F00406E169C6F307408847E16927
:101F5000C6F307208847E169F0B2884706E000BF72
:101F6000E16918F8050088476D1CADB2BD42F7D392
:101F700060698047E068BDE8F04100472800002024
:101F80000FB4054B10B503A9044A029800F02AF9D2
:101F900010BC5DF814FB0000172D0008580000204D
:101FA0000FB4084B10B504A902AA039800F01AF95F
:101FB000044602A9002000F0A3FC204610BC5DF8F6
:101FC00014FB0000012900087CB50C001D461646D4
:101FD000014601D0601E00E00020CDE90010064B54
:101FE0006A462946304600F0FDF8002C02D0009ADF
:101FF000002111707CBD0000EB2800080907090EC4
:10200000002804DB00F1E02080F80014704700F0A5
:102010000F0000F1E02080F8141D7047BFF34F8FD0
:1020200005480168054A01F4E06111430160BFF30E
:102030004F8F00BFFDE700000CED00E00400FA0543
:1020400002E008C8121F08C1002AFAD17047704781
:10205000002001E001C1121F002AFBD170470000DF
:102060002DE9FF5F82B00021DDE90430020DDDF8CB
:1020700040B0034318D044F61050A2F2FF3242435E
:102080001514119801281FD0A5EB0B00401C5FEA26
:10209000000A4FF000064E4FDFF83891B046504628
:1020A00015D5CAF1000413E0119801244AA30128B0
:1020B00001D16FEA0B010298119AC0E90031C0E921
:1020C000024206B0BDE8F09FCBF10000DFE7044616
:1020D0000021404A491842EB0450CDE9001012E0BB
:1020E000E00707D032463B4640464946FEF7AEF988
:1020F0008046894632463B4610461946FEF7A6F909
:1021000006460F466410002CEAD1DDE90401DDE942
:102110000023BAF1000F06DAFEF798F942464B4663
:10212000FEF794F905E0FEF703FA42464B46FEF748
:10213000FFF904460E460022284BFEF781FA03D829
:102140004FF0FF30014607E00022254B2046314684
:10215000FEF7D5F8FEF75BFA102409E0002C0ADB45
:102160000A220023FEF72EF8039B30321A55641E14
:1021700050EA0102F2D1641C039AC4F11103144421
:10218000119A012A03D0012208430DD10AE0084325
:1021900004D000204FF0110B119072E7A3EB0B0558
:1021A0006D1E0DE05B4504DD4FF0000205F10105F9
:1021B00004E003DA4FF00002A5F10105002AECD09B
:1021C00002981199C0E90231C0E9004579E70000A1
:1021D000000014400000F03F300000000000F04319
:1021E0000000E03F2DE9FF4F95B09A46884606462D
:1021F0000025EEE1252877D100242746F94A012160
:10220000039400E0044316F8013F203B01FA03F079
:102210001042F7D130782A2811D06FF02F03307890
:10222000A0F13002092A16D8039A44F0020402EB06
:10223000820203EB42021044761C0390EFE758F849
:10224000042B0392002A03DA504244F40054039012
:1022500044F00204761C30782E2816D116F8010FAF
:1022600044F004042A280DD06FF02F023078A0F13A
:102270003003092B09D807EB870302EB4303C71888
:10228000761CF3E758F8047B761C30786C280FD066
:1022900006DC4C2817D068280DD06A2814D104E039
:1022A000742810D07A280FD10DE044F400140AE00D
:1022B00044F4801401E044F440147278824202D164
:1022C00004F58014761C761C307866280BD013DC5D
:1022D000582877D009DC002875D04528F6D0462844
:1022E000F4D047281AD193E118E0632835D0642848
:1022F00079D0652812D18BE1702873D008DC67286B
:10230000F1D069286FD06E280DD06F2806D1ACE0CF
:1023100073282CD0752874D0782853D0524617993A
:1023200090476D1C54E1C4F30250022809D00328E1
:102330000DD0D8F8001004280DD00D6008F1040865
:1023400046E1D8F80010EA17C1E90052F6E7D8F8DC
:1023500000100D80F2E70D70F0E718F8041B8DF8FF
:10236000001000208DF80100EB46012003E058F832
:1023700004BB4FF0FF3061074FF0000102D40DE0C5
:1023800009F101018946B9420FDA8145F8DB1BF8F2
:1023900009100029F4D108E009F1010189468142C0
:1023A000FADB1BF809100029F6D103985346A0EB7D
:1023B000090721463846179A00F080FA284400EBB6
:1023C000090507E044E008E10DE01BF8010B524667
:1023D00017999047B9F10109F7D25346214638467B
:1023E000179AF2E039E00A21C4F302524FF0000BD1
:1023F0000091022A06D058F8040BC117032A09D00D
:102400000AE023E008F1070020F00702F2E80201E9
:10241000904605E000B2C117042A01D140B2C117AD
:10242000002906DA0A460021404261EB02012D2212
:1024300002E0220504D52B228DF80420012203E0BE
:10244000E20701D02022F7E7914657E00A2100E099
:1024500010214FF0000B00910BE010214FF0000B0A
:1024600044F004040827009103E008204FF0000B1B
:102470000090C4F30252022A05D058F8040B002140
:10248000032A08D008E008F1070020F00702F2E86C
:102490000201904603E080B2042A00D1C0B24FF09E
:1024A000000922072AD53278702A07D0DDF800C04B
:1024B0008CF0100C5CEA0B0C05D00EE040228DF87D
:1024C0000420012208E050EA010306D030238DF8F1
:1024D00004308DF8052002229146009B83F008030A
:1024E00053EA0B030AD150EA010201D1620705D574
:1024F00030228DF804204FF001097F1E3278582ACF
:1025000004D039A20C920CAA02920BE03BA2F9E78C
:102510005B46009AFDF756FE0C9B9B5C029A521E8E
:102520000292137050EA0102F2D1029804A9081A2B
:1025300000F1200B600702D524F4803400E001276D
:102540005F4502DDA7EB0B0000E0002000EB0B0174
:10255000009003984944401A0390E00306D4534680
:102560002146179A039800F0A9F90544002706E0D0
:1025700001A85246C05D179990476D1C7F1C4F45BE
:10258000F6DBE0030CD553462146179A039800F07A
:1025900095F9054404E030205246179990476D1C88
:1025A0000099481E00900029F5DC08E00298029985
:1025B00052460078491C0291179990476D1CBBF157
:1025C0000001ABF1010BF1DC5BE100F065F90544C2
:1025D000761C307800287FF40DAE19B02846BDE88F
:1025E000F08F00000928010030313233343536379E
:1025F000383961626364656600000000303132334F
:1026000034353637383941424344454600000000EE
:10261000600700D4062708F1070020F00700F0E863
:102620000223804603F0004C5FEA0C0001D097A023
:1026300009E0200501D596A005E0E00701D095A0AE
:1026400001E0AFF24C001390307823F0004365288E
:102650000CD006DC452809D046281DD047287FD15C
:102660003BE0662818D067287AD136E00021112F88
:1026700001DB112000E0781CCDE9000104A90CA8C1
:10268000FFF7EEFCDDE90D010C9A4FF0000B07F1AE
:102690000109109200914EE04FF000400097CDE903
:1026A000011004A90CA8FFF7DBFCDDE90D020C9B6F
:1026B0000F994FF0000B91461093009211B9791CBD
:1026C00000EB0109B7EB090003D4C0F1FF3B07F1B0
:1026D0000109A9EB0700019042E0012F00DA012770
:1026E0000021112F01DD112000E03846CDE9000165
:1026F00004A90CA8FFF7B4FCDDE90D010C9A0091C8
:102700004FF0000BB946109221070FD4009A4A45AA
:1027100003DA914601E0A9F10109B9F1010F05DDE4
:10272000109AA9F10101515C3029F4D0B84202DAC3
:1027300010F1040F03DA0121CDE9011010E00028A7
:1027400003DC8344A9EB000102E0411C494500DDA4
:102750008946A0EB0B00401C01904FF00040029016
:10276000200705D40198484502DB4FF0FF30019067
:1027700000208DF84B0002980DF14B07B0F1004F8F
:1027800025D002200C902B200D90029800280CDA06
:10279000404202902D200D9007E00A210298FDF79B
:1027A00079FD3031029007F8011D0C99481E0C90FC
:1027B0000029F2DC02980028EFD1791E0D980870EC
:1027C000307800F0200040F0450007F8020D11A815
:1027D000C01BC01D02901398007800B1012000EBCF
:1027E0000901019801EBE071029801440398401A35
:1027F000401E0390E00306D453462146179A0398DF
:1028000000F05CF805441398007818B15246179907
:1028100090476D1CE00323D553462146179A039831
:1028200000F04CF805441BE0BBF1000F07DB0098FB
:10283000584504DD1098179910F80B0001E017991E
:1028400030205246904701980BF1010B401E05F1D4
:102850000105019004D12E205246179990476D1C16
:10286000B9F10001A9F10109DEDC05E017F8010B5F
:102870005246179990476D1C0299481E02900029F4
:10288000F4DC53462146179A03989EE62D0000007B
:102890002B000000200000002DE9F0410446002537
:1028A0001E461746880404D405E039462020B04768
:1028B0006D1C641EF9D52846BDE8F0812DE9F04174
:1028C000044600251E469046C80301D5302700E087
:1028D0002027880404D505E041463846B0476D1CE2
:1028E000641EF9D52846BDE8F0814A68002A06D062
:1028F0000A68531C0B6010704868401E486070479F
:102900000A68531C0B6010707047000010B5002857
:1029100011D0012800D10220012181F31088064C3A
:1029200060600020207080F3108800BF00F006F87F
:1029300020780128FAD110BD48000020704710B55A
:10294000FEF74AFBFFF7C2F800F04EF800F02CF853
:10295000BDE8104000F07AB810B5114886B00024E8
:10296000016841F002010160006800F0020005907A
:10297000012000F08FF80120CDE90104022003902E
:10298000C001084C009069462046FEF71FFA60150A
:10299000009069462046FEF719FA06B010BD000007
:1029A00030380240000402400D4800B5016887B08D
:1029B000002241F008010160006800F00800059065
:1029C000012000F067F80120CDE901020220039008
:1029D000C002009069460348FEF7F8F907B000BD51
:1029E00030380240000C024010B50021134A08465E
:1029F00001EB410402EB840358609860587002F8C0
:102A00002400491CC9B20429F2D30D494FF47A724B
:102A10000968B1FBF2F1491EB1F1807F09D24FF094
:102A2000E0225161074BF02183F8141D90610720CB
:102A3000106105490120487010BD0000D81D00201C
:102A40000C0000200FE000E04800002010B5FFF768
:102A5000D3F9BDE81040FEF7E1BE000005490128AA
:102A600004D0022801D10006086070474FF0807042
:102A7000FAE70000180402400549012804D00228A2
:102A800001D10002086070474FF48070FAE700003F
:102A900018040240012802D101490007086070476C
:102AA000180C024030B5C3B00020409041901B4844
:102AB000007800282BD04FF480716846FDF7BAFBF0
:102AC00000246D462919012000F0E6F8641CA4B228
:102AD000FF2CF7D912A16846FDF7B7FB002816D0E6
:102AE00011A16846FDF7B1FB040012D010A1E01D52
:102AF000FDF7ABFB68B10422A11D40A8FDF7B7FBB1
:102B00000CA0FFF73DFA40A90DA0FFF739FA43B03A
:102B100030BD0FA0FFF734FAF9E7000054000020A1
:102B20002B4D53554200000062797465730000001C
:102B300022000000CAFDBEDDCDEAD5FB0D0A000073
:102B4000CFFBCFA2CAC7A3BA25730D0A00000000AD
:102B5000CAFDBEDDB2BBCDEAD5FB0D0A0000000008
:102B60007047000000B593B0CDE90001002002904D
:102B7000CDE90302CDE9053007906846FEF719FE5E
:102B8000002804D040F2BB2102A0FEF71AF913B0CE
:102B900000BD00002E2E5C6273705C7372635C6219
:102BA00073705F756172745F6669666F2E63000093
:102BB00010B5042805D30C4A0CA112A0FFF7E0F9C8
:102BC000FEE7012282F31088164A00EB400302EB75
:102BD00083004160816000214170012002F82300E0
:102BE00081F3108810BD0000113000082E2E5C62A9
:102BF00073705C7372635C6273705F74696D65722D
:102C00002E6300004572726F723A2066696C65200F
:102C100025732C2066756E6374696F6E202573288A
:102C2000290D0A00D81D002070B50446082802D9D5
:102C30004FF0FF3070BD4FF4847000EB4410054638
:102C40001021FFF753F92846FFF732F90028FAD18F
:102C50004FF4027000EB44101F21FFF747F90C48B6
:102C60000121A14082888A430A498280002021F8FC
:102C700014000749891D08554FF4427000EB4414B5
:102C80002046FFF715F90028FAD1012070BD000099
:102C9000100000205C00002010B50C46FEF764F820
:102CA00000281FD00246012080F31088518B00209D
:102CB00080F31088002915D0138B9168C95C2170AE
:102CC000012181F31088118B491C89B21183D389AA
:102CD000994200D31083508B401E5083002080F314
:102CE0001088012010BD70B515460E46FEF73CF861
:102CF000040009D0E06900B180472A4631462046E9
:102D0000BDE87040FFF73AB870BD13B5012201A9C4
:102D1000FFF7E9FF1CBD10B50446C1B20020FFF764
:102D2000F4FF204610BD2DE9F04142F2080101EB0D
:102D3000401542F20811002601EB40142846FFF727
:102D4000B7F807462046FFF7B3F800EB0720070463
:102D50003F0C09D02846FFF7ABF806462046FFF7A0
:102D6000A7F800EB062086B2BE42E7D13046BDE8A8
:102D7000F081000008B5FFF7E2FD4FF47A71002002
:102D8000FFF716FFFDF7C2FEFFF7E6FD69460220DA
:102D9000FFF782FF0028F9D09DF80000612814D0C9
:102DA0006228F3D10120FFF767FE6420FFF7AEFD34
:102DB0000120FFF753FE9DF800100CA0FFF7E0F88C
:102DC0000CA000BF00F0C6F8E0E70220FFF754FEB9
:102DD0006420FFF79BFD0220FFF740FE9DF80010E6
:102DE00002A0FFF7CDF80BA0ECE7000025630D0A69
:102DF0000000000041542B4D5055423D226B66624D
:102E00005F746F706963222C302C302C224E4F225D
:102E10000D0A000041542B4D5055423D226B666215
:102E20005F746F706963222C302C302C2268656CC3
:102E300070220D0A000000002DE9F05F15468B4658
:102E40000646082803D94FF0FF30BDE8F09F700117
:102E500001240830FFF72CF800F00F00012801D002
:102E6000A01FF2E775B14FF4427000EB4610074621
:102E7000FFF71EF86FF0060A172806D01C2804D0AA
:102E80005046E2E76FF00D00DFE7DFF8C480B440A2
:102E9000B8F80400044213D04FF4027000EB46105F
:102EA0008146FFF705F800F01F00C10624D548460B
:102EB0001021FFF71BF8B8F80410A143A8F804107C
:102EC00041F6087000EB4610FEF7F2FF4FF6FF7177
:102ED00001EA8020854200D905463046FFF723FFEE
:102EE00081463846FEF7E4FF17280DD01C280BD08A
:102EF0003046FFF799FEC3E700070BD53046FFF7D2
:102F000093FE6FF00C00A0E7B8F80200044203D073
:102F10004D4501D9002098E74D45DED82A4659464F
:102F2000304600F02AF84FF4847000EB4610064655
:102F30002021FEF7DBFF3046FEF7BAFF0028FAD16A
:102F4000B8F8041028460C43A8F804407DE70000B8
:102F5000100000200FB4642100B599B01BAB684687
:102F60001A9AFFF731F8002804DD82B26946012081
:102F7000FFF7B9FE19B05DF814FB2DE9F0475FEAE1
:102F800002088946064626D042F2085000EB461554
:102F90002846FEF78DFF074642F2084000EB461434
:102FA0002046FEF785FF07EB002087B2380200EBD2
:102FB0004610424649461030FEF7B8FF07EB0800BE
:102FC00086B2310A2046FEF791FFF1B22846BDE8ED
:102FD000F047FEF78BBFBDE8F087007870470170BF
:102FE000704770477047704770470000000000004E
:102FF00000000102030406070809000000000102A6
:1030000003046273705F537461727454696D657206
:10301000006273705F53746172744175746F5469A8
:103020006D6572006273705F53746F7054696D6583
:103030007200000054300008000000205C00000016
:1030400040200008B03000085C0000207C3A0000FE
:1030500050200008010000001000000000000000E7
:103060000024F40000C00000000000000000000088
:1030700000000000000000000000000001025735C1
:1030800035303000E32F0008E52F0008E92F000855
:10309000E72F0008DB2F0008DF2F000800000000EA
:1030A0000000000000000000000000000000000020
:040000050800018965
:00000001FF
