:020000040800F2
:100000008877062475030008AF3900088D2F000893
:10001000AD390008D1050008796300080000000030
:10002000000000000000000000000000B102000815
:1000300025070008000000000D0300081D4000080F
:100040008F0300088F0300088F0300088F03000848
:100050008F0300088F0300088F0300088F03000838
:100060008F0300088F0300088F0300088F03000828
:100070008F0300088F0300088F0300088F03000818
:100080008F0300088F0300088F0300088F03000808
:100090008F0300088F0300088F0300088F030008F8
:1000A0008F0300088F0300088F0300088F030008E8
:1000B0008F0300088F0300088F0300088F030008D8
:1000C0008F0300088F0300088F0300088F030008C8
:1000D0008F030008216100088F0300082D610008CC
:1000E0008F0300088F030008000000008F03000842
:1000F0008F0300088F0300088F0300088F03000898
:100100008F0300088F0300088F0300088F03000887
:100110008F0300088F0300088F0300088F03000877
:100120008F0300088F0300088F0300088F03000867
:100130008F030008290700088F0300088F030008B9
:1001400000000000000000000000000000000000AF
:100150008F0300088F0300088F0300088F03000837
:100160008F0300088F0300088F0300088F03000827
:100170008F0300088F0300088F03000800000000B1
:100180008F0300088F0300088F0300088F03000807
:100190008F0300088F0300088F0300088F030008F7
:1001A000853700088F0300088F0300088F030008BD
:1001B0008F0300088F0300088F0300088F030008D7
:1001C0008F0300088F0300088F0300088F030008C7
:1001D0008F0300088F0300088F0300088F030008B7
:1001E0008F0300088F0300088F0300088F030008A7
:1001F0008F0300088F0300088F0300088F03000897
:100200008F0300088F0300088F0300088F03000886
:100210008F0300088F0300088F0300088F03000876
:100220008F0300088F0300088F0300080000000000
:100230008F0300088F030008000000008F030008F0
:100240008F0300088F0300088F0300088F03000846
:100250008F0300088F0300088F0300088F03000836
:100260008F0300088F0300088F0300088F03000826
:100270008F0300088F0300088F03000800000000B0
:100280008F0300088F0300088F03000800000000A0
:10029000000000008F030008DFF810D000F01CF908
:1002A000004800479DAE0208AFF30080887706241F
:1002B0002D4B19680868B0E8F04F80F30988BFF348
:1002C0006F8F4FF0000080F311887047000000002E
:1002D00008480068006880F308884FF0000080F349
:1002E000148862B661B6BFF34F8FBFF36F8F00DF24
:1002F00000BF00BF08ED00E0DFF80C00016841F42A
:1003000070010160704700BF88ED00E0EFF30980E5
:10031000BFF36F8F144B1A681EF0100F08BF20ED4B
:10032000108A20E9F04F106009B44FF0100072B647
:1003300080F31188BFF34F8FBFF36F8F62B632F037
:1003400097FC4FF0000080F3118809BC1968086819
:10035000B0E8F04F1EF0100F08BFB0EC108A80F329
:100360000988BFF36F8F70478C040024EFF305807A
:10037000704700000648804706480047FEE7FEE752
:10038000FEE7FEE7FEE7FEE7FEE7FEE7FEE7FEE745
:10039000F9410008990200082DE9F05F05460020A8
:1003A00092469B4688460646814640241BE02846E6
:1003B00041464746224600F07FF853465A46C01A47
:1003C000914110D311461846224600F066F82D1AC6
:1003D00067EB01084F4622460120002100F05DF83E
:1003E00017EB00094E41201EA4F10104DFDC484652
:1003F00031462A464346BDE8F09F10B5431A934262
:1004000009D28318881803E010F8011D03F8011DB4
:10041000521EF9D210BD40EA01039B0703D009E048
:1004200008C9121F08C0042AFAD203E011F8013BE0
:1004300000F8013B521EF9D210BDD2B201E000F823
:10044000012B491EFBD270470022F6E710B5134678
:100450000A4604461946FFF7F0FF204610BD421C2D
:1004600010F8011B0029FBD1801A704710B500223B
:1004700000E0521C835C8C5CA34201D1002BF8D1BC
:10048000D8B2E1B2401A10BD034611F8012B00F8B2
:10049000012B002AF9D118467047202A04DB203AA4
:1004A00000FA02F1002070479140C2F1200320FAC7
:1004B00003F3194390407047202A04DB203A21FAC5
:1004C00002F00021704721FA02F3D040C2F120026D
:1004D0009140084319467047064C074D06E0E06816
:1004E00040F0010394E8070098471034AC42F6D37B
:1004F000FFF7D6FEF43B0508143C050870B58C18D0
:1005000010F8015B15F0070301D110F8013B2A1127
:1005100006D110F8012B03E010F8016B01F8016B14
:100520005B1EF9D12B0705D40023521E0DD401F810
:10053000013BFAE710F8013BCB1A921C03E013F8D9
:10054000015B01F8015B521EF9D5A142D8D300200E
:1005500070BD00001CB50020012103464A03CDE90F
:10056000001011480DA132F0D1FE104803214FF4C4
:10057000007400232246CDE9001010480CA132F08F
:10058000C5FE0A480A2100232246001DCDE90010BD
:100590000E480BA132F0BAFE1CBD00007654617308
:1005A0006B475549000000008D2A03080000002415
:1005B000765461736B4C454400000000C92A03085F
:1005C000765461736B53746172740000752B030869
:1005D000FEE70000F0B5204E306881034FF00000C8
:1005E00011D4BFF34F8FBFF36F8F1C490860BFF367
:1005F0004F8FBFF36F8F316841F400313160BFF32B
:100600004F8FBFF36F8F3168C90324D41249703103
:100610000860BFF34F8F081F0068C0F34E310F4AC8
:1006200043F6FF771032C0F3C905284607EA4113A5
:1006300043EA80741460401E441CF9D1491E481CD2
:10064000F3D1BFF34F8F306840F480303060BFF398
:100650004F8FBFF36F8FF0BD14ED00E050EF00E05F
:1006600010B5029C5B1A241A6343101A93FBF0F036
:10067000084410BD10B5002814D0012814D0022859
:1006800014D0032814D0042814D0052814D0062828
:1006900014D0072814D04FF48E710AA000F058F837
:1006A000002010BD0E4810BD002010BD0D4810BD2B
:1006B000002010BD002010BD002010BD002010BD86
:1006C000002010BD2E2E5C4253505C7372635C623E
:1006D00073705F756172745F6669666F2E63000088
:1006E00028050024540D0024F0B5DDE90565002837
:1006F00012D002240A48094F07608563C16306646B
:10070000446362F31F434364016841F001010160E7
:100710000168C907FCD1F0BD0224EBE70002030029
:10072000001000527047000010B51020EFF3118444
:1007300072B680F31188BFF34F8FBFF36F8F62B62D
:10074000024800F027FC84F3118810BD7C66062463
:10075000002900D0FEE77047F0B50D68D1E90843E5
:10076000CA69002D18D02243046824F4F8442343B6
:100770001A430260D1E901231A43D1E90334234328
:100780001A434B6989691A430A4341686FF30E01A2
:100790000A4342600020F0BDD1E901563543D1E95A
:1007A00003673E4335434E69896935430D4301680C
:1007B000154325431D436FF30E010D430560E9E723
:1007C000426943F6FE739A4342EA410141610020C7
:1007D0007047D1E900231A438B68C9685B1E5B012F
:1007E00043EA41210A4301690A430261002070473C
:1007F00030B5CB684C695B1E641E002A20D01A03FA
:10080000836842EA04521C4C23401A4382604B68BE
:100810000A685B1E521E42EA03138A68521E43EAAC
:1008200002230A8A097E521E491E43EA024242EA14
:100830000161C26802F070421143C160002030BD06
:100840004D680A686D1E521E42EA05158A68521EDE
:1008500045EA022242EA03330A8A097E521E491EF1
:1008600043EA024242EA045242EA0161826802F02B
:10087000704211438160E1E7FF0F0FFF0248002142
:1008800081700121417070479A17002408B5012238
:100890006946A32000F008F802499DF8000008709E
:1008A00008BD00009A17002470B504460D46164690
:1008B00015F0C4FD702015F097FD15F0E9FDE0B2CC
:1008C00015F092FD15F0E4FD15F0B8FD712015F05E
:1008D0008BFD15F0DDFD0024761E06E015F060FDB1
:1008E000285515F013FD641CE4B2B442F6DB15F094
:1008F00057FD285515F040FDBDE8704015F0B4BD1A
:100900002DE9F0418AB0494E707800285DD0B0786A
:100910000A285AD30024B47003F028FE444FE0B3F1
:100920007C702122002001A9FFF7BEFF9DF8060080
:1009300000F00700F070052801D90520F070F47070
:1009400000200DF1040C00EB40010CEB41014B7950
:100950001A090F2A1AD2F478641CF470CC780D7935
:1009600004F00F0845EA082806EB4005A5F80480C6
:1009700003F00F03897941EA0321E981A3093118C2
:100980004B770A76401CC0B20528DCD330784FF490
:10099000F072511E55282CD000E019E00A2840F2D0
:1009A0001F334FF4487C2FD0B488F589644500D3B9
:1009B0001C46954200D30D46387870B302202A4673
:1009C000214603F0EFFD7C80BD800AB0BDE8F081D8
:1009D00038780128F9D17878401CC0B278700228A4
:1009E000F3D97C703C700320BA88798803F0DAFD73
:1009F000EBE7F489B588944200D30C46B5F5887FBF
:100A0000DAD340F20F15D7E7B488F589644500D3EF
:100A10001C469542D0D30D46CEE7FFE70120387043
:100A20002A46214603F0BEFDCDE700009A170024B8
:100A30004200002402488178491C81707047000000
:100A40009A17002438B5104C002565706A220F49AA
:100A500040F2A26000F01EF9A17840F2DD60BA29F0
:100A60000AD00BA1096800910422694600F012F92E
:100A700065700120207038BD06A10968009104222C
:100A8000694600F007F9F3E7BC1700244E00002484
:100A900058020004E00120032DE9F04104460D4610
:100AA000164615F0CBFC174FB87815F09DFC15F0E5
:100AB000EFFC200A15F098FC15F0EAFCE0B215F006
:100AC00093FC15F0E5FC15F0B9FCB878401CC0B2F9
:100AD00015F08AFC15F0DCFC0024761E06E015F00B
:100AE0005FFC285515F012FC641CE4B2B442F6DB3E
:100AF00015F056FC285515F03FFCBDE8F04115F007
:100B0000B3BC0000BC17002470B58CB05B4C2078DF
:100B100000287CD06078142879D3002565700122E4
:100B2000694640F22170FFF7B7FF9DF80000544E70
:100B3000C0076DD0212240F222700DF10101FFF7B4
:100B4000ABFF9DF80000E0709DF8010020719DF85A
:100B500002109DF8030000EB012080B2E0809DF8B8
:100B600004209DF8051001EB02218DB225819DF82E
:100B70000610A1729DF807209DF8081001EB0221D4
:100B8000A1819DF809209DF80A1001EB0221E18165
:100B90009DF80B1021749DF80C209DF80D1001EBB1
:100BA000022161829DF80E209DF80F1001EB0221B9
:100BB000A1829DF81010A1759DF811209DF81810C4
:100BC00001EB022121839DF819209DF81A1001EBF9
:100BD000022161839DF81B1021779DF81C209DF850
:100BE0001D1001EB0221E1839DF81E209DF81F10CE
:100BF00001EB022121849DF8201084F82210A178B5
:100C0000BA2925D0A0F25720404284B201E013E077
:100C100014E04FF48060854200D905464FF4167009
:100C2000844200D90446307808B30220224629467F
:100C300003F0B8FC7580B4800CB070BD307801282A
:100C4000FAD135700320B288718803F0ABFCF3E76A
:100C5000A0F2DF10404284B24FF44870854200D9C0
:100C600005464FF4F0708442DDD90446DBE70120ED
:100C700030702246294603F095FCDBE7BC170024C0
:100C80004800002402484178491C41707047000028
:100C9000BC17002470B504460D46164615F0CEFB71
:100CA0000F48807815F0A0FB15F0F2FB200A15F034
:100CB0009BFB15F0EDFBE0B215F096FB15F0E8FBA1
:100CC000002406E0285D15F08FFB15F0E1FB641CA5
:100CD000E4B2B442F6D3BDE8704015F0C5BB0000E5
:100CE000BC17002470B5054C00256570322009F052
:100CF00053F865700120207070BD0000E0170024DB
:100D000008B50422694648F2401000F027F89DF823
:100D100003109DF800009DF8012000EB01609DF894
:100D20000210090401EB0221084408BD38B504464D
:100D30000D460422694648F2480000F00FF89DF87D
:100D400001309DF8002002EB032222809DF8031061
:100D50009DF8020000EB0120288038BD2DE9F0410C
:100D600004460D46164615F069FB194FB87815F084
:100D70003BFB15F08DFB200A15F036FB15F088FBC8
:100D8000E0B215F031FB15F083FB15F057FBB87896
:100D9000401CC0B215F028FB15F07AFB0020401C67
:100DA000C0B21E28FBD30024761E06E015F0F8FA28
:100DB000285515F0ABFA641CE4B2B442F6DB15F02A
:100DC000EFFA285515F0D8FABDE8F04115F04CBB04
:100DD000E0170024F0B58DB000240094344E307834
:100DE000002849D070780A2846D3747048F24E150E
:100DF0000122284601A9FFF7B1FF9DF804102D4FED
:100E0000E1B37C70082201A92846FFF7A7FF012261
:100E10006946284600F058F89DF80400F0709DF8E7
:100E2000050030719DF807009DF8061001EB0020C9
:100E300084B2F4809DF809109DF8080000EB0120B1
:100E400085B235819DF80B109DF80A0000EB01205A
:100E50007081B4F5487F01D340F21F34B5F5F07FBF
:100E600001D340F2DF153878D0B102202A4621465E
:100E700003F098FB7C80BD800DB0F0BDFFE73878B3
:100E80000128F9D17878401CC0B278700128F3D9D4
:100E90007C703C700320BA88798803F083FBEBE711
:100EA000012038702A46214603F07CFBE2E700006F
:100EB000E0170024B800002402484178491C417022
:100EC00070470000E017002470B504460D46164632
:100ED00015F0B4FA0F48807815F086FA15F0D8FAB4
:100EE000200A15F081FA15F0D3FAE0B215F07CFA79
:100EF00015F0CEFA002406E0285D15F075FA15F01D
:100F0000C7FA641CE4B2B442F6D3BDE8704015F0F1
:100F1000ABBA0000E017002470B50446002C04D0E2
:100F200094F85900002510B106E0012070BD84F846
:100F30005850204600F029F8022084F85900206813
:100F40000168626821F44031114301602068416BFF
:100F5000A26821F00701114341632068016CE26837
:100F60006FF30D0111430164208AA18A000540EA54
:100F700041512068426B22F4401211434163E56500
:100F8000012084F85900002070BD704708F004BFAC
:100F90007047704770B50446206800F58050D0F85F
:100FA000601149060DD5D0F83401400609D5204618
:100FB00000F086F8206848F2400100F58050C0F843
:100FC0006011206800F58050D0F86011C9070DD07D
:100FD000D0F83401C00709D0204600F08DF8206811
:100FE00048F2010100F58050C0F86011206800F55A
:100FF0008050D0F860114FF0E006490424D5D0F8B5
:101000003411490420D5E16D41F00801E165D0F8C3
:101010006011C9040CD500F59A70C16A41F2021240
:1010200011402166016821F440410160666508E0D5
:10103000D0F8601101F4CD4121664FF4CD41C0F8E4
:1010400060112046FFF7A4FF2068D0F8B0100025FB
:10105000C1F34131032907D1D0F8B8006066666555
:10106000204600F02BF865662068D0F8B010C9065D
:1010700008D5D0F8C00000F06000A066204600F05F
:101080001EF8A5662068D0F8B010890608D5D0F8FB
:10109000C00000F00F00E0662046FFF77AFFE5662B
:1010A0004FF0B040D0F8A810490206D54FF48001A7
:1010B000C0F8A810204600F02FF870BD70477047A8
:1010C00008B5022009F030FA00200090084869466F
:1010D000006831F0B5FF0098002807D005494FF0AF
:1010E00080500860BFF34F8FBFF36F8F08BD0000C3
:1010F0001405002404ED00E001A005F05BB9000038
:1011000048414C5F4554485F547843706C74436168
:101110006C6C6261636B0A007047000002480168F2
:1011200041F0010101607047200400582DE9F84F9B
:1011300000226E4C4FF0B0494FF0010A4FF0030E01
:101140004FF00F08CAE00AFA02F73B40002B70D0BC
:101150004D68022D01D0122D12D1D50800EB850C5F
:10116000DCF820605507ED0E08FA05FB26EA0B06B1
:10117000D1F810B00BFA05FB4BEA060BCCF820B007
:10118000D0F800C055000EFA05F62CEA060C91F8CE
:1011900004B00BF0030B0BFA05FB4BEA0C0BC0F889
:1011A00000B0D1F804C0BCF1010F08D0BCF1020FAF
:1011B00005D0BCF1110F02D0BCF1120F16D1D0F83E
:1011C00008C02CEA060CD1F80CB00BFA05FB4BEA70
:1011D0000C0BC0F808B0D0F804C02CEA070C0F794B
:1011E000C7F30017974047EA0C074760C768B74343
:1011F0008E68AE403E43C6604D68ED006DD53C4DF7
:101200002E6846F002062E602D6805F00205009556
:1012100022F0030606F1B046D6F808C495072F0F52
:1012200008FA07F52CEA050C324DA84202D1002538
:101230002EE052E0304DA84201D1012528E02F4D8B
:10124000A84201D1022523E02D4DA84201D103255A
:101250001EE02C4DA84201D1042519E02A4DA842D8
:1012600001D1052514E0294DA84201D106250FE042
:10127000274DA84201D107250AE0264DA84201D1F9
:10128000082505E0244DA84201D1092500E00A25E2
:10129000BD4045EA0C05C6F8085425689D434E68D4
:1012A000F60300D51D43256065689D434E68B6036F
:1012B00000D51D436560D9F800509D434E68F60285
:1012C00000D51D43C9F80050D9F804509D434E681D
:1012D000B60200D51D43C9F80450521C0B6833FAFE
:1012E00002F57FF430AFBDE8F88F000080000058B1
:1012F000F444025800000258000402580008025842
:10130000000C02580010025800140258001802582D
:10131000001C02580020025800240258426931EA99
:10132000020201D081617047090481617047002A7F
:1013300001D08161704709048161704701480068EC
:10134000000C70470010005C014880687047000086
:101350000800002410B5032000F0AAF901F0C4F938
:101360000E4A1168C1F303230D49CB5C03F01F0340
:10137000D8400C4B1860126802F00F02895C01F033
:101380001F01C840084908600F2000F00FF808B19D
:10139000012010BD00F050F9002010BD1844025883
:1013A000FE380308140000241800002400207047B1
:1013B0002DE9F04104460F46154694F8A000012897
:1013C0001ED0012684F8A060022084F8A10005EB5D
:1013D0008500394600EBC500342204EB800038302C
:1013E000FFF70BF82A463946204602F0D5F9206867
:1013F000466284F8A160002084F8A000BDE8F08176
:101400000220FBE770B50446002C04D094F8A1003C
:10141000002510B106E0012070BD84F8A0502046E0
:1014200000F06AF8022084F8A1002068816921F0A8
:1014300070418161D4E901100143D4E903021043F2
:1014400001432068826911438161206882682949CB
:101450000A408260A08A020420688368A669334338
:10146000134383602068C2680A40C260A08B0204F4
:101470002068C368266A33431343C3602068026947
:101480000A400261A08C020420680369A66A334303
:1014900013430361206842690A404261A08D010440
:1014A00020684269236B1A430A43426194F835006D
:1014B000020294F8360001042068C36A03F07F43F7
:1014C000C3622068C36A114394F8346033430B430A
:1014D000C3622068416B41F0060141632068816965
:1014E00041F001018161C4F8A450012084F8A100F9
:1014F000002070BD00F800F0704770B50446084643
:1015000016461A4694F8A01001291FD0012584F828
:10151000A050022184F8A11002EB820101EBC2016C
:1015200004EB8101383108608B6A184448608E6092
:10153000C86A3044C860204602F02EF9206845622F
:1015400084F8A150002084F8A00070BD022070BD76
:1015500070B50446084615461A4694F8A0100129AD
:101560001CD0012684F8A060022184F8A11002EBAF
:10157000820101EBC20104EB810138310B680344A5
:101580004B608B682B44CB608862CD62204602F0B2
:1015900003F9A03466700020207070BD022070BD79
:1015A000144A41781160111D03780A1D002B1CD0CC
:1015B00043680B60017BC37A090741EA0361837AC0
:1015C00041EAC341437B41EA8341837B41EA434192
:1015D000C37B41EA0341437A41EA0321037A00785D
:1015E00041EA430101431160704700200860106028
:1015F0007047000098ED00E0BFF35F8F044801687A
:1016000021F4803101600249002070310860704788
:1016100024ED00E0074940F00100086005487038FB
:10162000016841F480310160BFF34F8FBFF36F8FCA
:101630007047000094ED00E008B50548016841F0EE
:1016400002010160006800F00200009008BD000087
:10165000F4440258002809DB012100F01F029140E8
:101660004009800000F1E020C0F800117047000040
:10167000F0B40D460D4B1B68C3F30223C3F10704FE
:10168000042C00D90424191D072901D2002300E0ED
:10169000DB1E012606FA04F1491E294099409E40AE
:1016A000761E16403143F0BC04F094BE0CED00E011
:1016B00000F00701054A10684FF6FF03184040EAA2
:1016C0000120034908431060704700000CED00E062
:1016D0000000FA0570B512490A68520706D40A6874
:1016E00002F00702824201D0012070BD0A6822F098
:1016F000070202430A60FFF727FE0446084D4FF435
:101700007A76083D06E0FFF71FFE001BB04201D9C4
:10171000032070BD28688004F5D5002070BD00004E
:101720000C48025810B500F0DFFF06490968064A68
:10173000C1F30321515C01F01F01C8400349086057
:1017400010BD000018440258FE380308140000249D
:1017500010B500F08FFF05490968054AC1F3021171
:10176000515C01F01F01C84010BD00002044025828
:10177000FE38030810B569490A6802F003020968D7
:10178000C1F30531654B1B1D1B6803F01003634C4F
:1017900014342468C4F3CC0414FB03F300EE103AB1
:1017A000B8EE400A002971D09FED5D1A5B4BF7EE51
:1017B000000A1033F2B39FED5B2A012A7FD0022A80
:1017C0007CD001EE901A1968F8EE611AC2EE212A57
:1017D000C1F3080101EE901AF8EE611A40EE011A09
:1017E00031EEA00A22EE800A1968C1F3462101EE0B
:1017F000101AB8EE411A31EE201AC0EE011ABCEEF2
:10180000E11A80ED001A1968C1F3064101EE101AC1
:10181000B8EE411A31EE201AC0EE011ABCEEE11A00
:1018200080ED011A1968C1F3066101EE101AB8EED5
:10183000411A00E008E071EE200A80EE201ABCEEAA
:10184000C10A80ED020A10BD344A283A1468A40681
:101850001ED51268C2F3C104334AE24001EE902A59
:10186000F8EE612A01EE901A1968F8EE611A82EE1C
:10187000A12AC1F3080101EE901AF8EE611A40EEB8
:10188000011A31EEA00A22EE000AADE741E016E0AF
:1018900001EE901ADFED252A1968F8EE611A82EE42
:1018A000A12AC1F3080101EE901AF8EE611A40EE88
:1018B000011A31EEA00A22EE000A95E713E001EECC
:1018C000901A1968F8EE611AC2EE212AC1F30801D4
:1018D00001EE901AF8EE611A40EE011A31EEA00AFC
:1018E00022EE800A80E701EE901ADFED112A1968D6
:1018F000F8EE611A82EEA12AC1F3080101EE901AF6
:10190000F8EE611A40EE011A31EEA00A22EE000A4A
:101910006AE7002101604160816010BD28440258DF
:10192000000000390024744A0090D0030024744C55
:1019300020BCBE4B10B569490A6802F00302096871
:10194000C1F30551654B1B1D1B6803F48073634C89
:101950001C342468C4F3CC0414FB03F300EE103AE7
:10196000B8EE400A002971D09FED5D1A5B4BF7EE8F
:10197000000A1833F2B39FED5B2A012A7FD0022AB6
:101980007CD001EE901A1968F8EE611AC2EE212A95
:10199000C1F3080101EE901AF8EE611A40EE011A47
:1019A00031EEA00A22EE800A1968C1F3462101EE49
:1019B000101AB8EE411A31EE201AC0EE011ABCEE30
:1019C000E11A80ED001A1968C1F3064101EE101A00
:1019D000B8EE411A31EE201AC0EE011ABCEEE11A3F
:1019E00080ED011A1968C1F3066101EE101AB8EE14
:1019F000411A00E008E071EE200A80EE201ABCEEE9
:101A0000C10A80ED020A10BD344A283A1468A406BF
:101A10001ED51268C2F3C104334AE24001EE902A97
:101A2000F8EE612A01EE901A1968F8EE611A82EE5A
:101A3000A12AC1F3080101EE901AF8EE611A40EEF6
:101A4000011A31EEA00A22EE000AADE741E016E0ED
:101A500001EE901ADFED252A1968F8EE611A82EE80
:101A6000A12AC1F3080101EE901AF8EE611A40EEC6
:101A7000011A31EEA00A22EE000A95E713E001EE0A
:101A8000901A1968F8EE611AC2EE212AC1F3080112
:101A900001EE901AF8EE611A40EE011A31EEA00A3A
:101AA00022EE800A80E701EE901ADFED112A196814
:101AB000F8EE611A82EEA12AC1F3080101EE901A34
:101AC000F8EE611A40EE011A31EEA00A22EE000A89
:101AD0006AE7002101604160816010BD284402581E
:101AE000000000390024744A0090D0030024744C94
:101AF00020BCBE4B2DE9F84F044600250026FB4FC5
:101B00002068DFF8EC83010104F1240000900DD57A
:101B1000606EB0B1B0F5801F18D0B0F5001F1BD0BB
:101B2000B0F5401F00D00125E5B12E462088C00544
:101B300035D5606D05282FD2DFE800F01D22282F53
:101B40002F00386840F400303860EDE70221201D96
:101B500001F02EFF0546E7E70098022101F0BAFFE9
:101B60000546E1E7D8F80000616E20F44010084314
:101B7000C8F80000DAE7386840F4003038600CE05C
:101B80000021201D01F014FF054606E00098002109
:101B900001F0A0FF054600E001255DB12E4620883A
:101BA000800518D5A06D802830D00CDC18B34028F3
:101BB0000ED125E0D8F80000616D20F00700084341
:101BC000C8F80000EBE7C02803D0B0F5807F00D054
:101BD00001250DB32E462088DFF8189340052DD53A
:101BE000D4F8A400B0F5800F42D01EDCA0B3B0F54D
:101BF000001F20D136E0386840F400303860E8E754
:101C00000021201D01F0D4FE0546E2E700980021E6
:101C100001F060FF0546DCE7D8F80000A16D20F474
:101C2000E0700843C8F80000D5E7B0F5C00F03D056
:101C3000B0F5000F00D0012505B32E462088000521
:101C40002FD5D4F8A800B0F1007F52D020DCE8B343
:101C5000B0F1807F22D146E0FFE7386840F40030E1
:101C60003860E9E70021201D01F0A2FE0546E3E708
:101C70000098002101F02EFF0546DDE7D9F80000AD
:101C8000D4F8A41020F460000843C9F80000D5E798
:101C9000B0F1407F03D0B0F1806F00D0012575B363
:101CA0002E46206880010AD5A06C30B1102831D0B2
:101CB000202835D0302800D0012585B32E46208835
:101CC000C00446D5E06DB0F5005F00E006E05BD0F3
:101CD00036DCA0B3B0F5805F38D14FE0386840F40F
:101CE00000303860DBE70021201D01F061FE054671
:101CF000D5E70098002101F0EDFE0546CFE7FFE7AC
:101D0000D9F80000D4F8A81020F0E0600843C9F822
:101D10000000C6E7386840F400303860CDE705E0E1
:101D20000221201D01F044FE0546C6E77048001F51
:101D30000168A26C21F0300111430160BFE718E097
:101D4000B0F5405F03D0B0F5804F00D001250DB352
:101D50002E46208880042FD5206EB0F5403F29D034
:101D600021DC38B3B0F5803F37D0B0F5003F20D14B
:101D700039E0386840F400303860E8E70021201D81
:101D800001F016FE0546E2E70098002101F0A2FEF0
:101D90000546DCE7D8F80000E16D20F4E040084398
:101DA000C8F80000D5E7B0F5802F03D0B0F5A02F1C
:101DB00000D00125EDB12E46208840042BD5D4F863
:101DC000AC00B0F1405F24D01CDC10B3B0F1805FF8
:101DD0004BD0B0F1005F1BD14EE00121201D01F07E
:101DE000E7FD0546E6E70098012101F073FE054690
:101DF000E0E7D8F80000216E20F4E0200843C8F89E
:101E00000000D9E7B0F1804F03D0B0F1A04F00D06F
:101E1000012585B32E46208800040AD5E06E30B136
:101E2000B0F1805F39D0B0F1005F3BD001259DB3A8
:101E30002E462068C0010AD5606C30B1012841D01F
:101E4000022844D0032800D001258DB32E462068F7
:101E5000DFF8A4B0400261D52848016841F48071E0
:101E60000160FFF771FA824652E00121201D01F066
:101E70009FFD0546CDE705E00098012101F02AFE0F
:101E80000546C6E7D9F80000D4F8AC1020F0E040D1
:101E90000843C9F80000BEE70BE0386840F40030A2
:101EA0003860C4E70121201D01F082FD0546BEE730
:101EB00013E0D8F80000E16E20F040500843C8F865
:101EC0000000B6E7386840F400303860BDE7022112
:101ED000201D01F06DFD0546B7E70548001F0168AC
:101EE000626C21F0030111430160B0E72C440258F9
:101EF00050440258584402581044025800480258AE
:101F0000FFF722FAA0EB0A00642801D9032503E0B9
:101F1000FE480068C005F3D57DB12E462078DFF875
:101F2000F0A3C00766D0A06F182861D05BDC80B337
:101F300008286AD010285AD16DE0F5481C30006896
:101F400000F44071B4F8B00000F4407081420DD04C
:101F5000EF481C30016821F44071026842F480327D
:101F60000260026822F4803202600160D4F8B0009E
:101F7000B0F5807F13D1FFF7E7F982460AE0FFF75B
:101F8000E3F9A0EB0A0141F28830814202D903252E
:101F900005E02DE0DE481C3000688007EFD50DB16C
:101FA0002E46BBE7D4F8B000C0F3012103290FD0BF
:101FB000DBF8000020F47C50CBF80000D4481C3043
:101FC0000168B4F8B020C2F30B0211430160A5E729
:101FD000DBF80010CF4A21F47C51104041EA101088
:101FE000CBF80000EAE7202802D0282800D00125FD
:101FF000BDB12E46207880072BD5606F062825D2EC
:10200000DFE800F025181E2525250121201D01F0FF
:10201000CFFC0546ECE70098012101F05BFD054689
:10202000E6E7DAF80000A16F20F038000843CAF8AC
:102030000000DFE70121201D01F0BAFC054606E0A3
:102040000098012101F046FD054600E0012565B13B
:102050002E462078400720D5D4F89000062819D2C3
:10206000DFE800F0190C12191919DAF80000616F95
:1020700020F007000843CAF80000EAE70121201D0C
:1020800001F096FC054606E00098012101F022FDD2
:10209000054600E001258DB12E462078800620D52A
:1020A000D4F88C00B0F1405F19D011DCB8B1B0F1B8
:1020B000805F27D0B0F1005F10D129E0D9F800008F
:1020C000D4F8901020F007000843C9F80000E4E7B6
:1020D000B0F1804F03D0B0F1A04F00D00125EDB199
:1020E0002E46207840062CD5D4F89800B0F5406FE5
:1020F00025D01DDC18B3B0F5806F33D0B0F5006F7C
:102100001CD135E00021201D01F052FC0546E6E718
:102110000098022101F0DEFC0546E0E7DAF8000055
:10212000D4F88C1020F0E0400843CAF80000D8E74B
:10213000B0F5805F03D0B0F5A05F00D00125EDB110
:102140002E46207800062CD5D4F89C00B0F5C04F60
:1021500025D01DDC18B3B0F5005F7CD0B0F5804F02
:102160001CD1E0E00021201D01F022FC0546E6E73D
:102170000098022101F0AEFC0546E0E7D9F8000026
:10218000D4F8981020F4E0500843C9F80000D8E7CC
:10219000B0F5004F03D0B0F5204F00D00125EDB3CE
:1021A0002E46207800070BD5D4F88000B0F5805F6C
:1021B00075D0DAF8001021F440510143CAF800103C
:1021C0002078C0060BD5D4F89400B0F5807F68D095
:1021D000D9F8001021F440710143C9F800102068BB
:1021E00000030BD5D4F8A000B0B3B0F5803F7DD08C
:1021F000B0F5003F00D001257DB32E462068400396
:102200000FD5D4F88400B0F5801F71D0B0F5001F51
:102210006FD0B0F5401F00D0012500E089E0E5B3A4
:102220002E462068C00307D5E06CB8B3B0F5803FF8
:1022300072D00125A5B32E462068800005D50098F0
:10224000022101F047FC00B101262068800311D56E
:10225000E06F68B102E060E089E094E0B0F5807F73
:1022600071D0B0F5007F03D0B0F5407F00D00125DC
:10227000EDB32E462068C00207D5D8F80000216FC4
:1022800020F000400843C8F800002068C0000ED5C8
:10229000DBF8000020F4804004E089E092E053E0A5
:1022A0009BE05AE0D4F8B4100843CBF80000206853
:1022B000800207D5D8F80000A16E20F08070084396
:1022C000C8F80000206840000CD5DBF8000020F4BE
:1022D0000040CBF80000DBF80000D4F8B810084349
:1022E000CBF80000206800280CDA03E045E081E02C
:1022F00053E057E0064808380168226D21F040514C
:102300001143016096B30120BDE8F88F00480258E0
:1023100054440258FFFCFF0F59E00021201D01F03A
:1023200047FB05463BE70098022101F0D3FB054639
:1023300035E7D9F80000D4F89C1020F46040084339
:10234000C9F800002DE750E00098022101F0C2FB1F
:1023500000283FF435AF012632E70098022101F052
:10236000B9FB00283FF43BAF012638E74BE00021E2
:10237000201D01F01DFB05463EE70098022101F0FB
:10238000A9FB054638E7D9F80000D4F8A01020F4DE
:1023900040300843C9F8000030E7386840F40030A6
:1023A00038603AE70098012101F094FB054634E7D4
:1023B000DAF80000D4F8841020F440100843CAF87A
:1023C00000002EE7386840F40030386032E7022120
:1023D000201D01F0EDFA05462CE70C480168E26C7F
:1023E00021F480311143016026E7386840F4003061
:1023F00038603DE7DAF80000E16F20F440700843F0
:10240000CAF8000036E700207EE700004C4402587E
:102410002DE9F05F04460D46002C17D0DFF8388216
:10242000D8F8000000F00F00A84211D2D8F8000040
:1024300020F00F002843C8F80000D8F8000000F092
:102440000F00A84204D00120BDE8F09F0120FBE767
:102450002078824E40070AD52069316801F070016A
:10246000884204D9316821F070010143316020783D
:102470007B4F00070AD56069396801F07001884216
:1024800004D9396821F07001014339602078C00611
:102490000AD5A069396801F4E061884204D9396835
:1024A00021F4E061014339602078DFF8B8918006BB
:1024B0000DD5E069D9F8001001F07001884206D905
:1024C000D9F8001021F070010143C9F800102078FC
:1024D00080070AD5E068316801F00F01884204D90D
:1024E000316821F00F01014331602078C00743D0EB
:1024F0003068A16820F47060084330605749606814
:102500001839022808D003280BD001280ED00968FA
:10251000490710D4012097E7096889030BD40120EB
:1025200092E70968890106D401208DE70968C90589
:1025300001D4012088E7DFF824A1AAF1080ADAF81B
:10254000001021F007010143CAF80010FEF7FCFE5D
:10255000834609E0FEF7F8FEA0EB0B0141F288305C
:10256000814201D903206FE7DAF80000616800F0CA
:102570003800B0EBC10FEDD1207880070AD5E068B4
:10258000316801F00F01884204D2316821F00F0157
:1025900001433160D8F8000000F00F00A8420ED9C6
:1025A000D8F8000020F00F002843C8F80000D8F841
:1025B000000000F00F00A84201D0012044E720787D
:1025C00040070AD52069316801F07001884204D2C1
:1025D000316821F0700101433160207800070AD58D
:1025E0006069396801F07001884204D2396821F0CD
:1025F0007001014339602078C0060AD5A0693968A6
:1026000001F4E061884204D2396821F4E0610143B9
:102610003960207880060DD5E069D9F8001001F006
:102620007001884206D2D9F8001021F070010143F0
:10263000C9F8001000F058F831680B4AC1F30321C3
:10264000515C01F01F01C840084908600848006853
:10265000BDE8F05FFEF7AABE002000521844025801
:102660001C44025820440258FE3803081400002479
:102670000C00002410B5FFF755F806490968064A12
:1026800001F00F01515C01F01F01C84003490860CF
:1026900010BD000018440258FE380308180000243A
:1026A00010B5FFF7E7FF05490968054AC1F30211B4
:1026B000515C01F01F01C84010BD00001C440258CD
:1026C000FE38030810B5FFF7D5FF05490968054A2C
:1026D000C1F30221515C01F01F01C84010BD000090
:1026E0001C440258FE38030830B564480068654C45
:1026F00010F03801624808D0021108290DD01029C5
:102700000DD018290DD0104630BD21688906FBD5A3
:102710002168C1F3C101C84030BD104630BD5A48E0
:1027200030BD564918310A6802F003020968C1F346
:102730000511524B1C331B6803F001034F4D243528
:102740002D68C5F3CC0515FB03F300EE103AB8EE87
:10275000400A002977D0DFED4D0A484BB7EE001A4A
:1027600020333AB39FED4A2A012A58D0022A6CD06E
:1027700001EE901A1868F8EE611AC2EE212AC0F331
:10278000080001EE900AF8EE611A40EE201A31EED0
:10279000810A22EE800A1868C0F34620401C00EE31
:1027A000900AF8EE600A80EE201ABCEEC10A10EE24
:1027B000100A30BD226892061BD52268C2F3C102FE
:1027C000D04001EE900A1868F8EE612A01EE901AE6
:1027D000F8EE611A82EEA12AC0F3080001EE900A19
:1027E000F8EE611A40EE201A31EE810A22EE000A5C
:1027F000D1E701EE901ADFED272A1868F8EE611A8A
:1028000082EEA12AC0F3080001EE900AF8EE611AE8
:1028100040EE201A31EE810A22EE000ABBE701EEFB
:10282000901A1868F8EE611AC2EE212AC0F3080067
:1028300001EE900AF8EE611A40EE201A31EE810A9C
:1028400022EE800AA7E716E0FFE701EE901ADFED1F
:10285000122A1868F8EE611A82EEA12AC0F3080065
:1028600001EE900AF8EE611A40EE201A31EE810A6C
:1028700022EE000A8FE7002030BD0000104402580D
:102880000090D0030044025840787D0100000039D8
:102890000024744A0024744C20BCBE4B2DE9F05F28
:1028A0000446002C10D02078DFF8EC83FB4FFC4D61
:1028B000C0075DD0D8F8000000F038003968102853
:1028C0001FD0182803D006E00120BDE8F09F01F0DA
:1028D0000300022815D06068B0F5803F18D0E0B141
:1028E000B0F5A02F22D0286820F480302860286816
:1028F00020F480202860606860B3FEF725FD06465E
:1029000024E02868800333D5606810BB0120DCE731
:10291000286840F480302860EDE7286820F4803093
:102920002860286820F480202860E4E7286840F4C4
:1029300080202860286840F480302860DBE7FEF7BC
:1029400003FD801B642801D90320BEE728688003AB
:10295000F5D50DE0FEF7F8FC064606E0FEF7F4FCC0
:10296000801B642801D90320AFE728688003F5D4D1
:10297000207841F2030ACB4E800777D5D8F80000C3
:1029800000F03800396870B1182801D188070AD0E2
:10299000E06880B3296821F0190101432960FEF73E
:1029A000D3FC814638E02868400701D5E06848B18B
:1029B0002868E16820F0190008432860FEF7C4FC8D
:1029C000814609E0012080E7FEF7BEFCA0EB09008C
:1029D000022801D9032078E728684007F4D5FEF7DC
:1029E000ADFC504508D83068216920F47C3040EABD
:1029F000013030603AE026E03068217C20F0FE4073
:102A000040EA0160306031E0FEF79EFCA0EB090077
:102A1000022801D9032058E728684007F4D5FEF7BB
:102A20008DFC504507D83068216920F47C3040EA9D
:102A3000013030601AE03068217C20F0FE4040EA2E
:102A40000160306012E0286820F001002860FEF785
:102A50007BFC814607E0FEF777FCA0EB090002282B
:102A600001D9032031E728684007F4D42078C00654
:102A700070D5D8F8000000F038003968DFF818B2D7
:102A80000828ABF1040B0FD0182803D101F0030084
:102A9000012809D0E06978B3286840F080002860F8
:102AA000FEF752FC814628E02868C00504D5E0699D
:102AB000802801D0012008E7FEF740FC504508D8E7
:102AC000306894F8201020F0F84040EA81603060CF
:102AD00040E0DBF8000094F8201020F07C5040EA41
:102AE0000160CBF8000035E0FEF72EFCA0EB0900FA
:102AF000022802D90320E8E61AE02868C005F3D5C9
:102B0000FEF71CFC504508D8306894F8201020F0DF
:102B1000F84040EA816030601CE0DBF8000094F887
:102B2000201020F07C5040EA0160CBF8000011E05A
:102B3000286820F080002860FEF706FC064606E0C4
:102B4000FEF702FC801B022801D90320BDE628689D
:102B5000C005F5D4207800072AD5504E60694C3660
:102B600098B1306840F001003060FEF7EDFB81461F
:102B700007E0FEF7E9FBA0EB0900022801D90320DA
:102B8000A3E630688007F4D512E0306820F0010039
:102B90003060FEF7D9FB814607E0FEF7D5FBA0EBDE
:102BA0000900022801D903208FE630688007F4D499
:102BB0002078800626D5A06990B1286840F480501E
:102BC0002860FEF7C1FB064606E0FEF7BDFB801B52
:102BD000022801D9032078E628688004F5D511E0A1
:102BE000286820F480502860FEF7AEFB064606E019
:102BF000FEF7AAFB801B022801D9032065E628689E
:102C00008004F5D42078400778D5274E306840F40A
:102C100080703060FEF798FB814607E0FEF794FB7A
:102C2000A0EB0900642801D903204EE63068C005F6
:102C3000F4D5DFF86890A06809F14809012816D09A
:102C4000E0B1052832D0D9F8000020F00100C9F821
:102C50000000D9F8000020F00400C9F80000A068C6
:102C600041F2883AB8B1FEF76FFB064632E0D9F878
:102C7000000040F00100C9F80000F0E7D9F80000BA
:102C800020F00100C9F80000D9F8000020F004008D
:102C9000C9F80000E3E722E0104402582844025833
:102CA000004402580444025800480258D9F8000071
:102CB00040F00400C9F80000D9F8000040F001001D
:102CC000C9F80000CBE7FEF73FFB801B504501D958
:102CD0000320FAE5D9F800008007F4D50EE0FEF7EE
:102CE00033FB064606E0FEF72FFB801B504501D95B
:102CF0000320EAE5D9F800008007F4D4606AE8B35D
:102D0000D8F80010C1F3C201032975D0022807D0FA
:102D1000286820F080702860FEF716FB04467EE0ED
:102D2000286820F080702860FEF70EFB064606E05B
:102D3000FEF70AFB801B022801D90320C5E528689D
:102D40008001F5D4386840F2F3318843E16A40EA03
:102D50000110A16A08433860208E4FF6FF72616B44
:102D6000401E491EC0F3080002EA41210843218F9A
:102D70004FF4FE02491E02EA014100E052E008431E
:102D800094F83C10491E120202EA016108432749E7
:102D90000860081F016821F0010101602349091D35
:102DA0000A684FF6F8739A43A36C42EAC3020A60BA
:102DB0000168226C21F00C01114301600168626C12
:102DC00021F0020111430160016841F4803101608A
:102DD000016841F400310160016841F48021016023
:102DE000016841F001010160286840F080702860AE
:102DF000FEF7AAFA044607E016E0FEF7A5FA001B64
:102E0000022801D9032060E528688001F5D509E092
:102E1000FEF79AFA001B022801D9032055E528681D
:102E20008001F5D4002050E501204EE530440258E1
:102E30004FF0E020016941F002010161704700009C
:102E400070B504460D46002C03D094F82C0010B148
:102E500007E0012070BD002084F82D00204600F01E
:102E600019F8022084F82C002068211DFDF774FC5D
:102E7000D4E900022946FDF7BBFC0548016841F092
:102E800000410160012084F82C00002070BD00008A
:102E900000400052704710B5044694F82C000228F8
:102EA00005D094F82C00012803D0012010BD022089
:102EB00010BD022084F82C002068FDF781FC012061
:102EC00084F82C00002010BD70B504460D4694F81F
:102ED0002C00022805D0012805D0052803D00120A8
:102EE00070BD022070BD022084F82C0020682946A5
:102EF000FDF76FFC2868022803D0012084F82C001D
:102F000002E0052084F82C00002070BD4FF0E02086
:102F1000016921F002010161704710B50446002CDF
:102F200003D0D4F8800010B107E0012010BD0020CC
:102F300084F87C00204600F028F82420C4F88000A3
:102F40002068016821F001010160204601F0F4FDD4
:102F5000012818D0A06A10B1204601F059FD206860
:102F6000416821F4904141602068816821F02A0184
:102F700081602068016841F0010101602046BDE8E0
:102F8000104001F0A9BD012010BD7047FEE7000010
:102F90002DE9F047B6B0012702970020209002A843
:102FA000FEF7A8FD514C206840F001002060206829
:102FB00000F001000190206840F0010020602068CE
:102FC00000F00100019049481030016841F0100103
:102FD0000160006800F010000190780231904FF01D
:102FE0000209CDF8C89033974FF0030ACDF8D0A06E
:102FF0000726359631A93E4D2846FEF797F84FF43F
:103000008068CDF8C480359631A92846FEF78EF841
:10301000002204212520FEF72BFB2520FEF71AFBBA
:10302000344D0C2300224FF4E131284607F0A0FA7A
:10303000286A40F040002862A86940F00800A861B2
:10304000286840F020002860206840F002002060DE
:10305000206800F002000190206840F0020020602B
:10306000206800F00200019020480830016841F417
:1030700080210160006800F480200190CDF8C480B8
:10308000CDF8C8903397CDF8D0A0359631A91A4C19
:103090002046FEF74BF8E9143191359631A92046C8
:1030A000FEF744F8032204212720FEF7E1FA272047
:1030B000FEF7D0FA114C0C2300224FF41651204693
:1030C00007F056FA0D4920310A6842F040020A60C2
:1030D0000A491831086840F008020A60206840F088
:1030E0002000206036B0BDE8F0870000E0440258C0
:1030F000000002580010014000040258004800403F
:1031000008B5002100900448038804480288084656
:1031100000F02EFA08BD0000340000243200002424
:103120002DE9F04FBDB0FC480068FB4940F00800B5
:1031300008600846006800F008003790081F016822
:1031400041F480610160016801F480613791016898
:1031500041F040010160016801F0400137910168D0
:1031600041F004010160016801F004013791016838
:1031700041F400710160016801F400713791016848
:1031800041F010010160016801F010013791016800
:1031900041F001010160016801F00101379101680E
:1031A00041F480710160016801F480713791016818
:1031B00041F008010160006800F008003790FF202E
:1031C00038900224399401273A973B940E263C9676
:1031D00038A9D248FDF7AAFF4FF4A050389039948F
:1031E00000253A953B953C9638A9CD48FDF79EFFC2
:1031F0006002389039943A953B953C9638A9C94875
:10320000FDF794FF48F66C60389039943A973B94F8
:103210003C9638A9C448FDF789FF7020389039944E
:103220003A953B953C9638A9C048FDF77FFFE002F0
:10323000389039943A973B943C9638A9BC48FDF7AE
:1032400075FFF002389039943A973B943C9638A930
:10325000B848FDF76BFF0420389039943A953B95B8
:103260003C9638A9B248FDF761FFA0033890399425
:103270003A953B953C9638A9AE48FDF757FF3B94ED
:1032800039973A972003389038A9AB48FDF74EFF9D
:10329000AA4830214FF4F0754FF4487402784FF487
:1032A0008870072A7ED2DFE802F004112C5461886E
:1032B0009D002C4605460A264FF014084FF0140ACC
:1032C00014274FF014094FF0140BBFE02C460546AD
:1032D00028264FF002084FF0020A09274FF0020992
:1032E0004FF0020B7807019005200A9024210B91E2
:1032F00002210C910D900A200E9001A8FEF7FAFB16
:10330000A4E08FA003F056F801264FF028084FF0F4
:10331000140A01274FF008094FF0050B70070190C0
:1033200019200A904FF487700B9002200C900D909A
:103330000A200E9000200F901090119001A8FEF727
:10334000D9FB002804D080A040F23F11FDF700FA1D
:103350007CE02C46054628264FF002084FF0020A72
:1033600009274FF002094FF0020B6FE001264FF0E2
:103370002E084FF0280A03274FF017094FF00D0BC6
:103380007007019019200A904FF487700B9002206B
:103390000C900D900A200E9000200F90109011902C
:1033A00001A800E03AE0FEF7A5FB00284ED066A099
:1033B0004FF4B371FDF7CCF948E060264FF00A08EE
:1033C000C2460227C146C3463807019005200A902D
:1033D0000B9102210C910D900A200E9001A8FEF78E
:1033E00089FB33E04FF480644FF4167502264FF0EA
:1033F0009D084FF0A00A02274FF014094FF00C0B64
:10340000E004019005200A900B9102210C910D908F
:103410000A200E9001A8FEF76DFB17E050264FF032
:103420000A084FF00A0A0A274FF00A094FF00A0B60
:103430004FF00050019005200A900B9102210C9151
:103440000D900A200E9001A8FEF754FB4448058019
:10345000444804800021444841608160C1600161AA
:10346000721E42617A1E826106EB0802521EC26120
:1034700007EB0902521E0262EA194A44531E836294
:10348000A31943445E1E46625A44521E026303EB74
:103490000A02521EC26280F8341080F8351080F89B
:1034A0003610324A026030913194329133950220C5
:1034B00034904FF050403990FF20359036918DF880
:1034C000F0108DF8F1108DF8F2104FF48060379005
:1034D000052038903A943B952348FDF793FF20B19F
:1034E00019A040F20A21FDF733F91F48002230A944
:1034F000FDF75EFF20B114A040F21121FDF728F97D
:1035000000220E215820FEF7B3F83DB05820BDE848
:10351000F04FFEF79FB80000E4440258002802581C
:1035200000180258000802580024025800100258DF
:103530000000025800200258000C02583C000024F1
:103540006F6B310D0A0000002E2E5C4253505C73ED
:1035500072635C6273705F7466745F68372E6300B9
:103560003200002434000024B01500240010005064
:103570002DE9FC470D46DDF828A00021254C274FFA
:103580002678254C002E2488A4EB03090CD0DFF804
:103590009080012EB8F80080A8EB020C0ED0022E0D
:1035A0001AD0032E23D02CE004FB0500796801EB30
:1035B00040011FFA89F510461A4622E0ACEB0501DE
:1035C00004FB0141081A7968C01A01EB40011FFA97
:1035D00089F510461A4614E0201A7968C01A08FBCB
:1035E000005001EB40011FFA8CF5184609E008FB7A
:1035F00000807968801A401B01EB40011FFA8CF5AE
:103600001846CDE9005A03463878FDF76DF8BDE855
:10361000FC8700003000002434000024280000242F
:103620003200002408B50F48016841F01001016024
:10363000006800F0100000900B484FF440314160EA
:10364000022181600021C16008490160FDF764FC2E
:10365000002806D0BDE8084005A04FF49561FDF7AD
:1036600077B808BDD4440258581600240010005200
:103670002E2E5C4253505C7372635C6273705F7495
:1036800066745F68372E630010B5FFF749FDFFF7DA
:10369000C9FF002000F03AF8BDE81040AFF3008009
:1036A00010B50948074C0288084823780188084863
:1036B000FDF74EFF23780022BDE810400448114674
:1036C000FDF71BBF28000024320000243400002432
:1036D000B015002410B50B4B00280B4C198822881C
:1036E0000AD0012808D0022801D0032803D1914232
:1036F00001D91A80218010BD9142FCD21A8021800C
:1037000010BD0000340000243200002407490028C6
:1037100006D0012803D10648486001200870704790
:103720004FF0504048600020087070472800002487
:10373000000020D0FFF7E4BC704710B5FFF7FCFF96
:10374000FFF7A2FF002000F00FF80020FFF7F2FFC4
:10375000BDE81040C82000F001B8000001494870E1
:1037600000F008B83000002401490870FFF7B2BF2C
:1037700030000024012202485103FDF7D8BD0000AB
:10378000000C025802490120C86302494870704782
:1037900000100050C2000024F0B503688C88DD687A
:1037A000C5F30B452C442504882404EBC2141E5990
:1037B00006F470461E5103680F68DE68C6F30B46B8
:1037C000761C3E442E431E5103688C89DD68C5F388
:1037D0000A052C4425048C2404EBC2141E5906F45B
:1037E00070461E5103688F68DE68C6F30A06761CB1
:1037F0003E442E431E510468942303EBC213E55844
:1038000025F00705E55005680C69EC5091F831305A
:103810004FEA032C91F832301E040B7E1F06046819
:103820009C2303EBC213E5580025E55091F8304086
:103830003E4344EA0C0434430668F4500468982379
:1038400003EBC213E65826F0FF06E65006684C6903
:10385000F4500468A02303EBC213E65840F2077744
:10386000BE43E650D1E9074634430668F450046885
:10387000AC2303EBC213E658E55005684C6AEC50E4
:103880000B69002B31D0012B31D0042B31D0022B0E
:103890002FD0032B2DD0072B2BD001230568B0246C
:1038A00004EBC2142E5906F0E0262E51D1E9006532
:1038B000AD1B0E8D5D43ED1D5E4345EA0643056875
:1038C0002B510468B42303EBC213E5586FF30A05C8
:1038D000E5500468C96AE1500068842101EBC21117
:1038E000425842F001024250F0BD0423D6E70323C0
:1038F000D4E70223D2E77FB5FDF77EFE01258DF8E0
:1039000000504FF01050019012208DF8080003264F
:103910008DF80B6000248DF80F408DF80E508DF857
:103920000D408DF801408DF80A408DF809408DF862
:103930000C406846FDF734FE8DF80050700701908A
:103940000F208DF808008DF80B608DF80F508DF862
:103950000E408DF80D408DF801508DF80A408DF81D
:1039600009408DF80C406846FDF71AFE8DF80050AE
:103970004FF05040019019208DF808008DF80B6031
:103980008DF80F408DF80E408DF80D4002208DF817
:1039900001008DF80A508DF809408DF80C406846FA
:1039A000FDF7FEFD0420FDF735FE7FBDFEE7FEE7D7
:1039B0002DE9F047044688460027DFF81491D9F82E
:1039C0000000C043800709D0414D283D286820F001
:1039D00080602860FDF7B8FC064609E00120BDE8DC
:1039E000F087FDF7B1FC801B022801D90320F6E720
:1039F00028680001F5D4D9F80000216820F47C3053
:103A000040EA0130C9F80000A0884FF6FF72A168B3
:103A1000401E491EC0F3080002EA41210843A18963
:103A20004FF4FE02491E02EA01410843217C1202C2
:103A3000491E02EA01610843254910310860244803
:103A4000001D0168626921F0C00111430160016835
:103A5000A26921F0200111430160016821F01001E9
:103A600001601B4914310A684FF6F8739A43E36901
:103A700042EAC3020A60016841F010010160B8F136
:103A8000000F0ED0B8F1010F10D0016841F4001101
:103A90000160286840F080602860FDF755FC04460E
:103AA00010E0016841F400210160F2E7016841F48F
:103AB00080110160EDE7FDF747FC001B022801D9EA
:103AC00003208CE728680001F5D5384687E7000019
:103AD000284402582DE9F047044688460027DFF8BD
:103AE0001491D9F80000C043800709D0414D283D0A
:103AF000286820F080502860FDF726FC064609E083
:103B00000120BDE8F087FDF71FFC801B022801D9CA
:103B10000320F6E728688000F5D4D9F80000218852
:103B200020F07C7040EA0150C9F80000A0884FF6F0
:103B3000FF72A168401E491EC0F3080002EA41213D
:103B40000843A1894FF4FE02491E02EA01410843DD
:103B5000217C1202491E02EA0161084325491831FD
:103B600008602448001D0168626921F44061114326
:103B700001600168A26921F40071114301600168CC
:103B800021F4807101601B491C310A684FF6F873FB
:103B90009A43E36942EAC3020A60016841F4807112
:103BA0000160B8F1000F0ED0B8F1010F10D001681C
:103BB00041F080710160286840F080502860FDF776
:103BC000C3FB044610E0016841F480010160F2E7A4
:103BD000016841F400010160EDE7FDF7B5FB001B52
:103BE000022801D903208CE728688000F5D53846E3
:103BF00087E700002844025800B587B00B480168E9
:103C000041F002010160006800F002000190012013
:103C100003900020049003200590042002900448A3
:103C200002A9FDF783FA07B000BD0000E044025886
:103C300000040258704700000149042008607047E2
:103C40001804025802494FF48020086070470000B1
:103C50001804025810B586B0142101A8FCF7F4FB33
:103C60004848016841F480710160016801F4807185
:103C70000091016841F480610160016801F4806194
:103C80000091016841F040010160016801F04001CC
:103C90000091016841F004010160016801F0040134
:103CA0000091016841F010010160016801F010010C
:103CB0000091016841F400710160016801F4007134
:103CC0000091016841F080010160016801F080010C
:103CD0000091016841F008010160016801F00801EC
:103CE0000091016841F001010160016801F00101EA
:103CF0000091016841F020010160016801F020019C
:103D00000091016841F002010160006800F00200CA
:103D1000009040F2FF600190022002900124039481
:103D2000032004900C200590174801A9FDF7FEF927
:103D30004FF683700190154801A9FDF7F7F94FF68A
:103D4000C0700190124801A9FDF7F0F948F2371050
:103D50000190104801A9FDF7E9F94CF203700190B8
:103D60000D4801A9FDF7E2F94FF63F0001900B481D
:103D700001A9FDF7DBF9019401A90948FDF7D6F97E
:103D800006B010BDE044025800200258001002584E
:103D9000001C025800180258000C02580014025867
:103DA000000802582DE9F84381460C460027009789
:103DB0000126266008256560A660E7604FF6FF785B
:103DC000424621464846FFF77FF80120FDF7DEF81E
:103DD000022020606560A660E760424621464846B2
:103DE000FFF772F8032020606560A560E760424637
:103DF00021464846FFF768F84FF40C710091042003
:103E000020606560A660E160424621464846FFF7B3
:103E10005BF8484640F29631BDE8F843FFF73BB8FF
:103E2000FF210B2000F0F2B810B500F0BBF8002124
:103E3000042000F0EBF84821202000F0E7F81420DF
:103E400005F0AAFF0121212000F0E0F80F21172042
:103E500000F0DCF89C21412000F0D8F801214A2034
:103E600000F0D4F801214B2000F0D0F800214B20C5
:103E700000F0CCF80121562000F0C8F801215820AC
:103E800000F0C4F80321402000F0C0F8FF210B200F
:103E900000F0BCF801210A2000F0B8F80121BDE8CB
:103EA0001040092000F0B2B82DE9F04105460C465B
:103EB000164612F0C3FA822012F096FA12F0E8FACF
:103EC00068B9204612F090FA12F0E2FA38B912F00E
:103ED000B5FA832012F088FA12F0DAFA20B112F063
:103EE000C3FA0020BDE8F0810024771E0BE012F039
:103EF00057FA2855BC4202D012F008FA01E012F03D
:103F00003BFA641CE4B2B442F1D312F0ADFA0120E2
:103F1000E8E710B50021132000F078F8BDE8104064
:103F2000122000F00BB810B5FFF7F3FF062101EAED
:103F3000500100F001000143084610BD08B5012200
:103F400001466846FFF7B0FF9DF8000008BD00007D
:103F500038B54020FFF7F2FF0E4C000614D50322BF
:103F60006846D721FFF7A0FF9DF8000001019DF8EA
:103F7000010041EA101121809DF8021000F00F00AD
:103F800041EA0020608002E00020208060802088DC
:103F900038BD0000BE000024014840887047000082
:103FA000BE00002410B50221032000F02FF81420D9
:103FB00005F0F2FE0021BDE81040032000F026B815
:103FC00070B505460C46164612F038FA822012F0FB
:103FD0000BFA12F05DFA68B9204612F005FA12F0F9
:103FE00057FA38B900240BE0285D12F0FDF912F001
:103FF0004FFA18B112F038FA002070BD641CE4B218
:10400000B442F1D312F030FA012070BD13B5012291
:10401000014601A8FFF7D4FF1CBD000010B5102019
:1040200072B680F31188BFF34F8FBFF36F8F62B604
:104030002FF0F6F918B104494FF0805008600020C5
:1040400080F3118810BD000004ED00E070B5174E3C
:104050007068002805D07068401E706001D1012092
:1040600030700024124D04EB440005EB800006F094
:10407000AFFA641CE4B2042CF5D3B068401CB06005
:10408000B06800246FF00041884200D1B46006F0AF
:1040900064FAB078401CC0B2B0700A2804D3B4707F
:1040A000BDE8704006F058BA70BD00001C00002446
:1040B0008015002470B59CB04C2109A8FCF7C4F908
:1040C000202101A8FCF7C0F90220FDF703FB002422
:1040D000424A106820F001001060106840480168F2
:1040E00041F440410160016801F4404100910168E0
:1040F0008904FCD53B4D296841F0020129602968FB
:1041000001F002010091016841F440410160016841
:10411000116841F001011160116801F00101009185
:1041200001688904FCD50120099000040A9002204E
:104130001290139005211491C0211591169017909B
:104140001890082619961A941B9409A8FEF7A6FB46
:1041500018B1932124A0FCF7FBFA3F200190032023
:104160000290039404964020059006900101079167
:104170000890042101A8FEF74BF918B1A5211AA057
:10418000FCF7E6FA1748F438016841F08001016055
:10419000286840F002002860286800F002000090C3
:1041A000FCF7BCFF0F481838016841F0005101606E
:1041B000016801F000510091016841F08041016007
:1041C000016801F080410091016841F00041016007
:1041D000006800F0004000901CB070BD2C04005836
:1041E00018480258F44402582E2E5C4253505C6228
:1041F00073702E630000000010B52748016841F479
:1042000070010160254A106800F00F00072804D2F1
:10421000106820F00F00C01D10602149086840F0B0
:10422000010008601E4B0020103318600B681D4C05
:1042300023400B60136803F00F03072B04D91368A6
:1042400023F00F03DB1D1360154A18321060121D96
:104250001060121D1060124B134A28331A601B1D88
:10426000124A1A601B1D124A1A601B1D18601B1D82
:104270001A601B1D18601B1D1A601A1D10600A6849
:1042800022F480220A6006496031086043F2D200BD
:104290000849086010BD000088ED00E000200052D1
:1042A000004402587FEDF6EA000202020000FF011E
:1042B000800201010040005210B5FFF71CFBFCF723
:1042C00089F9FDF747F8BDE81040FFF7F3BE002875
:1042D00000DA40427047000009480078012809D000
:1042E00008484078012807D007480078012805D100
:1042F000FCF770BDFCF708BCFCF702BB7047000080
:10430000BC1700249A170024E0170024F0B54F1EB4
:10431000002600220CE0531C30F8125030F81340F5
:10432000A54204D920F8135020F812400126DAB231
:10433000BA42F0DB002EEBD100230022032407E079
:10434000B1FBF4F5154430F815502B44521CD2B291
:10435000B1FBF4F59542F3D8B1FBF4F0B3FBF0F008
:1043600080B2F0BD10B50446114A92F86C3092F854
:104370006D00834201D1002010BD0D48C01D185CA6
:1043800002EB43039B8B238092F86C3002EB4303D8
:10439000B3F844300B8092F86C10491CC9B282F813
:1043A0006C101429E8D3002182F86C1010BD0000B5
:1043B0000817002430B587B000F06CF82548016874
:1043C00041F040010160006800F0400001900024CD
:1043D00003940494032005900820029002A91E482B
:1043E000FCF7A4FE05F0F4FC1C4DAC711C484079B0
:1043F00005282CD2DFE800F01B030B13200019A0C6
:1044000001F0D8FF07B0BDE83040FCF71BBB19A096
:1044100001F0D0FF07B0BDE83040FCF763BC19A045
:1044200001F0C8FF07B0BDE83040FCF75BBC07B047
:10443000BDE83040FCF722BA40F6FF70288000F05B
:1044400061F885F86C4085F86D400120A87107B0CF
:1044500030BD0000E044025800180258081700243C
:1044600036000024B3F5CABCBBAF47543831310D18
:104470000A000000B3F5CABCBBAF47543931310D57
:104480000A000000B3F5CABCBBAF4754393134371A
:104490000D0A00002DE9F04186B01848016841F08E
:1044A00040010160006800F040000090012002908F
:1044B000002403940320049008260196DFF840802E
:1044C00001A94046FCF732FE0D4D370418352F6028
:1044D000C82005F067FC2E604FF4FA6005F062FC1E
:1044E0002F60C82005F05EFC0294039401A94046A9
:1044F000FCF71CFE06B0BDE8F0810000E044025865
:104500000018025810B5084824224FF47F510FF0CC
:1045100019FB05484178042905D900214170BDE8FF
:10452000104000F013B910BD7617002400B5801AB2
:10453000FFF7CDFE02B2C81AFFF7C9FE00B20A4962
:104540000023192A04DA192802DA0B70012000BDB1
:104550000878401CC0B20870032802D30B700120F9
:1045600000BD002000BD00003600002403480068A4
:10457000000701D40120704700207047101802582E
:10458000022808D9022906D9054A1288921E8242B9
:1045900001DD8A4201DC00207047012070470000E5
:1045A000081700242DE9F04788469146002500268B
:1045B000624FF91D97F86D205054B87901282DD01D
:1045C00044464946DFF874914FF0000C5C4A09F10B
:1045D0006E095C4BDFF8708199F8010048B301283F
:1045E00048D0022867D0032877D089F801C097F80F
:1045F0006D0007EB4000858397F86D0007EB4000E6
:10460000A0F8446097F86D00401CC0B287F86D00B8
:10461000142801D387F86DC0BDE8F08749464046AD
:1046200000F03AF984B24946404600F093F981B26D
:10463000C8E798F8000058B101280CD0022813D020
:104640000328D4D11888001B401E86B20D46CEE741
:1046500025460E46CBE71088001B401E85B2188801
:10466000401A401E86B2C2E726461088401A401EF5
:1046700085B2BCE798F8000058B1012812D0022892
:1046800013D00328B3D126461088401A401E85B2A5
:10469000ADE71088001B401E85B21888401A401EE6
:1046A00086B2A4E725460E46A1E71888001B401EE7
:1046B00086B20D469BE798F8000078B1012813D028
:1046C000022817D0032892D11088001B401E85B203
:1046D0001888401A401E86B289E70EE026461088E8
:1046E000401A401E85B282E71888001B401E86B221
:1046F0000D467CE725460E4679E798F8000040B164
:1047000001280CD0022810D00328A0D125460E463F
:104710006DE726461088401A401E85B267E7188864
:10472000001B401E86B20D4661E71088001B401E2C
:1047300085B21888401A401E86B258E70817002430
:1047400034000024320000243000002404480549CD
:1047500000784870242203484FF47F510FF02DBA9F
:1047600030000024761700242DE9F04145480078F8
:10477000012857D044480078012857D04348407852
:10478000012857D0424EB079002848D0414D2879B1
:10479000401CC0B22871022841D200242C71FFF7BE
:1047A000E5FE00283BD0FFF7D3FB8046FFF7F4FB84
:1047B000074640463946FFF7E3FE90B3AA780F2A32
:1047C00048D36A78A6F1500020F81280283020F8EB
:1047D0001270521CD0B268700A2820D36C700A2163
:1047E000A6F15000FFF792FD70800A21A6F1280083
:1047F000FFF78CFD0246B080E878F8B17088134668
:10480000698902462889FFF791FE08B3B288022021
:104810007188FFF7C7FE70882881B0886881BDE87D
:10482000F0811AE0BDE8F041FCF72CBABDE8F04198
:10483000FCF742BBBDE8F041FCF7FCB80120E87092
:104840007188FFF7AFFE70882881B0886881E6E73D
:104850007480E4E7521CAA70E1E7A87878B1401EA2
:1048600010F0FF00A8700AD16A8903202989FFF798
:1048700099FE7480B480AC70EC70FFF7D1FA6C7064
:10488000CDE70000BC170024E01700249A1700248D
:1048900008170024360000242DE9F84304460D468D
:1048A0002B4F38463B788178B0F806C0022B4289FE
:1048B000B0F8048000891CD079B32E460094FB899F
:1048C000024661464046FBF7CBFE1FFA80F8009493
:1048D0007B893A89798AB888FBF7C2FE82B29EB397
:1048E000009640463B8BB98AFBF7BAFE00B2BDE8A2
:1048F000F883174B9E8A1B8B39B18DB131466046C8
:104900000095FBF7ADFE00B2F1E73CB1024631463F
:1049100040460094FBF7A4FEF5E703E00020F2E731
:104920000020F0E726460095BB8941466046FBF72C
:1049300097FE1FFA80F800953B897A89398AF888B2
:10494000FBF78EFE82B2CAE7FFE70020CEE7000049
:10495000761700242DE9F84304460D462B4F3846C0
:104960003B788178B0F80480022B0289B0F806C049
:1049700040891DD089B3264600953B8A02464146B0
:104980006046FBF76DFE804600953B897A89B989C0
:10499000F888FBF765FEAEB3B1B2009182B27B8BB3
:1049A000F9881FFA88F0FBF75BFE00B2BDE8F883D8
:1049B000164B5B8B41B19CB1A0B261460090404662
:1049C000FBF74EFE00B2F1E745B1A9B20091F98ABA
:1049D00002466046FBF744FEF4E703E00020F1E7FF
:1049E0000020EFE72E4600947B8A61464046FBF7A5
:1049F00037FE804600947B893A89F989B888FBF7AD
:104A00002FFEC8E7FFE70020CFE70000761700245D
:104A100090F82810C90706D001684A68C36A22F4D2
:104A200000321A434A6090F82810890706D50168B9
:104A30004A68036B22F480321A434A6090F82810C7
:104A4000490706D501684A68436B22F480221A435D
:104A50004A6090F82810090706D501684A68836BF8
:104A600022F400421A434A6090F82810C90606D57D
:104A700001688A68C36B22F480521A438A6090F8F6
:104A80002810890606D501688A68036C22F4005252
:104A90001A438A6090F82810490611D501684A68BF
:104AA000436C22F480121A434A60416CB1F5801FB6
:104AB00006D101684A68836C22F4C0021A434A6036
:104AC00090F82810090606D501684A68C06C22F4DF
:104AD000002202434A607047F8B504460026C4F835
:104AE0008860FCF731FC0746206800686FF07E455F
:104AF00000070AD500223B464FF4001120460095DE
:104B000001F0BAFA08B10320F8BD20680068400738
:104B10000AD500223B464FF480012046009501F063
:104B2000ABFA08B10320F8BD20207C346060A0609F
:104B300026700020F8BD00002DE9F04F87B0044634
:104B40004FF0000800250020F74B21682669A26875
:104B5000E769324366693E433243666E16430A682C
:104B6000F24F3A4032430A6021684A68E66822F40C
:104B7000405232434A60A16922689A4201D0266AB3
:104B800031439668EA4F3E400E4396602168CA6AF8
:104B9000666A22F00F023243CA62E64E2168E64A94
:104BA000B14224D1126802F03802182A16D005DC6E
:104BB0005AB1082A0CD0102A04D10CE0202A10D0B7
:104BC000282A11D04FF0800B2AE14FF0010B27E18A
:104BD0004FF0040B24E14FF0080B21E14FF0100BD4
:104BE0001EE14FF0200B1BE14FF0400B18E1D34EBC
:104BF000B1421ED1126802F00702062A16D2DFE87F
:104C000002F00306090C0F124FF0000B08E14FF001
:104C1000040B05E14FF0080B02E14FF0100BFFE031
:104C20004FF0200BFCE04FF0400BF9E04FF0800B11
:104C3000F6E0C34EB1421ED1126802F00702062A06
:104C400016D2DFE802F00306090C0F124FF0000B3A
:104C5000E6E04FF0040BE3E04FF0080BE0E04FF02C
:104C6000100BDDE04FF0200BDAE04FF0400BD7E007
:104C70004FF0800BD4E0B34EB1421ED1126802F067
:104C80000702062A16D2DFE802F00306090C0F120B
:104C90004FF0000BC4E04FF0040BC1E04FF0080BE5
:104CA000BEE04FF0100BBBE04FF0200BB8E04FF030
:104CB000400BB5E04FF0800BB2E0A34EB1421ED1E5
:104CC000126802F00702062A16D2DFE802F0030695
:104CD000090C0F124FF0000BA2E04FF0040B9FE005
:104CE0004FF0080B9CE04FF0100B99E04FF0200BB9
:104CF00096E04FF0400B93E04FF0800B90E0934E26
:104D0000B14224D1126802F03802182A16D005DC0C
:104D10005AB1082A0CD0102A04D10CE0202A10D055
:104D2000282A11D04FF0800B7AE04FF0010B77E08A
:104D30004FF0040B74E04FF0080B71E04FF0100BD4
:104D40006EE04FF0200B6BE04FF0400B68E0804EC0
:104D5000B1421ED1126802F00702062A16D2DFE81D
:104D600002F00306090C0F124FF0000B58E04FF051
:104D7000040B55E04FF0080B52E04FF0100B4FE0E2
:104D80004FF0200B4CE04FF0400B49E04FF0800B10
:104D900046E0704EB1421ED1126802F00702062AA8
:104DA00016D2DFE802F00306090C0F124FF0000BD9
:104DB00036E04FF0040B33E04FF0080B30E04FF0DB
:104DC000100B2DE04FF0200B2AE04FF0400B27E0B6
:104DD0004FF0800B24E0994220D1574A121D1268EF
:104DE00002F00702062A16D2DFE802F00306090CD9
:104DF0000F124FF0020B13E04FF0040B10E04FF0D6
:104E0000080B0DE04FF0100B0AE04FF0200B07E00D
:104E10004FF0400B04E04FF0800B01E04FF0800BAF
:104E2000DFF834A1002799424FF4807977D1BBF1A4
:104E3000100F75D009DCBBF1020F19D0BBF1040FC4
:104E40004DD0BBF1080F06D1A1E0BBF1200F68D017
:104E5000BBF1400F66D00125002808D0666806EB3C
:104E60004601814202D8B0EB063F77D90125EEE337
:104E7000FCF76EFC0146606AC8B1012819D002280F
:104E800019D0032819D0042819D0052819D00628CC
:104E900019D0072819D0082819D0092819D00A28AC
:104EA00019D00B2819D00120B1FBF0F0D4E7012074
:104EB000FAE70220F8E70420F6E70620F4E70820E6
:104EC000F2E70A20F0E70C20EEE71020ECE72020C4
:104ED000EAE74020E8E78020E6E74846E4E704A860
:104EE000FCF748FC0599606AE8B1012839D002282E
:104EF00039D0032839D0042839D0052839D00628DC
:104F000039D0072839D0082839D0092839D00A28BB
:104F100039D00B2839D00120B1FBF0F09CE7AEE38B
:104F20006DE0DDE011E11AE0000C0058F369FFCFFD
:104F3000FFF4FF11001001405444025800440040A7
:104F400000480040004C0040005000400014014068
:104F500000780040007C00400090D0032BE101204D
:104F6000DAE70220D8E70420D6E70620D4E70820B5
:104F7000D2E70A20D0E70C20CEE71020CCE7202093
:104F8000CAE74020C8E78020C6E74846C4E701A832
:104F9000FCF7D0FC0299606AC8B1012819D0022838
:104FA00019D0032819D0042819D0052819D00628AB
:104FB00019D0072819D0082819D0092819D00A288B
:104FC00019D00B2819D00120B1FBF0F044E70120E3
:104FD000FAE70220F8E70420F6E70620F4E70820C5
:104FE000F2E70A20F0E70C20EEE71020ECE72020A3
:104FF000EAE74020E8E78020E6E74846E4E7F748AC
:105000000168890638D50068C0F3C1002AFA00F1AA
:10501000606AC8B1012819D0022819D0032819D014
:10502000042819D0052819D0062819D0072819D026
:10503000082819D0092819D00A2819D00B2819D006
:105040000120B1FBF0F007E70120FAE70220F8E7C2
:105050000420F6E70620F4E70820F2E70A20F0E74C
:105060000C20EEE71020ECE72020EAE74020E8E7FC
:105070008020E6E74846E4E7606AC8B1012819D015
:10508000022819D0032819D0042819D0052819D0CE
:10509000062819D0072819D0082819D0092819D0AE
:1050A0000A2819D00B2819D00120BAFBF0F0D3E65A
:1050B0000120FAE70220F8E70420F6E70620F4E7EB
:1050C0000820F2E70A20F0E70C20EEE71020ECE7DA
:1050D0002020EAE74020E8E78020E6E74846E4E7CA
:1050E000606AD0B101281AD002281AD003281AD039
:1050F00004281AD005281AD006281AD007281AD052
:1051000008281AD009281AD00A281AD00B281AD031
:105110000120B349B1FBF0F09EE60120F9E702203F
:10512000F7E70420F5E70620F3E70820F1E70A2077
:10513000EFE70C20EDE71020EBE72020E9E7402027
:10514000E7E78020E5E74846E3E7606AD8B1012851
:105150001BD002281BD003281BD004281BD00528F5
:105160001BD006281BD007281BD008281BD00928D5
:105170001BD00A281BD00B281BD001204FF4004164
:10518000B1FBF0F068E60120F8E70220F6E7042022
:10519000F4E70620F2E70820F0E70A20EEE70C200B
:1051A000ECE71020EAE72020E8E74020E6E780204F
:1051B000E4E74846E2E7BBF1100F7DD009DCBBF124
:1051C000020F16D0BBF1040F64D0BBF1080F06D15B
:1051D000B8E0BBF1200F70D0BBF1400F6ED00125BD
:1051E0008049A8F54070884269D82068C0F80C80D2
:1051F0002DE2FCF7ADFA0146606A50B301282BD0CE
:1052000002282CD003282DD004282ED005282FD0FA
:10521000062830D0072831D0082832D0092833D0CA
:105220000A2834D00B2801D04FF00109084600238A
:105230004A461946FBF7B0F862680902030241EAE0
:1052400010615008181879410023FBF7A5F8804633
:10525000C6E74FF00109E9E74FF00209E6E74FF032
:105260000409E3E74FF00609E0E74FF00809DDE73E
:105270004FF00A09DAE74FF00C09D7E74FF01009B1
:10528000D4E74FF02009D1E74FF04009CEE74FF0C7
:105290008009CBE704A8FCF76DFA0599606A78B33A
:1052A000012831D0022832D0032833D0042834D04A
:1052B000052835D0062803E09CE040E18DE1DCE1E3
:1052C00031D0072832D0082833D0092834D00A2812
:1052D00035D00B2801D04FF00109084600234A467B
:1052E0001946FBF759F862680902030241EA1061A6
:1052F0005008181879410023FBF74EF880466FE7F5
:10530000FFE74FF00109E8E74FF00209E5E74FF04A
:105310000409E2E74FF00609DFE74FF00809DCE790
:105320004FF00A09D9E74FF00C09D6E74FF0100902
:10533000D3E74FF02009D0E74FF04009CDE74FF019
:105340008009CAE701A8FCF7F5FA0299606A50B330
:1053500001282BD002282CD003282DD004282ED0B1
:1053600005282FD0062830D0072831D0082832D081
:10537000092839D00A283AD00B2801D04FF001096A
:10538000084600234A461946FBF706F862680902F8
:10539000030241EA10615008181879410023FAF716
:1053A000FBFF80461CE74FF00109E9E74FF00209D7
:1053B000E6E74FF00409E3E74FF00609E0E74FF0B6
:1053C0000809DDE74FF00A09DAE74FF00C09D7E7E3
:1053D0004FF01009D4E74FF02009D1E700440258FC
:1053E00000093D00FFFC0F004FF04009C8E74FF0F7
:1053F0008009C5E7F7480168890652D50068C0F3FF
:10540000C1002AFA00FA606A50B301282BD00228A2
:105410002CD003282DD004282ED005282FD00628E4
:1054200030D0072831D0082832D0092833D00A28B4
:1054300034D00B2801D04FF00109504600234A46D2
:105440001946FAF7A9FF0902020241EA1061700841
:105450001018324679410023FAF79EFF8046BFE6D6
:105460004FF00109E9E74FF00209E6E74FF00409C0
:10547000E3E74FF00609E0E74FF00809DDE74FF0FA
:105480000A09DAE74FF00C09D7E74FF01009D4E723
:105490004FF02009D1E74FF04009CEE74FF08009E7
:1054A000CBE7606A50B301282BD002282CD0032808
:1054B0002DD004282ED005282FD0062830D007283C
:1054C00031D0082832D0092833D00A2834D00B280C
:1054D00001D04FF00109504600234A461946FAF719
:1054E0005BFF0902020241EA10617008101832469F
:1054F00079410023FAF750FF804671E64FF0010929
:10550000E9E74FF00209E6E74FF00409E3E74FF05F
:105510000609E0E74FF00809DDE74FF00A09DAE78E
:105520004FF00C09D7E74FF01009D4E74FF02009EE
:10553000D1E74FF04009CEE74FF08009CBE7606A32
:1055400050B301282BD002282CD003282DD00428BA
:105550002ED005282FD0062830D0072831D0082893
:1055600032D0092833D00A2834D00B2801D04FF08C
:105570000109994800234A461946FAF70DFF090226
:10558000020241EA10617008101832467941002386
:10559000FAF702FF804623E64FF00109E9E74FF0F2
:1055A0000209E6E74FF00409E3E74FF00609E0E7F8
:1055B0004FF00809DDE74FF00A09DAE74FF00C0970
:1055C000D7E74FF01009D4E74FF02009D1E74FF0AB
:1055D0004009CEE74FF08009CBE7606A58B3012855
:1055E0002CD002282DD003282ED0042830D0052816
:1055F00031D0062832D0072833D0082834D00928E3
:1056000035D00A2836D00B2801D04FF001090023ED
:105610004A464FF400401946FAF7BEFE090202025C
:1056200041EA106170081018324679410023FAF7F8
:10563000B3FE8046D4E54FF00109E8E74FF00209D8
:10564000E5E74FF00409E2E74FF00609DFE797E2EC
:105650004FF00809DBE74FF00A09D8E74FF00C09D3
:10566000D5E74FF01009D2E74FF02009CFE74FF010
:105670004009CCE74FF08009C9E7012580E2E069E5
:105680004FF400414FF6EF7688426ED1BBF1080F20
:105690006CD009DCBBF1000F1ED0BBF1010F66D04E
:1056A000BBF1040F09D1B4E0BBF1100F7DD0BBF109
:1056B000200F7BD0BBF1400F79D00125A8F110005D
:1056C000B04275D84FF6F07108EA0100C8F3420104
:1056D00008432168C86053E2FCF7E2FF0146606AB4
:1056E00010B3012823D0022824D0032825D0042871
:1056F00026D0052827D0062828D0072829D0082812
:105700002AD009282BD00A282CD00B2801D04FF002
:105710000109B1FBF9F04100606801EB5001B1FBF8
:10572000F0F01FFA80F8C9E74FF00109F1E74FF0F8
:105730000209EEE74FF00409EBE74FF00609E8E74E
:105740004FF00809E5E74FF00A09E2E74FF00C09CE
:10575000DFE74FF01009DCE74FF02009D9E74FF001
:105760004009D6E74FF08009D3E70AE29BE0FCF757
:10577000A9FF0146606A38B3012828D002282DD03D
:1057800003282ED004282FD0052830D0062831D069
:10579000072832D0082833D0092834D00A2835D039
:1057A0000B2801D04FF0010903E0C6E05AE1A0E167
:1057B000E5E1B1FBF9F04100606801EB5001B1FB9C
:1057C000F0F01FFA80F879E74FF00109ECE74FF0AD
:1057D0000209E9E70044025800093D004FF00409BE
:1057E000E2E74FF00609DFE74FF00809DCE74FF08A
:1057F0000A09D9E74FF00C09D6E74FF01009D3E7B3
:105800004FF02009D0E74FF04009CDE74FF0800975
:10581000CAE704A8FBF7AEFF0599606A10B3012838
:1058200023D0022824D0032825D0042826D00528F8
:1058300027D0062828D0072829D008282AD00928C8
:105840002BD00A282CD00B2801D04FF00109B1FB36
:10585000F9F04100606801EB5001B1FBF0F01FFA74
:1058600080F82BE74FF00109F1E74FF00209EEE76E
:105870004FF00409EBE74FF00609E8E74FF008099D
:10588000E5E74FF00A09E2E74FF00C09DFE74FF0D8
:105890001009DCE74FF02009D9E74FF04009D6E7BF
:1058A0004FF08009D3E701A8FCF744F80299606A39
:1058B00010B3012823D0022824D0032825D004289F
:1058C00026D0052827D0062828D0072829D0082840
:1058D0002AD009282BD00A282CD00B2801D04FF031
:1058E0000109B1FBF9F04100606801EB5001B1FB27
:1058F000F0F01FFA80F8E1E64FF00109F1E74FF010
:105900000209EEE74FF00409EBE74FF00609E8E77C
:105910004FF00809E5E74FF00A09E2E74FF00C09FC
:10592000DFE74FF01009DCE74FF02009D9E74FF02F
:105930004009D6E74FF08009D3E7FE4801688906A1
:105940004AD50068C0F3C1002AFA00FA606A10B3B1
:10595000012823D0022824D0032825D0042826D0CB
:10596000052827D0062828D0072829D008282AD09B
:1059700009282BD00A282CD00B2801D04FF0010980
:10598000BAFBF9F04100606801EB5001B1FBF0F0A7
:105990001FFA80F892E64FF00109F1E74FF0020993
:1059A000EEE74FF00409EBE74FF00609E8E74FF0A8
:1059B0000809E5E74FF00A09E2E74FF00C09DFE7D5
:1059C0004FF01009DCE74FF02009D9E74FF040090C
:1059D000D6E74FF08009D3E7606A10B3012823D0DF
:1059E000022824D0032825D0042826D0052827D033
:1059F000062828D0072829D008282AD009282BD003
:105A00000A282CD00B2801D04FF00109BAFBF9F07D
:105A10004100606801EB5001B1FBF0F01FFA80F823
:105A20004CE64FF00109F1E74FF00209EEE74FF0C5
:105A30000409EBE74FF00609E8E74FF00809E5E74E
:105A40004FF00A09E2E74FF00C09DFE74FF01009C9
:105A5000DCE74FF02009D9E74FF04009D6E74FF0D7
:105A60008009D3E7606A18B3012824D0022825D022
:105A7000032826D0042827D0052828D0062829D096
:105A800007282AD008282BD009282CD00A282DD066
:105A90000B2801D04FF00109A748B0FBF9F04100F5
:105AA000606801EB5001B1FBF0F01FFA80F805E6E9
:105AB0004FF00109F0E74FF00209EDE74FF004095C
:105AC000EAE74FF00609E7E74FF00809E4E74FF08F
:105AD0000A09E1E74FF00C09DEE74FF01009DBE7B8
