:020000040800F2
:10000000E84A002049010008230D0008310B0008D0
:10001000210D0008570700083116000800000000F5
:100020000000000000000000000000006D1000084B
:100030000509000800000000490D000859110008DA
:100040006301000863010008630100086301000800
:1000500063010008630100086301000863010008F0
:1000600063010008630100086301000863010008E0
:1000700075080008630100086301000863010008B7
:1000800063010008630100086301000863010008C0
:1000900063010008630100086301000863010008B0
:1000A00063010008630100086301000863010008A0
:1000B000E9120008630100086301000863010008F9
:1000C0006301000863010008630100086301000880
:1000D00063010008630100086301000805140008BB
:1000E0006301000863010008630100086301000860
:1000F0006301000863010008630100086301000850
:10010000630100086301000863010008630100083F
:10011000630100086301000863010008630100082F
:10012000630100086301000863010008630100081F
:10013000DFF810D000F054FA00480047912600087C
:10014000AFF30080E84A0020064880470648004791
:10015000FEE7FEE7FEE7FEE7FEE7FEE7FEE7FEE777
:10016000FEE7FEE7891200083101000840EA0103BA
:100170009B0703D009E008C9121F08C0042AFAD25D
:1001800003E011F8013B00F8013B521EF9D2704721
:10019000D2B201E000F8012B491EFBD270470022C9
:1001A000F6E710B513460A4604461946FFF7F0FF76
:1001B000204610BD421C10F8011B0029FBD1801AFB
:1001C000704730B50B46014600202022012409E08B
:1001D00021FA02F59D4205D303FA02F5491B04FA00
:1001E00002F52844151EA2F10102F1DC30BD2DE913
:1001F000F05F0546002092469B46884606468146AB
:1002000040241BE0284641464746224600F020F89D
:1002100053465A46C01A914110D3114618462246F9
:1002200000F0F0F92D1A67EB01084F462246012035
:10023000002100F0E7F917EB00094E41201EA4F160
:100240000104DFDC484631462A464346BDE8F09FBC
:10025000202A04DB203A21FA02F00021704721FA1B
:1002600002F3D040C2F12002914008431946704782
:100270002DE9FE4F804681EA0300C00F0C46009036
:1002800021F0004123F00045B8EB0200A94105D25E
:100290004046214690461C460B46024623F000404D
:1002A000104347D0270DC7F30A00C3F30A51029049
:1002B000401A019040286BDAC3F3130040F4801B0E
:1002C0000098924620B10023D2EB030A63EB0B0B9C
:1002D00001985946C0F14002504600F093F9064695
:1002E0000D4650465946019A00F09BF910EB080064
:1002F0006141002487EA115284EAE7731A4340D02F
:10030000009A62B3019A012A4FEA075215DC001BDA
:1003100061EB02014FF0004202EA0752CDE90042D0
:10032000001C41F5801132462B4600F09BF903B0CA
:10033000BDE8F08F40462146F9E7001B61EB020162
:10034000001C41F5801300185B412018A2F500172E
:1003500047EB030140EAD570B6196D4111E06D0815
:100360004FEA360645EAC0754FEA0752001B61EBBB
:100370000201001C41F5801149084FEA30000019C4
:10038000514132462B4603B0BDE8F04F00F05BB957
:100390000098012240000023D0EB020263EBE073DF
:1003A000009821464FEAE074B8EB000061EB0401CD
:1003B000E9E783F000435BE781F0004158E72DE96E
:1003C000FE4F81EA030404F0004421F00041009450
:1003D0004FF0000B23F0004350EA01045ED052EAD4
:1003E00003045BD0C3F30A54C1F30A552C44A4F2AE
:1003F000F3340194A0FB0254C1F3130141F48011C2
:10040000C3F3130343F4801301FB024400FB034EC8
:10041000840A970A44EA815447EA8357A4FB076891
:1004200002958D0A05FB07854FEA932C04FB0C54BB
:100430002705029D4FEA065847EA1637B5EB08052F
:100440006EEB070C870E920E47EA811742EA831281
:10045000A7FB0201B6EB0B0164EB00042B0D43EA92
:100460000C335E1844EB1C50DA465146E7FB0201A0
:10047000C5F313044FEA0B3343EA14534FEA043233
:10048000019C43EA0603A4F10C040294009CCDE90C
:1004900000B400F0E7F803B0BDE8F08F002001469B
:1004A000F9E72DE9F04D81EA030404F0004B21F057
:1004B000004514464FF0000A23F0004150EA0502BF
:1004C00020D054EA01021DD0C5F30A570246C5F3F5
:1004D0001303C1F31300C1F30A5640F4801543F42B
:1004E0008013A7EB0608101BD64608F2FD3873EB05
:1004F000050002D308F1010801E092185B41B8F150
:10050000000F03DA00200146BDE8F08D00204FF413
:100510008011064684460EE0171B73EB050705D3D2
:10052000121B63EB050306434CEA010C49084FEA32
:10053000300092185B4150EA0107EDD152EA030006
:1005400012D082EA040083EA0501084305D0101B9B
:10055000AB4106D20122002306E000224FF0004307
:1005600002E06FF0010253101AEB06004CEB085149
:1005700010EB0A0041EB0B01BDE8F04D00F063B851
:10058000C1F30A52C1F3130140F2FF3341F4801169
:100590009A4202DA00200146704740F233439A4201
:1005A000A2F2334202DC5242FFF752BE00F02AB8F8
:1005B00030B5041E71F1000404DB4FF000444042EA
:1005C00064EB0101141E73F1000405DB1C464FF0BF
:1005D0000043524263EB0403994208BF904230BD8E
:1005E000064C074D06E0E06840F0010394E8070080
:1005F00098471034AC42F6D3FFF79EFD004B00083D
:10060000204B0008202A04DB203A00FA02F10020E7
:1006100070479140C2F1200320FA03F31943904040
:100620007047202A06DBCB17203A41FA02F043EA52
:10063000E07306E041FA02F3D040C2F1200291409B
:1006400008431946704710B5141E73F1000408DA08
:10065000401C41F1000192185B411A4301D120F086
:10066000010010BD2DE9F04D92469B4611B1B1FA43
:1006700081F202E0B0FA80F220329046FFF7C2FF2A
:1006800004460F4640EA0A0041EA0B0153465A4627
:10069000084313D0114653EA010019D0C8F14002B3
:1006A0005046FFF7D5FD05460E4650465946424690
:1006B000FFF7A8FF084305D0012004E02046394693
:1006C000BDE8F08D0020054346EAE0762C43374331
:1006D0000A986305E40AA0EB08000022FD0A44EA38
:1006E00047540A3002D500200146E9E701051019F8
:1006F0006941DDE9084500196941BDE8F04DA2E70F
:1007000070B58C1810F8015B15F0070301D110F8D3
:10071000013B2A1106D110F8012B03E010F8016B00
:1007200001F8016B5B1EF9D12B0705D40023521E83
:100730000DD401F8013BFAE710F8013BCB1A921CEB
:1007400003E013F8015B01F8015B521EF9D5A142E9
:10075000D8D3002070BD70477FB504460026002026
:1007600000900190029003900025684600F0A2F9E5
:10077000064600BF08E09DF80C001DF8051008446F
:10078000C0B28DF80C006D1C0C2DF4DB002507E0C9
:100790009DF80D001DF8051048408DF80D006D1CEA
:1007A0000C2DF5DB06F0F0002070300A6070300C84
:1007B000A070300EE0709DF80C0020719DF80D00C7
:1007C00060717FBD38B504460D46002000900622BA
:1007D00022494FF4106001F02FF8204800781F499B
:1007E000497808431D49897808431C49C97808435A
:1007F0001A490979084319494979084378B9002009
:100800001649087008204870DC2088700020C870E5
:100810000871487106224FF4106001F065F8104825
:1008200004701048056010481049086004226946A9
:100830004FF4706001F058F8042269464FF470607C
:1008400001F052F804226946900101F04DF802F0DF
:10085000BDF800200649087038BD00006001002086
:100860002801002054010020785634125001002045
:100870004101002010B5202000F02EF848B12020C2
:1008800000F00CF80021034800F016F8002002499F
:10089000087010BD1C000240EC00002000F08051E8
:1008A00011B10349086001E0024948607047000047
:1008B000040402400000024021B1026842F001023B
:1008C000026004E002684FF6FE731A40026070474F
:1008D0000146486880B2704701460020002201F0BE
:1008E000805313B1054B1A6801E0054B1A6802EA00
:1008F00001030BB1012000E000207047000402401A
:100900000000024070472DE9F04102460025002614
:10091000002000230024002791F803C00CF00F05ED
:1009200091F803C00CF0100CBCF1000F03D091F84B
:1009300002C04CEA050591F800C0BCF1000F31D0AF
:10094000146800202BE04FF0010C0CFA00F3B1F812
:1009500000C00CEA03069E4220D183004FF00F0C2A
:100960000CFA03F7BC4305FA03FC4CEA040491F8C3
:1009700003C0BCF1280F06D14FF0010C0CFA00FCAB
:10098000C2F814C00AE091F803C0BCF1480F05D1C9
:100990004FF0010C0CFA00FCC2F810C0401C0828F3
:1009A000D1D31460B1F800C0BCF1FF0F34DD54683E
:1009B00000202EE000F1080C4FF0010808FA0CF3BB
:1009C000B1F800C00CEA03069E4221D183004FF02B
:1009D0000F0C0CFA03F7BC4305FA03FC4CEA0404C1
:1009E00091F803C0BCF1280F05D100F1080C08FAFA
:1009F0000CF8C2F8148091F803C0BCF1480F07D17D
:100A000000F1080C4FF0010808FA0CF8C2F8108049
:100A1000401C0828CED35460BDE8F081F0B50A46EA
:100A2000002300240021002500F00046B6F1004F0D
:100A300002D11D4EF16901E01B4E7168C0F3034500
:100A400083B200F44016B6F5401F08D121F0706162
:100A5000154E766826F07066134F7E6012E000F443
:100A60008016B6F5801F06D1032606FA05F4A143C9
:100A700041F0706106E0460D360103FA06F6B14317
:100A800041F0706122B1460D360103FA06F631439A
:100A900000F00046B6F1004F02D1034EF16101E0D3
:100AA000014E7160F0BD00000000014041617047DF
:100AB000016170470EB50146002000900190029040
:100AC0001A48006800901948001D006801901748F6
:100AD000083000680290009808700098000A48707A
:100AE0000098000C88700098000EC870019808717A
:100AF0000198000A48710198000C88710198000E55
:100B0000C871029808720298000A48720298000C94
:100B100088720298000EC87200984008019A00EB93
:100B20009200029A00EBD2000EBD0000E8F7FF1F12
:100B3000704710B500F002F810BD00004AF6AA2078
:100B400001490860704700000030004010B5A2B0B5
:100B500080212E48FFF723FB02A8FFF7FDFD02AA24
:100B60002BA12A4800F0F2FE2848FFF723FB294971
:100B7000086080212848FFF712FB02AA24A126481A
:100B800000F0E4FE2448FFF715FB244908608021AB
:100B900002A8FFF704FB22A021A321A221A100901B
:100BA00002A800F0D3FE02A8FFF704FB04460320CE
:100BB0001BA3254A2146009002A801F051FF2248BC
:100BC000FFF7F8FA2149086080212148FFF7E7FA8A
:100BD00020A21CA11E4800F0B9FE40F25B70214922
:100BE000086008461A4902681FA001F0FFFE074985
:100BF00022A001F0FBFE084924A001F0F7FE1249F3
:100C000026A001F0F3FE22B010BD0000B83A00208B
:100C10002578000048000020383B00204C000020D0
:100C20007A6A7400636C69656E74496425736465DF
:100C3000766963654E616D65257370726F64756367
:100C4000744B657925730000B83B002050000020EC
:100C5000383C002034372E3130382E3134342E34A5
:100C60003100000054000020B7FE20CEF120C6F76E
:100C7000A3BA25733A25640D0A000000BFCDBBA7B7
:100C8000B6CB4944A3BA25730D0A0000D3C320BBD9
:100C9000A720C3FBA3BA25730D0A0000C3DC2020E4
:100CA0002020C2EBA3BA25730D0A000008B501216C
:100CB0000D2000F05BF801210F48FFF7AFFE082080
:100CC000ADF8000010208DF8030003208DF802001D
:100CD00069460A48FFF717FE4FF40040ADF80000E0
:100CE00010208DF8030003208DF8020069460448A7
:100CF000FFF709FE08BD000000023000000C0140B3
:100D00000008014010B5C020044908700020487058
:100D10000221024800F044FB10BD0000B83C002056
:100D2000704770470648006800F4E06005490843D2
:100D3000001D03490860BFF34F8F00BFFEE70000AE
:100D40000CED00E00000FA057047000029B1064AEA
:100D5000D2690243044BDA6104E0034AD269824358
:100D6000014BDA61704700000010024029B1064AC9
:100D700092690243044B9A6104E0034A92698243F8
:100D8000014B9A61704700000010024030B500210D
:100D90000022002400232D4D6D6805F00C0121B1C7
:100DA000042905D0082923D105E0294D056022E05A
:100DB000274D05601FE0254D6D6805F47012234D29
:100DC0006D6805F48034022505EB92421CB9214D73
:100DD000554305600BE01D4D6D6805F400351DB1F0
:100DE0001C4D5543056002E0194D5543056002E076
:100DF000174D056000BF00BF144D6D6805F0F00190
:100E00000909154D6B5C0568DD4045600F4D6D6847
:100E100005F4E061090A104D6B5C4568DD408560B2
:100E20000A4D6D6805F46051C90A0B4D6B5C45684D
:100E3000DD40C560054D6D6805F44041890B074DE7
:100E40006B5CC568B5FBF3F5056130BD0010024071
:100E500000127A0000093D0088010020980100205E
:100E600010B54FF480510248FFF722FE10BD00007C
:100E7000000C014010B54FF480510248FFF716FEF8
:100E800010BD0000000C014021B1028842F0400278
:100E9000028004E002884FF6BF731A400280704758
:100EA00000B585B000F034F80020ADF80C00ADF8C6
:100EB00000004FF48270ADF802000020ADF804008D
:100EC000ADF80600ADF808004FF40070ADF80A0068
:100ED0000020ADF80E000720ADF810006946064866
:100EE00000F068F80121044800F09CF80121024854
:100EF000FFF7CAFF05B000BD00380040012080F3B5
:100F0000108800BF7047002080F3108800BF704732
:100F100008B501210C20FFF729FF01218803FFF705
:100F200015FF4FF46040ADF8000003208DF802007B
:100F300018208DF8030069461C48FFF7E4FC4FF4C5
:100F40008050ADF8000003208DF8020010208DF8CD
:100F5000030069461548FFF7D6FC4FF4805113484B
:100F6000FFF7A6FD4FF40060ADF8000003208DF8F8
:100F7000020010208DF8030069460D48FFF7C3FCFE
:100F80004FF400610A48FFF793FD4FF48070ADF80D
:100F9000000003208DF8020048208DF80300694608
:100FA0000348FFF7B0FCFFF781FE08BD000C0140CD
:100FB0000008014010B50022028802F441520B885B
:100FC0004C8823438C882343CC8823430C892343B8
:100FD0004C8923438C892343CC8923431A430280C1
:100FE000838B4FF2FF74234083830B8A038210BDEF
:100FF00000BF0B48008800F002000028F9D0FF2055
:101000000749091D088000BF0548008800F001005D
:101010000028F9D00248001D0088C0B270470000C7
:101020000838004021B1828842F00402828004E046
:1010300082884FF6FB731A408280704700BF0A49CE
:10104000098801F002010029F9D00749091D08802B
:1010500000BF0549098801F001010029F9D00249C2
:10106000091D09887047000008380040704710B516
:1010700000F002F810BD00000CB5002001900090B7
:101080003348006840F480303149086000BF304880
:10109000006800F4003000900198401C0190009816
:1010A00018B90198B0F5A06FF1D12948006800F493
:1010B000003010B10120009001E000200090009865
:1010C000012843D12348006840F0100021490860FE
:1010D0000846006820F0030008600846006840F0F9
:1010E000020008601A48406819494860084640688C
:1010F00048600846406840F48060486008464068A0
:1011000020F47C1048600846406840F4E8104860CD
:101110000846006840F08070086000BF0C48006816
:1011200000F000700028F9D00948406820F0030062
:10113000074948600846406840F00200486000BF28
:101140000348406800F00C000828F9D10CBD0000ED
:10115000001002400020024010B500F001F810BD60
:1011600010B51B48006840B119480068401E184976
:10117000086010B9012017490870002408E004EB4A
:101180004401154A02EB810001F0EEF8601CC4B284
:10119000042CF4DB11480068401C10490860084624
:1011A00000686FF00041884202D100200B490860BE
:1011B00001F0D9F80A480078401CC0B2084908700C
:1011C0000A2803DB0020087001F0CCF810BD0000F5
:1011D000F0000020F4000020B8460020F8000020B5
:1011E000FC00002010B5002100200022214B5B688C
:1011F00003F00C0121B1042906D0082928D107E009
:101200001D4B1E4C236027E01B4B1C4C236023E02E
:10121000184B5B6803F47010164B5B6803F4803264
:10122000022303EB904022B9154B4343134C236038
:101230000DE0104B5B6803F4003323B1104B4343C4
:101240000E4C236003E00C4B43430C4C236003E043
:10125000094B0A4C236000BF00BF064B5B68C3F319
:101260000313084CE15C054B1B68CB40034C236027
:1012700010BD00000010024000127A00740100202E
:1012800000093D007801002010B51348006840F0C7
:1012900001001149086008464068104908400E499D
:1012A0004860084600680E4908400B490860084637
:1012B000006820F4802008600846406820F4FE00A2
:1012C00048604FF41F008860FFF7D1FE4FF00060C8
:1012D0000449086010BD0000001002400000FFF843
:1012E000FFFFF6FE08ED00E010B50121880700F0D1
:1012F00044F8002831D019480068401C174908609C
:1013000017480078401C16490870087800EBD07127
:101310004910A0EB410109B1FFF70BFC114800781F
:10132000401C10490870084600783B2811DB00205B
:1013300008700D480078012801D1FFF7E3FC0B4845
:101340000078401C0949087009480068401C084999
:1013500008600121880700F00DF810BD140000207E
:1013600021000020220000200F0000201800002093
:101370001C000020CA430282704730B5024600209C
:1013800000230024158A05EA0103958905EA010472
:1013900013B10CB1012000E0002030BD8184704702
:1013A00070B505460C462246294613480068801C45
:1013B000FEF7DCFE2046E11704EB1161090A0E4A34
:1013C00012681170E11704EB11610912A4EB0121FD
:1013D000094A126851700848006800F50070064913
:1013E00008600846006805490968884202D1044837
:1013F0000149086070BD0000300000203800002066
:10140000B81A002010B540F22551304800F07AF8A3
:1014100078B12E48001D008858B12C48001D008866
:101420002B492C4A126888542A480068401C2949D4
:10143000086040F22441254800F064F8002844D0B8
:1014400022480088234908602048001D0088086061
:1014500000212148FFF730FA1F48FFF739FAC0F59D
:1014600080601C4908600846194902681B480068EA
:10147000801CFEF77BFE17480088000A17490968A0
:1014800008701448007815490968487013480068C6
:1014900000F50070114908600846006810490968A5
:1014A000884202D10F480D490860002009490860B0
:1014B0004FF4806008493039486301210648FFF73E
:1014C000FBF900210848FFF769FF10BD0048004004
:1014D000B83E0020E8000020300002402400002038
:1014E0002C000020B80A00200004004021B18289AD
:1014F00042F40052828104E082894DF6FF731A4063
:101500008281704770B50246002400230025002028
:1015100040F66A16B14200D100BFC1F3421501F096
:101520001F03012606FA03F3012D02D196893340E9
:1015300006E0022D02D1168A334001E0968A33403C
:101540000C12012606FA04F41688344013B10CB1CB
:10155000012000E0002070BD2DE9F04786B005466F
:101560000E460024A24600BFA1460027B08900B164
:1015700000BF2F462C8A4CF6FF700440F0880443CD
:101580002C82AC894EF6F3100440B08831890843B0
:10159000718908430443AC81AC8A4FF6FF40044094
:1015A000B0890443AC8201A8FFF7F0FB1F488742D3
:1015B00002D1DDF810A001E0DDF80CA0A88900F44C
:1015C000004040B10AEBCA0000EB0A103168490044
:1015D000B0FBF1F807E00AEBCA0000EB0A10316833
:1015E0008900B0FBF1F86420B8FBF0F00401200999
:1015F000642101FB1089A88900F4004040B1322029
:1016000000EBC900B0FBF1F000F00700044308E074
:10161000322000EB09106421B0FBF1F000F00F0064
:1016200004432C8106B0BDE8F0870000003801407B
:101630007047000010B586B0044601218803FFF70B
:1016400095FB01210420FFF791FB4FF40070ADF8EA
:10165000140003208DF8160018208DF8170005A936
:101660001248FFF750F94FF48060ADF814000420E1
:101670008DF8170005A90D48FFF745F901940020E2
:10168000ADF80800ADF80A00ADF80C00ADF8100098
:101690000820ADF80E0001A90548FFF75DFF012104
:1016A0000348FFF723FF06B010BD0000000801400B
:1016B0000038014000B585B02B4B0FCBCDE903239B
:1016C000CDE90101FFF7ECFB2849294801F03CF97D
:1016D0002849294801F04CF92849294801F05CF9CA
:1016E00001A9012000F0C2FE401C20B925A001F094
:1016F0007DF9FFF717FB00BF69460F2000F0B6FE2B
:10170000401C20B927A001F071F9FFF70BFB9DF8F1
:10171000000030B929A001F069F94FF4FA6000F037
:10172000B1FD9DF800000028E6D02848FFF714F826
:10173000062226494FF4106000F0D6F82449002014
:10174000FFF740F8234A2449084601F0DDF800205D
:10175000224908702249087022490860401E224927
:10176000086005B000BD0000804A0008070F0008AF
:10177000FD0E0008610E0008750E00083D100008FF
:10178000F10F0008B3F5CABCBBAFCAD5B7A2B7D634
:10179000C7F8CAA7B0DC2CD7BCB1B8D6D8C6F40DF0
:1017A0000A000000CEB4D6AAB4EDCEF3A3ACD7BCE9
:1017B000B1B8D6D8C6F40D0A00000000CDF8CFDFCE
:1017C000CEB4C1ACBDD30D0A000000009C010020C6
:1017D000B30100201D270008C926000800000020D2
:1017E0000C000020040000200800002070B5044612
:1017F0001049886880470F490869804700BF0D4835
:10180000C169C4F3074088470A48C169C4F3072087
:101810008847E0B2074AD169884706498869804706
:1018200005460449486980470249C86880472846F8
:1018300070BD0000000100202DE9F04104460E4675
:1018400017460025A8461449886880471249086948
:10185000804700BF1048C169C4F3074088470E485D
:10186000C169C4F307208847E0B20B4AD1698847B1
:1018700000BF06E00849886980477055681C85B23A
:1018800000BFBD42F6DB0449486980470249C86889
:101890008047BDE8F08100000001002070B50446DB
:1018A0000D461049886880470E490869804744F012
:1018B00004040C48C169C4F3074088470948C1695A
:1018C000C4F307208847E0B2064AD1698847054833
:1018D000C169284688470349486980470149C86863
:1018E000804770BD000100202DE9F04104460E46FE
:1018F00017460025A8461449886880471249086998
:10190000804744F004041048C169C4F30740884785
:101910000D48C169C4F307208847E0B20A4AD1697B
:10192000884700BF06E0705D074AD1698847681C98
:1019300085B200BFBD42F6DB0349486980470249D2
:10194000C8688047BDE8F081000100200FB4084B53
:1019500010B504A902AA039800F0F2F8044602A9FF
:10196000002000F070FC204610BC5DF814FB000065
:101970004722000837B514460846064B6A462146FA
:1019800000F0DEF804466946002000F05CFC2046CA
:101990003EBD00004722000802E008C8121F08C12F
:1019A000002AFAD170477047002001E001C1121FE0
:1019B000002AFBD1704780F3108870472DE9FF5F44
:1019C00082B00021DDE90430020DDDF840B00343B0
:1019D00018D044F61050A2F2FF3242431514119869
:1019E00001281FD0A5EB0B00401C5FEA000A4FF056
:1019F00000064E4FDFF83891B046504615D5CAF173
:101A0000000413E0119801244AA3012801D16FEAD0
:101A10000B010298119AC0E90031C0E9024206B0F8
:101A2000BDE8F09FCBF10000DFE704460021404A0B
:101A3000491842EB0450CDE9001012E0E00707D04E
:101A400032463B4640464946FEF7B9FC8046894649
:101A500032463B4610461946FEF7B1FC06460F4695
:101A60006410002CEAD1DDE90401DDE90023BAF1BC
:101A7000000F06DAFEF7A3FC42464B46FEF79FFC3A
:101A800005E0FEF70EFD42464B46FEF70AFD044612
:101A90000E460022284BFEF78BFD03D84FF0FF3097
:101AA000014607E00022254B20463146FEF7E0FBC9
:101AB000FEF766FD102409E0002C0ADB0A22002351
:101AC000FEF795FB039B30321A55641E50EA010263
:101AD000F2D1641C039AC4F111031444119A012A2F
:101AE00003D0012208430DD10AE0084304D00020AE
:101AF0004FF0110B119072E7A3EB0B056D1E0DE07B
:101B00005B4504DD4FF0000205F1010504E003DA56
:101B10004FF00002A5F10105002AECD002981199BE
:101B2000C0E90231C0E9004579E700000000144037
:101B30000000F03F300000000000F0430000E03FF4
:101B40002DE9FF4F95B09A46884606460025EEE1FE
:101B5000252877D100242746F94A0121039400E083
:101B6000044316F8013F203B01FA03F01042F7D17D
:101B700030782A2811D06FF02F033078A0F130028E
:101B8000092A16D8039A44F0020402EB820203EBFE
:101B900042021044761C0390EFE758F8042B03929E
:101BA000002A03DA504244F40054039044F0020443
:101BB000761C30782E2816D116F8010F44F0040454
:101BC0002A280DD06FF02F023078A0F13003092BB6
:101BD00009D807EB870302EB4303C718761CF3E72A
:101BE00058F8047B761C30786C280FD006DC4C2823
:101BF00017D068280DD06A2814D104E0742810D0BA
:101C00007A280FD10DE044F400140AE044F4801463
:101C100001E044F440147278824202D104F5801449
:101C2000761C761C307866280BD013DC582877D0C9
:101C300009DC002875D04528F6D04628F4D047287E
:101C40001AD193E118E0632835D0642879D065284B
:101C500012D18BE1702873D008DC6728F1D0692895
:101C60006FD06E280DD06F2806D1ACE073282CD031
:101C7000752874D0782853D05246179990476D1C18
:101C800054E1C4F30250022809D003280DD0D8F83B
:101C9000001004280DD00D6008F1040846E1D8F8C2
:101CA0000010EA17C1E90052F6E7D8F800100D80DD
:101CB000F2E70D70F0E718F8041B8DF80010002013
:101CC0008DF80100EB46012003E058F804BB4FF00B
:101CD000FF3061074FF0000102D40DE009F101016E
:101CE0008946B9420FDA8145F8DB1BF80910002953
:101CF000F4D108E009F1010189468142FADB1BF8C1
:101D000009100029F6D103985346A0EB0907214694
:101D10003846179A00F080FA284400EB090507E0DE
:101D200044E008E10DE01BF8010B5246179990477B
:101D3000B9F10109F7D2534621463846179AF2E025
:101D400039E00A21C4F302524FF0000B0091022A3D
:101D500006D058F8040BC117032A09D00AE023E083
:101D600008F1070020F00702F2E80201904605E0C2
:101D700000B2C117042A01D140B2C117002906DA06
:101D80000A460021404261EB02012D2202E02205B9
:101D900004D52B228DF80420012203E0E20701D0B4
:101DA0002022F7E7914657E00A2100E010214FF08A
:101DB000000B00910BE010214FF0000B44F00404E5
:101DC0000827009103E008204FF0000B0090C4F3B7
:101DD0000252022A05D058F8040B0021032A08D029
:101DE00008E008F1070020F00702F2E8020190463F
:101DF00003E080B2042A00D1C0B24FF000092207EC
:101E00002AD53278702A07D0DDF800C08CF0100C8B
:101E10005CEA0B0C05D00EE040228DF80420012274
:101E200008E050EA010306D030238DF804308DF825
:101E3000052002229146009B83F0080353EA0B031E
:101E40000AD150EA010201D1620705D530228DF88E
:101E500004204FF001097F1E3278582A04D039A29D
:101E60000C920CAA02920BE03BA2F9E75B46009AA7
:101E7000FEF7BDF90C9B9B5C029A521E02921370F6
:101E800050EA0102F2D1029804A9081A00F1200BCD
:101E9000600702D524F4803400E001275F4502DDAD
:101EA000A7EB0B0000E0002000EB0B010090039873
:101EB0004944401A0390E00306D453462146179A3A
:101EC000039800F0A9F90544002706E001A852464E
:101ED000C05D179990476D1C7F1C4F45F6DBE003F2
:101EE0000CD553462146179A039800F095F90544FE
:101EF00004E030205246179990476D1C0099481E07
:101F000000900029F5DC08E002980299524600781A
:101F1000491C0291179990476D1CBBF10001ABF170
:101F2000010BF1DC5BE100F065F90544761C3078CB
:101F300000287FF40DAE19B02846BDE8F08F0000F0
:101F4000092801003031323334353637383961628F
:101F50006364656600000000303132333435363753
:101F6000383941424344454600000000600700D430
:101F7000062708F1070020F00700F0E8022380465A
:101F800003F0004C5FEA0C0001D097A009E02005A7
:101F900001D596A005E0E00701D095A001E0AFF2E1
:101FA0004C001390307823F0004365280CD006DCF9
:101FB000452809D046281DD047287FD13BE0662818
:101FC00018D067287AD136E00021112F01DB1120CB
:101FD00000E0781CCDE9000104A90CA8FFF7EEFC95
:101FE000DDE90D010C9A4FF0000B07F10109109289
:101FF00000914EE04FF000400097CDE9011004A998
:102000000CA8FFF7DBFCDDE90D020C9B0F994FF0EC
:10201000000B91461093009211B9791C00EB010955
:10202000B7EB090003D4C0F1FF3B07F10109A9EBAD
:102030000700019042E0012F00DA01270021112F53
:1020400001DD112000E03846CDE9000104A90CA80B
:10205000FFF7B4FCDDE90D010C9A00914FF0000B85
:10206000B946109221070FD4009A4A4503DA9146E7
:1020700001E0A9F10109B9F1010F05DD109AA9F1FB
:102080000101515C3029F4D0B84202DA10F1040F9A
:1020900003DA0121CDE9011010E0002803DC8344BC
:1020A000A9EB000102E0411C494500DD8946A0EB97
:1020B0000B00401C01904FF000400290200705D417
:1020C0000198484502DB4FF0FF30019000208DF869
:1020D0004B0002980DF14B07B0F1004F25D00220C4
:1020E0000C902B200D90029800280CDA40420290B0
:1020F0002D200D9007E00A210298FEF762F830319A
:10210000029007F8011D0C99481E0C900029F2DC82
:1021100002980028EFD1791E0D980870307800F0F1
:10212000200040F0450007F8020D11A8C01BC01D9B
:1021300002901398007800B1012000EB090101988A
:1021400001EBE071029801440398401A401E03908D
:10215000E00306D453462146179A039800F05CF832
:1021600005441398007818B15246179990476D1C92
:10217000E00323D553462146179A039800F04CF804
:1021800005441BE0BBF1000F07DB0098584504DD58
:102190001098179910F80B0001E01799302052465B
:1021A000904701980BF1010B401E05F101050190CC
:1021B00004D12E205246179990476D1CB9F10001A9
:1021C000A9F10109DEDC05E017F8010B5246179969
:1021D00090476D1C0299481E02900029F4DC53467A
:1021E0002146179A03989EE62D0000002B00000060
:1021F000200000002DE9F041044600251E46174648
:10220000880404D405E039462020B0476D1C641EC4
:10221000F9D52846BDE8F0812DE9F04104460025B6
:102220001E469046C80301D5302700E020278804C9
:1022300004D505E041463846B0476D1C641EF9D50B
:102240002846BDE8F0810A68531C0B601070704787
:102250000146042901DB0020704701EB4100084AD8
:1022600002EB80004078012808D1002001EB4102F8
:10227000034B03EB820250700120EDE70020EBE7F7
:10228000B846002010B5044604B910BD012C00D199
:1022900002240120FFF78FFB084804600020084952
:1022A0000870FFF788FB04E005480078012800D19A
:1022B00000E0F9E700BF00BFE7E70000F000002002
:1022C000F400002070B5002416E0002004EB440167
:1022D000204A02EB8101486004EB440102EB8101DA
:1022E000886004EB440102EB8101487004EB440177
:1022F00002F82100601CC4B2042CE6DBFEF772FF7A
:10230000154800684FF47A72B0FBF2F1B1F1807FAA
:1023100000D31DE021F07F40401E4FF0E0225061CD
:1023200050170F22002807DA13071E0E0B4B00F080
:102330000F052D1F5E5503E013071D0E084B1D549E
:1023400000BF00204FF0E02290610720106100BF25
:1023500070BD0000B84600207401002018ED00E0B8
:1023600000E400E070477047416851B14168491E80
:10237000416031B9012141700178012901D18168A1
:102380004160704770B504460D46042C06DB124AC6
:1023900012A119A000F02AFB00BFFEE70120FFF701
:1023A0000AFB04EB44001C4901EB8000456004EB90
:1023B000440001EB80008560002004EB4401164AD4
:1023C00002EB81014870012004EB440102F8210076
:1023D0000020FFF7F0FA70BD9F4A00082E2E5C48DF
:1023E000415244574152455C7363725C6273705F43
:1023F00074696D65722E63004572726F723A206661
:10240000696C652025732C2066756E6374696F6E28
:1024100020257328290D0A00B846002070B505460E
:102420000C46062D1CD2DFE805F003070B0F13172F
:10243000204602F0C7F916E0204602F025F912E026
:10244000207802F0EBF970BD02F04CF920700AE040
:10245000204602F0F6F906E0204602F048F902E0D4
:102460004FF0FF30EFE700BF0020ECE72DE9FC4123
:1024700006460C460025002000900190102E79D2CF
:10248000DFE806F0080B1A161E2226323F51545878
:102490005C5D616C02F0EBF96FE01CB10094009898
:1024A00008300190DDE9000102F035F9BDE8FC815A
:1024B000208802F0ACF860E002F0BDF820805CE01B
:1024C000208802F070F958E002F0CAF8208054E049
:1024D000208801124FF49850FFF7E0F921784FF46B
:1024E000A050FFF7DBF948E04FF4A050FFF77EF96A
:1024F00007464FF49850FFF779F907EB002020804A
:102500003BE01F48807820701D48C07860701C48F0
:102510000079A0701A484079E070194880792071DC
:102520000020607129E002F032FA26E0204602F035
:1025300048FA22E0204602F0D3F91EE01DE02078A0
:1025400002F06BFAB2E702F014FAC5B268B2401CAE
:1025500010B94FF0FF30A9E725700EE002F0FCF94A
:10256000C5B268B2401C18B94FF0FF309EE701E0D9
:10257000257002E04FF0FF3098E700BF002095E79C
:102580000001002010B5042208494FF47060FFF7E5
:10259000ABF9042206494FF4A060FFF7A5F9042225
:1025A00004499001FFF7A0F910BD0000310100209F
:1025B000390100203501002010B580210020FFF7EF
:1025C0006DF90020FFF712F9062203494FF410605D
:1025D000FFF78AF910BD00006001002010B58021CE
:1025E0000020FFF75BF90020FFF700F9FFF7CAFFB3
:1025F000062203494FF41060FFF776F910BD000082
:10260000600100200148006870470000440100207C
:10261000064909780170054949784170034989786C
:1026200081700249C978C170704700003D010020E7
:10263000064909780170054949784170034989784C
:1026400081700249C978C1707047000035010020CF
:10265000064909780170054949784170034989782C
:1026600081700249C978C1707047000031010020B3
:10267000064909780170054949784170034989780C
:1026800081700249C978C17070470000390100208B
:102690004FF4E130FEF7CEFFFFF714FE4FF47A71EE
:1026A0000020FFF76FFEFEF751FAFFF703F806E090
:1026B0000020FFF7CDFD10B101A000F097F9F7E77A
:1026C0006F6B3132330D0A0010B50E48FFF7C0FFB3
:1026D0000C480830FFF7ACFF0A48001DFFF7C8FFA1
:1026E00008480C30FFF794FF02200649891F8875BF
:1026F00000F026F8FFF786FF0446214602A000F00E
:1027000075F910BDA201002044484350D7E2C6DA53
:10271000203A20256420C3EB0D0A000002A000F03F
:1027200065F9FEF7FFFA0000BBF1C8A14950CAA73E
:10273000B0DCA3ACD7BCB1B8D6D8C6F40D0A000043
:1027400000B58BB0002009900A903149FFF766FE72
:1027500003A90120FFF762FE09A90820FFF786FE02
:102760009DF82200022804D109A92AA000F03EF910
:1027700003E009A92FA000F039F937A000F036F9DD
:102780009DF811109DF810009DF80F20CDE9002054
:1027900002919DF80E309DF80D209DF80C1036A08A
:1027A00000F024F99DF8150000909DF814309DF874
:1027B00013209DF812103BA000F018F99DF81D00A1
:1027C00000909DF81C309DF81B209DF81A103BA02E
:1027D00000F00CF99DF8190000909DF818309DF854
:1027E00017209DF816103BA000F000F903A8407DCB
:1027F000009003A8037D9DF81F209DF81E103BA0AC
:1028000000F0F4F814A000F0F1F80BB000BD0000E7
:102810009C0100200D0A3D3D3D202573204E45546E
:1028200020434F4E46203A2044484350203D3D3DF2
:102830000D0A00000D0A3D3D3D202573204E4554F4
:1028400020434F4E46203A20537461746963203D03
:102850003D3D0D0A000000003D3D3D3D3D3D3D3DFF
:102860003D3D3D3D3D3D3D3D3D3D3D3D3D3D3D3D98
:102870003D3D3D0D0A0000004D4143B5D8D6B73A65
:1028800020253032583A253032583A253032583ADD
:10289000253032583A253032583A253032580D0A10
:1028A000000000004950B5D8D6B73A2025642E253F
:1028B000642E25642E25640D0A000000CDF8B9D8D9
:1028C000B5D8D6B73A2025642E25642E25642E254A
:1028D000640D0A00D7D3CDF8D1DAC2EB3A202564D3
:1028E0002E25642E25642E25640D0A00444E53B710
:1028F000FECEF1C6F73A2025642E25642E25642EDF
:1029000025640D0A0000000010B5094B094C236036
:10291000094B0A4C23600A4B0A4C236008B1054B53
:10292000186009B1054B19600AB1064B1A6010BD59
:102930008525000868010020DD2500086C010020C5
:10294000B92500087001002000B131B9054A064BD5
:102950009A60064B044AD36002E0034A9060D1605B
:10296000704700002F460008000100203146000893
:1029700000B131B9054A064B1A61064B044A53614E
:1029800002E0034A106151617047000035460008BB
:10299000000100203346000800BF094A128802F4F3
:1029A0000072002AF9D000B131B9064A044B9A618D
:1029B000054B034AD36102E0014A9061D16170473F
:1029C00000010020694800086D4800080020044903
:1029D00008600A2003490860002003490870704716
:1029E000480100204C010020420100200FB438B5FE
:1029F00005A800901248009A0499FEF7BBFF00203A
:102A000000900F48FDF7D6FB054600BF0D48008833
:102A100000F040000028F9D000240CE00848005DD8
:102A20000849091D088000BF0648008800F04000E2
:102A30000028F9D0641CAC42F0D338BC5DF814FB1C
:102A4000B809002000380140014601F00F010A29B1
:102A500002DA01F1300001E001F1570040B27047A5
:102A60002DE9F043BDB00646884615461F46DDF801
:102A700010910EB105B117B93DB0BDE8F083B9F1C1
:102A8000400F00DDF8E7402116A8FDF788FB402144
:102A900006A8FDF784FB4A46394616A8FDF766FBF3
:102AA0004A46394606A8FDF761FB00240CE016A84B
:102AB000005D80F0360016A9085506A8005D80F07C
:102AC0005C0006A90855641C402CF0DB26A800F029
:102AD000AFF826A801F042FD402216A926A801F071
:102AE00053FD4246314626A801F04EFD01A926A815
:102AF00000F02AF826A800F09BF826A801F02EFD89
:102B0000402206A926A801F03FFD142201A926A80B
:102B100001F03AFD01A926A800F016F800240FE004
:102B200001A9095D0811FFF78FFF05F8140001A93D
:102B3000085DFFF789FF012101EB44016854641C23
:102B4000142CEDDB00BF97E72DE9FC4704460D464A
:102B50002068400F616840EAC1062068C700300E57
:102B60008DF80000300C8DF80100300A8DF802005D
:102B7000F0B28DF80300380E8DF80400380C8DF893
:102B80000500380A8DF80600F8B28DF807002078A5
:102B900000F03F08B8F1380F02D2C8F1380001E068
:102BA000C8F1780081464A462049204601F0ECFCF5
:102BB00008226946204601F0E7FCA068000E287054
:102BC000A068000C68702089000AA870207AE8705C
:102BD000E068000E2871E068000C6871A089000AA6
:102BE000A871207BE8712069000E28722069000C12
:102BF0006872208A000AA872207CE8726069000E60
:102C000028736069000C6873A08A000AA873207D8D
:102C1000E873A069000E2874A069000C6874208B0A
:102C2000000AA874207EE874BDE8FC87C04A00084A
:102C300010B504465C212046FDF7B1FA10BD000036
:102C40002DE9F04390B007460E4696F800C04FEAD3
:102C50000C6C96F801804CEA084C96F802804CEA1D
:102C6000082C96F803804CEA080CCDF800C096F8C2
:102C700004C04FEA0C6C96F805804CEA084C96F8B4
:102C800006804CEA082C96F807804CEA080CCDF830
:102C900004C096F808C04FEA0C6C96F809804CEA1C
:102CA000084C96F80A804CEA082C96F80B804CEAFF
:102CB000080CCDF808C096F80CC04FEA0C6C96F8DA
:102CC0000D804CEA084C96F80E804CEA082C96F8D9
:102CD0000F804CEA080CCDF80CC096F810C04FEAF3
:102CE0000C6C96F811804CEA084C96F812804CEA6D
:102CF000082C96F813804CEA080CCDF810C096F812
:102D000014C04FEA0C6C96F815804CEA084C96F803
:102D100016804CEA082C96F817804CEA080CCDF87F
:102D200014C096F818C04FEA0C6C96F819804CEA5B
:102D3000084C96F81A804CEA082C96F81B804CEA4E
:102D4000080CCDF818C096F81CC04FEA0C6C96F829
:102D50001D804CEA084C96F81E804CEA082C96F828
:102D60001F804CEA080CCDF81CC096F820C04FEA32
:102D70000C6C96F821804CEA084C96F822804CEABC
:102D8000082C96F823804CEA080CCDF820C096F861
:102D900024C04FEA0C6C96F825804CEA084C96F853
:102DA00026804CEA082C96F827804CEA080CCDF8CF
:102DB00024C096F828C04FEA0C6C96F829804CEA9B
:102DC000084C96F82A804CEA082C96F82B804CEA9E
:102DD000080CCDF828C096F82CC04FEA0C6C96F879
:102DE0002D804CEA084C96F82E804CEA082C96F878
:102DF0002F804CEA080CCDF82CC096F830C04FEA72
:102E00000C6C96F831804CEA084C96F832804CEA0B
:102E1000082C96F833804CEA080CCDF830C096F8B0
:102E200034C04FEA0C6C96F835804CEA084C96F8A2
:102E300036804CEA082C96F837804CEA080CCDF81E
:102E400034C096F838C04FEA0C6C96F839804CEADA
:102E5000084C96F83A804CEA082C96F83B804CEAED
:102E6000080CCDF838C096F83CC04FEA0C6C96F8C8
:102E70003D804CEA084C96F83E804CEA082C96F8C7
:102E80003F804CEA080CCDF83CC0B868F9683A6954
:102E90007B69BC694FEA401C4CEAD06882EA030CAB
:102EA0000CEA010C8CEA030CC444DFF8F88FC4442C
:102EB000DDF80080C44464444FEA817C4CEA91010F
:102EC0004FEA441C4CEAD46881EA020C0CEA000C7C
:102ED0008CEA020CC444DFF8CC8FC444DDF80480D3
:102EE000C44463444FEA807C4CEA90004FEA431CA0
:102EF0004CEAD36880EA010C0CEA040C8CEA010C61
:102F0000C444DFF8A08FC444DDF80880C4446244A0
:102F10004FEA847C4CEA94044FEA421C4CEAD268A3
:102F200084EA000C0CEA030C8CEA000CC444DFF8C1
:102F3000748FC444DDF80C80C44461444FEA837C40
:102F40004CEA93034FEA411C4CEAD16883EA040C33
:102F50000CEA020C8CEA040CC444DFF8488FC44429
:102F6000DDF81080C44460444FEA827C4CEA92024F
:102F70004FEA401C4CEAD06882EA030C0CEA010CD0
:102F80008CEA030CC444DFF81C8FC444DDF81480C1
:102F9000C44464444FEA817C4CEA91014FEA441CEA
:102FA0004CEAD46881EA020C0CEA000C8CEA020CB0
:102FB000C444DFF8F08EC444DDF81880C444634490
:102FC0004FEA807C4CEA90004FEA431C4CEAD368FD
:102FD00080EA010C0CEA040C8CEA010CC444DFF812
:102FE000C48EC444DDF81C80C44462444FEA847C2F
:102FF0004CEA94044FEA421C4CEAD26884EA000C82
:103000000CEA030C8CEA000CC444DFF8988EC4442C
:10301000DDF82080C44461444FEA837C4CEA93038A
:103020004FEA411C4CEAD16883EA040C0CEA020C1A
:103030008CEA040CC444DFF86C8EC444DDF82480B0
:10304000C44460444FEA827C4CEA92024FEA401C3E
:103050004CEAD06882EA030C0CEA010C8CEA030CFF
:10306000C444DFF8408EC444DDF82880C44464447E
:103070004FEA817C4CEA91014FEA441C4CEAD46847
:1030800081EA020C0CEA000C8CEA020CC444DFF862
:10309000148EC444DDF82C80C44463444FEA807C21
:1030A0004CEA90004FEA431C4CEAD36880EA010CDA
:1030B0000CEA040C8CEA010CC444DFF8E88DC4442B
:1030C000DDF83080C44462444FEA847C4CEA9404C6
:1030D0004FEA421C4CEAD26884EA000C0CEA030C6A
:1030E0008CEA000CC444DFF8BC8DC444DDF83480A5
:1030F000C44461444FEA837C4CEA93034FEA411C89
:103100004CEAD16883EA040C0CEA020C8CEA040C49
:10311000C444DFF8908DC444DDF83880C444604472
:103120004FEA827C4CEA92024FEA401C4CEAD0689B
:1031300082EA030C0CEA010C8CEA030CC444DFF8AD
:10314000648DC444DDF83C80C44464444FEA817C0F
:103150004CEA9101DDF834C0DDF820808CEA080CDF
:10316000DDF808808CEA080CDDF800808CEA0805A0
:103170004FEA450C4CEAD5784FEA441C4CEAD46936
:1031800081EA020C0CEA000C8CEA020CCC44DFF859
:10319000149DCC44C4446344CDF800804FEA807C45
:1031A0004CEA9000DDF838C0DDF824808CEA080C89
:1031B000DDF80C808CEA080CDDF804808CEA080548
:1031C0004FEA450C4CEAD5784FEA431C4CEAD369E8
:1031D00080EA010C0CEA040C8CEA010CCC44DFF808
:1031E000C49CCC44C4446244CDF804804FEA847C3F
:1031F0004CEA9404DDF83CC0DDF828808CEA080C29
:10320000DDF810808CEA080CDDF808808CEA0805EF
:103210004FEA450C4CEAD5784FEA421C4CEAD26999
:1032200084EA000C0CEA030C8CEA000CCC44DFF8B6
:10323000749CCC44C4446144CDF808804FEA837C3C
:103240004CEA9303DDF800C0DDF82C808CEA080C12
:10325000DDF814808CEA080CDDF80C808CEA080597
:103260004FEA450C4CEAD5784FEA411C4CEAD1694B
:1032700083EA040C0CEA020C8CEA040CCC44DFF860
:10328000249CCC44C4446044CDF80C804FEA827C3A
:103290004CEA9202DDF804C0DDF830808CEA080CBC
:1032A000DDF818808CEA080CDDF810808CEA08053F
:1032B0004FEA450C4CEAD5784FEA401C4CEAD069FD
:1032C00081EA020C8CEA030CCC44DFF8DC9BCC4492
:1032D000C4446444CDF810804FEA817C4CEA9101EB
:1032E000DDF808C0DDF834808CEA080CDDF81C80BD
:1032F0008CEA080CDDF814808CEA08054FEA450CCE
:103300004CEAD5784FEA441C4CEAD46980EA010CB7
:103310008CEA020CCC44DFF8909BCC44C444634458
:10332000CDF814804FEA807C4CEA9000DDF80CC0A8
:10333000DDF838808CEA080CDDF820808CEA080C77
:10334000DDF818808CEA08054FEA450C4CEAD57880
:103350004FEA431C4CEAD36984EA000C8CEA010C66
:10336000CC44DFF8449BCC44C4446244CDF818807C
:103370004FEA847C4CEA9404DDF810C0DDF83C8010
:103380008CEA080CDDF824808CEA080CDDF81C803F
:103390008CEA08054FEA450C4CEAD5784FEA421C06
:1033A0004CEAD26983EA040C8CEA000CCC44DFF8C6
:1033B000F89ACC44C4446144CDF81C804FEA837C25
:1033C0004CEA9303DDF814C0DDF800808CEA080CA9
:1033D000DDF828808CEA080CDDF820808CEA0805EE
:1033E0004FEA450C4CEAD5784FEA411C4CEAD169CA
:1033F00082EA030C8CEA040CCC44DFF8AC9ACC448F
:10340000C4446044CDF820804FEA827C4CEA9202AA
:10341000DDF818C0DDF804808CEA080CDDF82C809B
:103420008CEA080CDDF824808CEA08054FEA450C8C
:103430004CEAD5784FEA401C4CEAD06981EA020C8C
:103440008CEA030CCC44DFF8609ACC44C444644456
:10345000CDF824804FEA817C4CEA9101DDF81CC054
:10346000DDF808808CEA080CDDF830808CEA080C66
:10347000DDF828808CEA08054FEA450C4CEAD5783F
:103480004FEA441C4CEAD46980EA010C8CEA020C35
:10349000CC44DFF8149ACC44C4446344CDF828806B
:1034A0004FEA807C4CEA9000DDF820C0DDF80C800B
:1034B0008CEA080CDDF834808CEA080CDDF82C80EE
:1034C0008CEA08054FEA450C4CEAD5784FEA431CD4
:1034D0004CEAD36984EA000C8CEA010CCC44DFF896
:1034E000C899CC44C4446244CDF82C804FEA847C13
:1034F0004CEA9404DDF824C0DDF810808CEA080C56
:10350000DDF838808CEA080CDDF830808CEA08059C
:103510004FEA450C4CEAD5784FEA421C4CEAD26996
:1035200083EA040C8CEA000CCC44DFF87C99CC4490
:10353000C4446144CDF830804FEA837C4CEA930365
:10354000DDF828C0DDF814808CEA080CDDF83C803A
:103550008CEA080CDDF834808CEA08054FEA450C4B
:103560004CEAD5784FEA411C4CEAD16982EA030C57
:103570008CEA040CCC44DFF83099CC44C444604459
:10358000CDF834804FEA827C4CEA9202DDF82CC000
:10359000DDF818808CEA080CDDF800808CEA080C55
:1035A000DDF838808CEA08054FEA450C4CEAD578FE
:1035B0004FEA401C4CEAD06981EA020C8CEA030C09
:1035C000CC44DFF8E498CC44C4446444CDF838805B
:1035D0004FEA817C4CEA9101DDF830C0DDF81C80B7
:1035E0008CEA080CDDF804808CEA080CDDF83C80DD
:1035F0008CEA08054FEA450C4CEAD5784FEA441CA2
:103600004CEAD46980EA010C8CEA020CCC44DFF865
:103610009898CC44C4446344CDF83C804FEA807C05
:103620004CEA9000DDF834C0DDF820808CEA080C0C
:10363000DDF808808CEA080CDDF800808CEA0805CB
:103640004FEA450C4CEAD5784FEA431C4CEAD36963
:1036500084EA000C8CEA010CCC44DFF84C98CC4492
:10366000C4446244CDF800804FEA847C4CEA940460
:10367000DDF838C0DDF824808CEA080CDDF80C8019
:103680008CEA080CDDF804808CEA08054FEA450C4A
:103690004CEAD5784FEA421C4CEAD26983EA040C22
:1036A0008CEA000CCC44DFF80098CC44C44461445C
:1036B000CDF804804FEA837C4CEA9303DDF83CC0EC
:1036C000DDF828808CEA080CDDF810808CEA080C04
:1036D000DDF808808CEA08054FEA450C4CEAD578FD
:1036E0004FEA411C4CEAD16982EA030C8CEA040CD3
:1036F000CC44DFF8B497CC44C4446044CDF808808F
:103700004FEA827C4CEA9202DDF800C0DDF82C80A2
:103710008CEA080CDDF814808CEA080CDDF80C80CB
:103720008CEA08054FEA450C4CEAD5784FEA401C74
:103730004CEAD06981EA020C8CEA030CCC44DFF835
:103740006897CC44C4446444CDF80C804FEA817C33
:103750004CEA9101DDF804C0DDF830808CEA080CF9
:10376000DDF818808CEA080CDDF810808CEA08057A
:103770004FEA450C4CEAD5784FEA441C4CEAD46930
:1037800080EA010C8CEA020CCC44DFF81C97CC4494
:10379000C4446344CDF810804FEA807C4CEA90002A
:1037A000DDF808C0DDF834808CEA080CDDF81C80F8
:1037B0008CEA080CDDF814808CEA08054FEA450C09
:1037C0004CEAD5784FEA431C4CEAD36984EA000CF2
:1037D0008CEA010CCC44DFF8D096CC44C44462445B
:1037E000CDF814804FEA847C4CEA9404DDF80CC0D8
:1037F000DDF838808CEA080CDDF820808CEA080CB3
:10380000DDF818808CEA08054FEA450C4CEAD578BB
:103810004FEA421C4CEAD26983EA040C8CEA000CA1
:10382000CC44DFF88496CC44C4446144CDF818807D
:103830004FEA837C4CEA9303DDF810C0DDF83C804E
:103840008CEA080CDDF824808CEA080CDDF81C807A
:103850008CEA08054FEA450C4CEAD5784FEA411C42
:103860004CEAD16982EA030C8CEA040CCC44DFF800
:103870003896CC44C4446044CDF81C804FEA827C26
:103880004CEA92024FEA401C4CEAD06901EA020C71
:1038900041EA020808EA03084CEA080CCC44DFF8C5
:1038A0000C86E044DDF814C0DDF800908CEA090CC9
:1038B000DDF828908CEA090CDDF820908CEA0905E7
:1038C0004FEA450C4CEAD57CCDF820C0C444644492
:1038D0004FEA817C4CEA91014FEA441C4CEAD469DE
:1038E00000EA010C40EA010808EA02084CEA080C68
:1038F000CC44DFF8B885E044DDF818C0DDF804906A
:103900008CEA090CDDF82C908CEA090CDDF8249087
:103910008CEA09054FEA450C4CEAD57CCDF824C069
:10392000C44463444FEA807C4CEA90004FEA431C55
:103930004CEAD36904EA000C44EA000808EA0108EA
:103940004CEA080CCC44DFF86485E044DDF81CC088
:10395000DDF808908CEA090CDDF830908CEA090C4F
:10396000DDF828908CEA09054FEA450C4CEAD57C35
:10397000CDF828C0C44462444FEA847C4CEA9404E5
:103980004FEA421C4CEAD26903EA040C43EA0408F9
:1039900008EA00084CEA080CCC44DFF81085E04443
:1039A000DDF820C0DDF80C908CEA090CDDF83490CD
:1039B0008CEA090CDDF82C908CEA09054FEA450CDD
:1039C0004CEAD57CCDF82CC0C44461444FEA837CDA
:1039D0004CEA93034FEA411C4CEAD16902EA030C1A
:1039E00042EA030808EA04084CEA080CCC44DFF871
:1039F000BC84E044DDF824C0DDF810908CEA090CAA
:103A0000DDF838908CEA090CDDF830908CEA090575
:103A10004FEA450C4CEAD57CCDF830C0C444604434
:103A20004FEA827C4CEA92024FEA401C4CEAD06991
:103A300001EA020C41EA020808EA03084CEA080C11
:103A4000CC44DFF86884E044DDF828C0DDF8149049
:103A50008CEA090CDDF83C908CEA090CDDF8349016
:103A60008CEA09054FEA450C4CEAD57CCDF834C008
:103A7000C44464444FEA817C4CEA91014FEA441CFF
:103A80004CEAD46900EA010C40EA010808EA02089D
:103A90004CEA080CCC44DFF81484E044DDF82CC078
:103AA000DDF818908CEA090CDDF800908CEA090C1E
:103AB000DDF838908CEA09054FEA450C4CEAD57CD4
:103AC000CDF838C0C44463444FEA807C4CEA90008F
:103AD0004FEA431C4CEAD36904EA000C44EA0008AC
:103AE00008EA01084CEA080CCC44DFF8C083E04443
:103AF000DDF830C0DDF81C908CEA090CDDF804908C
:103B00008CEA090CDDF83C908CEA09054FEA450C7B
:103B10004CEAD57CCDF83CC0C44462444FEA847C76
:103B20004CEA94044FEA421C4CEAD26903EA040CC2
:103B300043EA040808EA00084CEA080CCC44DFF821
:103B40006C83E044DDF834C0DDF820908CEA090C89
:103B5000DDF808908CEA090CDDF800908CEA090584
:103B60004FEA450C4CEAD57CCDF800C0C444614412
:103B70004FEA837C4CEA93034FEA411C4CEAD1693B
:103B800002EA030C42EA030808EA04084CEA080CBB
:103B9000CC44DFF81883E044DDF838C0DDF8249029
:103BA0008CEA090CDDF80C908CEA090CDDF8049025
:103BB0008CEA09054FEA450C4CEAD57CCDF804C0E7
:103BC000C44460444FEA827C4CEA92024FEA401CB3
:103BD0004CEAD06901EA020C41EA020808EA03084B
:103BE0004CEA080CCC44DFF8C482E044DDF83CC069
:103BF000DDF828908CEA090CDDF810908CEA090CAD
:103C0000DDF808908CEA09054FEA450C4CEAD57CB2
:103C1000CDF808C0C44464444FEA817C4CEA910169
:103C20004FEA441C4CEAD46900EA010C40EA01085E
:103C300008EA02084CEA080CCC44DFF87082E04441
:103C4000DDF800C0DDF82C908CEA090CDDF814904A
:103C50008CEA090CDDF80C908CEA09054FEA450C5A
:103C60004CEAD57CCDF80CC0C44463444FEA807C58
:103C70004CEA90004FEA431C4CEAD36904EA000C7A
:103C800044EA000808EA01084CEA080CCC44DFF8D2
:103C90001C82E044DDF804C0DDF830908CEA090CA9
:103CA000DDF818908CEA090CDDF810908CEA090513
:103CB0004FEA450C4CEAD57CCDF810C0C4446244B0
:103CC0004FEA847C4CEA94044FEA421C4CEAD269E5
:103CD00003EA040C43EA040808EA00084CEA080C6A
:103CE000CC44DFF8C881E044DDF808C0DDF834904A
:103CF0008CEA090CDDF81C908CEA090CDDF81490B4
:103D00008CEA09054FEA450C4CEAD57CCDF814C085
:103D1000C44461444FEA837C4CEA93034FEA411C5C
:103D20004CEAD16902EA030C42EA030808EA0408F3
:103D30004CEA080CCC44DFF87481E044DDF80CC098
:103D4000DDF838908CEA090CDDF820908CEA090C3B
:103D5000DDF818908CEA09054FEA450C4CEAD57C51
:103D6000CDF818C0C44460444FEA827C4CEA920209
:103D70004FEA401C4CEAD06901EA020C41EA020811
:103D800008EA03084CEA080CCC44DFF82081E04440
:103D9000DDF810C0DDF83C908CEA090CDDF82490C9
:103DA0008CEA090CDDF81C908CEA09054FEA450CF9
:103DB0004CEAD57CCDF81CC0C44464444FEA817CF5
:103DC0004CEA91014FEA441C4CEAD46900EA010C28
:103DD00040EA010808EA02084CEA080CCC44DFF883
:103DE000CC80E044DDF814C0DDF800908CEA090CCA
:103DF000DDF828908CEA090CDDF820908CEA0905A2
:103E00004FEA450C4CEAD57CCDF820C0C44463444D
:103E10004FEA807C4CEA90004FEA431C4CEAD3699D
:103E200004EA000C44EA000808EA01084CEA080C1D
:103E3000CC44DFF87880E044DDF818C0DDF8049069
:103E40008CEA090CDDF82C908CEA090CDDF8249042
:103E50008CEA09054FEA450C4CEAD57CCDF824C024
:103E6000C44462444FEA847C4CEA94044FEA421C06
:103E70004CEAD26903EA040C43EA040808EA0008A1
:103E80004CEA080CCC44DFF82480E044DDF81CC088
:103E9000DDF808908CEA090CDDF830908CEA090C0A
:103EA00006E000009979825AA1EBD96EDCBC1B8F29
:103EB000DDF828908CEA09054FEA450C4CEAD57CE0
:103EC000CDF828C0C44461444FEA837C4CEA930394
:103ED0004FEA411C4CEAD16902EA030C42EA0308AA
:103EE00008EA04084CEA080CCC44DFF86886E04491
:103EF000DDF820C0DDF80C908CEA090CDDF8349078
:103F00008CEA090CDDF82C908CEA09054FEA450C87
:103F10004CEAD57CCDF82CC0C44460444FEA827C86
:103F20004CEA9202DDF824C0DDF810808CEA080C1F
:103F3000DDF838808CEA080CDDF830808CEA080562
:103F40004FEA450C4CEAD5784FEA401C4CEAD06960
:103F500081EA020C8CEA030CCC44DFF8FC95CC44DB
:103F6000C4446444CDF830804FEA817C4CEA91012E
:103F7000DDF828C0DDF814808CEA080CDDF83C8000
:103F80008CEA080CDDF834808CEA08054FEA450C11
:103F90004CEAD5784FEA441C4CEAD46980EA010C1B
:103FA0008CEA020CCC44DFF8B095CC44C4446344A2
:103FB000CDF834804FEA807C4CEA9000DDF82CC0CC
:103FC000DDF818808CEA080CDDF800808CEA080C1B
:103FD000DDF838808CEA08054FEA450C4CEAD578C4
:103FE0004FEA431C4CEAD36984EA000C8CEA010CCA
:103FF000CC44DFF86495CC44C4446244CDF83880A6
:104000004FEA847C4CEA9404DDF830C0DDF81C8073
:104010008CEA080CDDF804808CEA080CDDF83C80A2
:104020008CEA08054FEA450C4CEAD5784FEA421C69
:104030004CEAD26983EA040C8CEA000CCC44DFF829
:104040001895CC44C4446144CDF83C804FEA837C4D
:104050004CEA9303DDF834C0DDF820808CEA080CCC
:10406000DDF808808CEA080CDDF800808CEA080591
:104070004FEA450C4CEAD5784FEA411C4CEAD1692D
:1040800082EA030C8CEA040CCC44DFF8CC94CC44D8
:10409000C4446044CDF800804FEA827C4CEA92022E
:1040A000DDF838C0DDF824808CEA080CDDF80C80DF
:1040B0008CEA080CDDF804808CEA08054FEA450C10
:1040C0004CEAD5784FEA401C4CEAD06981EA020CF0
:1040D0008CEA030CCC44DFF88094CC44C4446444A0
:1040E000CDF804804FEA817C4CEA9101DDF83CC0B8
:1040F000DDF828808CEA080CDDF810808CEA080CCA
:10410000DDF808808CEA08054FEA450C4CEAD578C2
:104110004FEA441C4CEAD46980EA010C8CEA020C98
:10412000CC44DFF83494CC44C4446344CDF80880D4
:104130004FEA807C4CEA9000DDF800C0DDF82C806E
:104140008CEA080CDDF814808CEA080CDDF80C8091
:104150008CEA08054FEA450C4CEAD5784FEA431C37
:104160004CEAD36984EA000C8CEA010CCC44DFF8F9
:10417000E893CC44C4446244CDF80C804FEA847C7C
:104180004CEA9404DDF804C0DDF830808CEA080CB9
:10419000DDF818808CEA080CDDF810808CEA080540
:1041A0004FEA450C4CEAD5784FEA421C4CEAD269FA
:1041B00083EA040C8CEA000CCC44DFF89C93CC44DA
:1041C000C4446144CDF810804FEA837C4CEA9303E9
:1041D000DDF808C0DDF834808CEA080CDDF81C80BE
:1041E0008CEA080CDDF814808CEA08054FEA450CCF
:1041F0004CEAD5784FEA411C4CEAD16982EA030CBB
:104200008CEA040CCC44DFF85093CC44C4446044A2
:10421000CDF814804FEA827C4CEA9202DDF80CC0A3
:10422000DDF838808CEA080CDDF820808CEA080C78
:10423000DDF818808CEA08054FEA450C4CEAD57881
:104240004FEA401C4CEAD06981EA020C8CEA030C6C
:10425000CC44DFF80493CC44C4446444CDF81880C3
:104260004FEA817C4CEA9101DDF810C0DDF83C801A
:104270008CEA080CDDF824808CEA080CDDF81C8040
:104280008CEA08054FEA450C4CEAD5784FEA441C05
:104290004CEAD46980EA010C8CEA020CCC44DFF8C9
:1042A000B892CC44C4446344CDF81C804FEA807C6F
:1042B0004CEA9000DDF814C0DDF800808CEA080CB0
:1042C000DDF828808CEA080CDDF820808CEA0805EF
:1042D0004FEA450C4CEAD5784FEA431C4CEAD369C7
:1042E00084EA000C8CEA010CCC44DFF86C92CC44DC
:1042F000C4446244CDF820804FEA847C4CEA9404A4
:10430000DDF818C0DDF804808CEA080CDDF82C809C
:104310008CEA080CDDF824808CEA08054FEA450C8D
:104320004CEAD5784FEA421C4CEAD26983EA040C85
:104330008CEA000CCC44DFF82092CC44C4446144A5
:10434000CDF824804FEA837C4CEA9303DDF81CC04F
:10435000DDF808808CEA080CDDF830808CEA080C67
:10436000DDF828808CEA08054FEA450C4CEAD57840
:104370004FEA411C4CEAD16982EA030C8CEA040C36
:10438000CC44DFF8D491CC44C4446044CDF82880B8
:104390004FEA827C4CEA9202DDF820C0DDF80C8006
:1043A0008CEA080CDDF834808CEA080CDDF82C80EF
:1043B0008CEA08054FEA450C4CEAD5784FEA401CD8
:1043C0004CEAD06981EA020C8CEA030CCC44DFF899
:1043D0008891CC44C4446444CDF82C804FEA817C5D
:1043E0004CEA9101DDF824C0DDF810808CEA080C5D
:1043F000DDF838808CEA080CDDF830808CEA08059E
:104400004FEA450C4CEAD5784FEA441C4CEAD46993
:1044100080EA010C8CEA020CCC44DFF83C91CC44DD
:10442000C4446344CDF830804FEA807C4CEA90006D
:10443000DDF828C0DDF814808CEA080CDDF83C803B
:104440008CEA080CDDF834808CEA08054FEA450C4C
:104450004CEAD5784FEA431C4CEAD36984EA000C55
:104460008CEA010CCC44DFF8F090CC44C4446244A4
:10447000CDF834804FEA847C4CEA9404DDF82CC0FB
:10448000DDF818808CEA080CDDF800808CEA080C56
:10449000DDF838808CEA08054FEA450C4CEAD578FF
:1044A0004FEA421C4CEAD26983EA040C8CEA000C05
:1044B000CC44DFF8A490CC44C4446144CDF83880A7
:1044C0004FEA837C4CEA9303DDF830C0DDF81C80B2
:1044D0008CEA080CDDF804808CEA080CDDF83C80DE
:1044E0008CEA08054FEA450C4CEAD5784FEA411CA6
:1044F0004CEAD16982EA030C8CEA040CCC44DFF864
:104500005890CC44C4446044CDF83C804FEA827C4F
:104510004CEA9202D7F808C08444C7F808C0D7F81C
:104520000CC00CEB0108C7F80C80D7F810C00CEBDE
:104530000208C7F81080D7F814C00CEB0308C7F8BE
:104540001480D7F818C00CEB0408C7F8188010B016
:10455000BDE8F083DCBC1B8FD6C162CA00210160BC
:10456000416006498160064AC260CA430261044A4A
:10457000D2434261034A82617047000001234567CC
:1045800089ABCDEFF0E1D2C32DE9F0410446884676
:1045900015460DB9BDE8F081207800F03F07C7F15E
:1045A0004006206828442060206820602068A842D7
:1045B00002D26068401C606087B1B5420ED304F13E
:1045C0001C01C81932464146FBF7D0FD04F11C011D
:1045D0002046FEF735FBB044AD1B002706E0414600
:1045E0002046FEF72DFB08F14008403D402DF6D255
:1045F00035B104F11C01C8192A464146FBF7B6FD46
:1046000000BFC7E70146087870470170704770B572
:104610000446E5B2261205F0F0014FF4A850FDF76C
:104620003DF931464FF4B850FDF738F970BD704789
:1046300070477047704770B50026002400254FF47E
:10464000A850FDF7D3F800F0F0064FF4B850FDF78E
:10465000CDF80446254606EB052085B2284670BDF8
:1046600070B50026002400254FF4B050FDF7BEF8C9
:1046700006464FF4C050FDF7B9F80446254606EB50
:10468000052085B2284670BD10B504460622214695
:104690004FF41060FDF7D0F8042204F10E019001F0
:1046A000FDF7CAF8042204F10A014FF4A060FDF7F7
:1046B000C3F80422A11D4FF47060FDF7BDF8074850
:1046C0000078A07405484178E17481782175C1783B
:1046D000617503480078A07510BD0000200100201E
:1046E0002401002010B50020FDF780F810BD70B542
:1046F00004464FF4D850FDF779F820704FF4D050AD
:10470000FDF774F805464FF4C850FDF76FF805EB58
:104710000020608070BD2DE9F04105460E4600275F
:1047200000F0A5F8F5B100BF002404E0285D38448E
:1047300047B2601C44B2082CF8DB102F03DD4FF0A9
:10474000FF30BDE8F08100240AE0295DA200521C80
:104750004FF4F85303EBC200FDF7A0F8601C44B21D
:10476000082CF2DBEEB10027002404E0305D384471
:1047700047B2601C44B2082CF8DB102F02DD4FF06A
:10478000FF30DEE700240AE0315DA200521C4FF446
:10479000F05303EBC200FDF781F8601C44B2082C13
:1047A000F2DB0020CDE770B50446E5B226122946BB
:1047B0004FF4B050FDF772F831464FF4C050FDF79A
:1047C0006DF870BD10B50446062221464FF4106006
:1047D000FDF78AF8042204F10E019001FDF784F838
:1047E000042204F10A014FF4A060FDF77DF80422D1
:1047F000A11D4FF47060FDF777F8A07C05490870A3
:10480000E07C4870207D8870607DC870A07D024982
:10481000087010BD200100202401002070B504465E
:10482000002524F03A0008B1681E70BD0020FCF796
:10483000DDFF0546254329460020FDF72FF800201F
:10484000F3E710B5044621784FF4D850FDF726F869
:10485000608801124FF4C850FDF720F8A1784FF49A
:10486000D050FDF71BF810BD00207047704700B511
:1048700085B0062269464FF41060FCF7DDFF042284
:1048800004A99001FCF7D8FF042203A94FF4A0600B
:10489000FCF7D2FF042202A94FF47060FCF7CCFFB2
:1048A00080210020FCF7FAFF0020FCF79FFF062282
:1048B00069464FF41060FDF717F8042204A990012F
:1048C000FDF712F8042203A94FF4A060FDF70CF8DD
:1048D000042202A94FF47060FDF706F805B000BD90
:1048E00070B5044600254FF43850FCF77FFF0546AD
:1048F000C5F38010207005F03800202802D0382839
:1049000003D100BF0120607002E00020607000BF92
:1049100000BF05F03800102805D0182802D0202844
:1049200004D100BF00BF0120A07002E00020A070F1
:1049300000BF00BF05F03800082805D0182802D0B5
:10494000202804D100BF00BF0120E07002E0002059
:10495000E07000BF00BF70BD10B54FF43850FCF7D9
:1049600045FF00F0010008B1012400E000242046CA
:1049700010BD10B500244FF43850FCF737FF00F09D
:10498000300008B1012400E00024204610BD10B51D
:104990004FF43850FCF72AFF044624F080042146E7
:1049A0004FF43850FCF77AFF4FF43850FCF71EFFF5
:1049B000044644F0800421464FF43850FCF76EFF63
:1049C00010BD70B5054600242878012802D144F0B6
:1049D000400401E024F040046878012802D144F04A
:1049E000380412E0E878012808D1A878012802D11B
:1049F00044F0180409E044F0080406E0A87801280F
:104A000002D144F0100400E000BF21464FF43850BA
:104A1000FCF744FFFFF7BBFF70BD70B505460024EF
:104A20004FF43850FCF7E2FE044604F0400010B9A1
:104A30004FF0FF3070BD24F03804012D02D144F056
:104A4000300401E044F0380421464FF43850FCF7BC
:104A500025FFFFF79CFF4FF43850FCF7C7FE0446D4
:104A6000012D04D104F0300030B10020E2E704F061
:104A7000380008B10020DDE74FF0FF30DAE7000032
:104A80000202020202020202020202020202020206
:104A90006273705F537461727454696D6572006201
:104AA00073705F53746172744175746F54696D658E
:104AB00072006273705F53746F7054696D65720039
:104AC0008000000000000000000000000000000066
:104AD00000000000000000000000000000000000D6
:104AE00000000000000000000000000000000000C6
:104AF00000000000000000000000000000000000B6
:104B0000204B0008000000209C0100000007000866
:104B10007C4B00089C0100204C490000A8190008AB
:104B2000D1025601000A936170705F746F706963FF
:104B3000100801025735353030132F461B08310459
:104B40001A35041A33041A05041A0B0401241AFF37
:104B50000141B20AA757495A6E65741385251B088F
:104B6000DD041AB904118CA24A04806F03040607FD
:0C4B700008090C6910050002040608008A
:0400000508000149A5
:00000001FF
